:100000000C94ED390D94853C0D945A3C0D942F3C85
:100010000D94043C0D94D93B0D94AE3B0D94833B61
:100020000D94583B0C94CAED0C94CAED0C94CAED97
:100030000C941E3A0C941E3A0C941E3A0C941E3AE0
:100040000C941E3A0D94AD5B0C941E3A0C941E3A1F
:100050000C941E3A0C941E3A0D9460460D940E3B7F
:100060000C941E3A0C9406D10C94FCD00C941E3ABD
:100070000C941E3A0C941E3A0C941E3A0C941E3AA0
:100080000C94B65D0C941E3A0C941E3A0C941E3AD5
:100090000C941E3A0C941E3A0C941E3A0C941E3A80
:1000A0000C941E3A0C941E3A0C94885D0C941E3AE3
:1000B0000C941E3A0C941E3A0C941E3A0C945A5D01
:1000C0000C941E3A0C941E3A0C941E3A0C941E3A50
:1000D0000C941E3A0C941E3A0C941E3A0C941E3A40
:1000E0000C941E3A084AD73B3BCE016E84BCBFFD40
:1000F000C12F3D6C74319ABD56833DDA3D00C77FF8
:1001000011BED9E4BB4C3E916BAAAABE0000008090
:100110003F05A84CCDB2D44EB93836A9020C50B91F
:10012000918688083CA6AAAA2ABE000000803F0744
:10013000634236B79BD8A71A39685618AEBAAB5582
:100140008C1D3CB7CC5763BD6DEDFD753EF6177247
:1001500031BF000000803F08000000BE9224491219
:100160003EABAAAA2ABECDCCCC4C3E00000080BE3D
:10017000ABAAAAAA3E00000000BF000000803F001A
:1001800000000000084178D3BB4387D1133D190E0E
:100190003CC3BD4282AD2B3E68EC8276BED98FE176
:1001A000A93E4C80EFFFBE01C4FF7F3F000000006E
:1001B00000000D94A08D0D94E49B0D9404840D9487
:1001C00073120D94363A0D9498830D9416840D9401
:1001D000A28A0D9417150D9464850D942C3A0D94F4
:1001E000D1390D94882A0D9413840D9435830D9480
:1001F0004D050D943A770D944E7B0D94677D0D94CB
:1002000017780D94A48D0D94EB390D946F7D0D949A
:100210009F2A0D94AF790D9453AF0D94A61A0D94A7
:10022000BA780D94B01A0D94F57C0D9452A40D94E7
:100230000A840D94F47C0D94788F0D94C3490D9429
:10024000C57B0D9438770D94112A0D948C2A0D944A
:10025000C5A10D942F830D941F840D94D9390D944D
:100260000B770D94847B0D94AB1A0D94E1390D94AA
:100270005F2A0D94597D0D94B8770D94FF390D9434
:10028000D5160D9421870D94E7490D9428940D946B
:10029000C7390D94E3770D942F8B0D942AA60D94F6
:1002A000D09B0D942A940D946D7A0D948A770D94B9
:1002B000E6780D94BD390D94AF0F0D947C480D94E4
:1002C000FF490D94CD2A0D94DA800D94922A0D9455
:1002D000DA9B0D9407840D94F97C0D94403A0D94AB
:1002E0002B0B0D94D3780D94F67C0D9462780D94BD
:1002F000DF9B0D9434940D94497C0D94EE9B0D94EA
:10030000627C0D947B7C0D94A1770D94A11A0D94C1
:100310002C830D94F0760D941C840D9497800D948D
:10032000A20E0D94A19F0D949C8D0D9440AA0D9446
:100330009A2A0D947B780D947A2A0D94D93A0D94CB
:10034000122A0D94FA490D94F77C0D94AE390D9450
:10035000350D0D947E2A0D9438830D94EA850D9405
:10036000A42A0D944B7B0D942C940D94CB9B0D944F
:10037000D5830D94E2490D943E830D9473770D94CB
:10038000CF490D9472990D94187D0D9444830D946A
:10039000F9A00D940D840D94B3390D944B890D94EF
:1003A0005BAD0D94307C0D949F760D94742A0D9462
:1003B000712A0D94FE990D9426770D946C850D94F9
:1003C000692A0D94F39B0D94F5390D943C810D949D
:1003D000D6800D946D2A0D94142A0D9410840D94DA
:1003E000D5760D941B840D94E99B0D94FB7C0D94A4
:1003F0003B830D94B6830D946C480D94337C0D941F
:10040000223A0D94652A0D940E3A0D9441830D9471
:100410000A9D0D94962A0D9494780D94FD7C0D946C
:10042000A02A0D94A88D0D9432830D9468850D94A7
:10043000FF890D94FE770D94FA830D943FA10D94DE
:1004400049780D943D7B0D94E57C0D949B1A0D9499
:1004500030780D94F37C0D94107C0D9452910D9492
:10046000BA760D94842A0D94D59B0D94FD9B0D9422
:1004700045130D94A7780D94367C0D9470110D944E
:100480007C950D94029C0D94A6390D94183A0D9408
:10049000F89B0D94232B4E414E494E495459494ED9
:1004A00046CDCCCC3D0AD7233C17B7D13877CC2BDF
:1004B000329595E6241FB14F0A000020410000C884
:1004C0004200401C4620BCBE4CCA1B0E5AAEC59D05
:1004D0007400407A10F35A00A0724E18090010A55B
:1004E000D4E80000E87648170000E40B540200004E
:1004F000CA9A3B000000E1F50500008096980000D4
:100500000040420F000000A08601000000102700FC
:10051000000000E803000000006400000000000A82
:1005200000000000000100000000002C76D888DCEC
:10053000674F0823DFC1DFAE59E1B1B796E5E3E4C9
:1005400053C63AE651997696E8E6C28426EB898C42
:100550009B62ED407C6FFCEFBC9C9F40F2BAA56FA4
:10056000A5F490055A2AF75C936B6CF9676DC11B73
:10057000FCE0E40D47FEF520E6B500D0ED902E033B
:1005800000943577050080841E080000204E0A0084
:100590000000C80C333333330F986E12831141EFD0
:1005A0008D2114893BE65516CFFEE6DB18D1844B2E
:1005B000381BF77C1D901DA4BBE424203284725E9E
:1005C000228100C9F124ECA1E53D274D3231004DD7
:1005D0003233202573004D32340024F404D9201B1B
:1005E000C40C5C0E9804C4095F0265077101F40530
:1005F000F900FB04B30048048700C10369005803F5
:10060000550003034500BE023A0084023100530244
:100610002A002902250004022000E4011C00C80170
:100620001900AF0117009801140084011300710133
:1006300010006101100051010E0043010D00360150
:100640000B002B010B0020010B00150109000C0110
:10065000090003010800FB000800F3000800EB009C
:100660000700E4000600DE000600D8000600D20005
:100670000600CC000500C7000500C2000500BD0053
:100680000400B9000400B5000400B1000400AD008E
:100690000400A9000400A5000300A20003009F00BD
:1006A00004009B00030098000300950002009300E3
:1006B0000300900003008D0002008B0003008800FF
:1006C00002008600020084000300810002007F0017
:1006D00002007D0002007B0002007900020077002A
:1006E0000100760002007400020072000100710037
:1006F00002006F0002006D0001006C0002006A0041
:100700000100690002006700010066000100650049
:10071000010064000200620001006100010060004D
:1007200001005F0002005D0001005C0001005B0051
:1007300001005A0001005900010058000100570053
:100740000100560001005500010054000100530053
:100750000000530001005200010051000100500050
:1007600001004F0001004E0000004E0001004D004E
:1007700001004C0001004B0000004B0001004A004A
:100780000100490001004800000048000100470046
:100790000100460000004600010045000000450041
:1007A000010044000100430000004300010042003A
:1007B0000000420001004100000041000100400033
:1007C00001003F0000003F0001003E0000003E002D
:1007D00001003D0000003D0001003C0000003C0025
:1007E00000003C0001003B0000003B0001003A001B
:1007F00000003A0001003900000039000100380013
:100800000000380000003800010037000000370009
:1008100001003600000036000000360001003500FF
:1008200000003500000035000100340000003400F5
:1008300000003400010033000000330000003300EA
:1008400001003200000032000000320001003100DF
:1008500000003100000031000100300000003000D5
:100860000000300001002F0000002F0000002F00CA
:1008700000002F0001002E0000002E0000002E00BE
:1008800001002D0000002D0000002D0000002D00B3
:1008900001002C0000002C0000002C0000002C00A7
:1008A00001002B0000002B0000002B0000002B009B
:1008B00001002A0000002A0000002A0000002A008F
:1008C0000100290000002900000029000000290083
:1008D0000000290001002800000028000000280076
:1008E0000000280000002800010027000000270069
:1008F000000027000000270000002700010026005C
:10090000000026000000260000002600000026004F
:100910000100250000002500000025000000250042
:100920000000250000002500010024000000240034
:100930000000240000002400000024000100230027
:10094000000023000000230000002300000023001B
:10095000000023000000230001002200000022000C
:1009600000002200000022000000220000002200FF
:1009700001002100000021000000210000002100F2
:1009800000002100000021000000210001002000E3
:1009900000002000000020000000200000002000D7
:1009A00000002000000020000000200001001F00C7
:1009B00000001F0000001F0000001F0000001F00BB
:1009C00000001F0000001F0001001E0000001E00AC
:1009D00000001E0000001E00000024F4D43050C3AC
:1009E0008E20C2A24017828B7011127A910D816CF9
:1009F000D90AA861E108C7586607615143061E4B32
:100A00005D05C145A7041A411104093D98037139D8
:100A100031034036DB0265339102D4305402802E1C
:100A20001D02632CEE01752AC501B028A001102714
:100A300081018F2564012B244B01E0223401AC217C
:100A40001F018D200D01801FFC00841EED00971DED
:100A5000DF00B81CD200E61BC600201BBC00641AD5
:100A6000B200B219A8000A19A0006A189900D1179B
:100A7000910040178B00B516840031167E00B31527
:100A800079003A157300C7146F0058146A00EE130A
:100A900066008813630025135E00C7125B006C12AA
:100AA000570015125400C111510070114F0021114F
:100AB0004B00D61049008D1047004610440002102C
:100AC0004200C00F4000800F3E00420F3C00060F66
:100AD0003B00CB0E3800930E37005C0E3500270E1E
:100AE0003400F30D3200C10D3100900D3000600D67
:100AF0002E00320D2D00050D2C00D90C2B00AE0C54
:100B00002900850C29005C0C2700350C27000E0CF1
:100B10002600E80B2400C40B2400A00B23007D0B4F
:100B200023005A0B2100390B2100180B2000F80A72
:100B30001F00D90A1E00BB0A1E009D0A1D00800A64
:100B40001D00630A1C00470A1B002C0A1B00110A27
:100B50001A00F7091A00DD091900C4091900AB09C8
:100B60001900920917007B091800630917004C0946
:100B7000160036091600200916000A091500F508A6
:100B80001500E0081400CC081400B8081400A408EC
:100B90001400900813007D0812006B081300580819
:100BA0001200460812003408110023081100120830
:100BB000110001081100F0071000E0071000D00735
:100BC0001000C0071000B0070F00A1071000910728
:100BD0000E0083070F0074070F0065070E0057070C
:100BE0000E0049070E003B070D002E070E002007E0
:100BF0000D0013070D0006070D00F9060C00ED06A9
:100C00000D00E0060C00D4060C00C8060C00BC0663
:100C10000C00B0060C00A4060B0099060C008D0613
:100C20000B0082060B0077060B006C060B006106BA
:100C30000A0057060B004C060A0042060A00380656
:100C40000A002E060A0024060A001A060A001006E8
:100C5000090007060A00FD050900F4050900EB0577
:100C60000900E2050900D9050900D0050900C705FA
:100C70000900BE050900B5050800AD050800A50579
:100C800009009C050800940508008C0508008405EF
:100C900008007C050800740508006C050700650560
:100CA00008005D050700560508004E0507004705CA
:100CB00007004005080038050700310507002A0530
:100CC0000700230507001C050600160507000F0591
:100CD00007000805060002050700FB040600F504EE
:100CE0000700EE040600E8040600E2040700DB0447
:100CF0000600D5040600CF040600C9040600C3049C
:100D00000600BD040600B7040600B1040500AC04EB
:100D10000600A6040600A00405009B040600950436
:100D20000500900406008A0405008504050080047F
:100D300006007A04050075040500700405006B04C4
:100D4000050066040500610405005C040500570405
:100D50000500520405004D04050048040500430445
:100D600005003E0404003A04050035040500300483
:100D700004002C04050027040400230405001E04BD
:100D800004001A04040016040500110404000D04F4
:100D90000400090405000404040000040400FC032A
:100DA0000400F8030400F4030400F0030400EC035F
:100DB0000400E8030400E4030400E0030400DC038F
:100DC0000400D8030400D4030400D0030400CC03BF
:100DD0000400C8030300C5030300726F74617469E3
:100DE0006F6E206D61747269783A0A0024F404D938
:100DF000201BC40C5C0E9804C4095F0265077101D6
:100E0000F405F900FB04B30048048700C10369003E
:100E10005803550003034500BE023A008402310026
:100E200053022A002902250004022000E4011C00CC
:100E3000C8011900AF0117009801140084011300C4
:100E4000710110006101100051010E0043010D00FD
:100E500036010B002B010B0020010B0015010900CE
:100E60000C01090003010800FB000800F300080062
:100E7000EB000700E4000600DE000600D8000600D4
:100E8000D2000600CC000500C7000500C200050026
:100E9000BD000400B9000400B5000400B100040066
:100EA000AD000400A9000400A5000300A200030097
:100EB0009F0004009B0003009800030095000200BF
:100EC00093000300900003008D0002008B000300DC
:100ED00088000200860002008400030081000200F6
:100EE0007F0002007D0002007B000200790002000A
:100EF0007700010076000200740002007200010019
:100F0000710002006F0002006D0001006C00020021
:100F10006A0001006900020067000100660001002C
:100F20006500010064000200620001006100010030
:100F3000600001005F0002005D0001005C00010034
:100F40005B0001005A000100590001005800010037
:100F50005700010056000100550001005400010037
:100F60005300000053000100520001005100010035
:100F7000500001004F0001004E0000004E00010033
:100F80004D0001004C0001004B0000004B0001002F
:100F90004A0001004900010048000000480001002B
:100FA0004700010046000000460001004500000027
:100FB000450001004400010043000000430001001F
:100FC0004200000042000100410000004100010019
:100FD000400001003F0000003F0001003E00000013
:100FE0003E0001003D0000003D0001003C0000000B
:100FF0003C0000003C0001003B0000003B00010001
:101000003A0000003A0001003900000039000100F8
:1010100038000000380000003800010037000000F0
:1010200037000100360000003600000036000100E5
:1010300035000000350000003500010034000000DC
:1010400034000000340001003300000033000000D1
:1010500033000100320000003200000032000100C5
:1010600031000000310000003100010030000000BC
:1010700030000000300001002F0000002F000000B1
:101080002F0000002F0001002E0000002E000000A5
:101090002E0001002D0000002D0000002D0000009A
:1010A0002D0001002C0000002C0000002C0000008E
:1010B0002C0001002B0000002B0000002B00000082
:1010C0002B0001002A0000002A0000002A00000076
:1010D0002A0001002900000029000000290000006A
:1010E000290000002900010028000000280000005D
:1010F0002800000028000000280001002700000050
:101100002700000027000000270000002700010042
:101110002600000026000000260000002600000037
:101120002600010025000000250000002500000029
:10113000250000002500000025000100240000001B
:10114000240000002400000024000000240001000E
:101150002300000023000000230000002300000003
:1011600023000000230000002300010022000000F3
:1011700022000000220000002200000022000000E7
:1011800022000100210000002100000021000000D9
:1011900021000000210000002100000021000100CA
:1011A00020000000200000002000000020000000BF
:1011B00020000000200000002000000020000100AE
:1011C0001F0000001F0000001F0000001F000000A3
:1011D0001F0000001F0000001F0001001E00000093
:1011E0001E0000001E0000001E00000024F4D43089
:1011F00050C38E20C2A24017828B7011127A910DBB
:10120000816CD90AA861E108C75866076151430695
:101210001E4B5D05C145A7041A411104093D980301
:10122000713931034036DB0265339102D430540208
:10123000802E1D02632CEE01752AC501B028A00185
:10124000102781018F2564012B244B01E0223401FA
:10125000AC211F018D200D01801FFC00841EED00BC
:10126000971DDF00B81CD200E61BC600201BBC0087
:10127000641AB200B219A8000A19A0006A189900ED
:10128000D117910040178B00B516840031167E00EF
:10129000B31579003A157300C7146F0058146A002B
:1012A000EE1366008813630025135E00C7125B000F
:1012B0006C12570015125400C111510070114F00EB
:1012C00021114B00D61049008D10470046104400F4
:1012D00002104200C00F4000800F3E00420F3C0051
:1012E000060F3B00CB0E3800930E37005C0E350026
:1012F000270E3400F30D3200C10D3100900D300087
:10130000600D2E00320D2D00050D2C00D90C2B0088
:10131000AE0C2900850C29005C0C2700350C270039
:101320000E0C2600E80B2400C40B2400A00B2300A5
:101330007D0B23005A0B2100390B2100180B2000D4
:10134000F80A1F00D90A1E00BB0A1E009D0A1D00D4
:10135000800A1D00630A1C00470A1B002C0A1B00A0
:10136000110A1A00F7091A00DD091900C409190049
:10137000AB091900920917007B09180063091700CF
:101380004C09160036091600200916000A09150036
:10139000F5081500E0081400CC081400B808140083
:1013A000A4081400900813007D0812006B081300B5
:1013B00058081200460812003408110023081100D2
:1013C0001208110001081100F0071000E0071000DA
:1013D000D0071000C0071000B0070F00A1071000D1
:1013E00091070E0083070F0074070F0065070E00BA
:1013F00057070E0049070E003B070D002E070E0091
:1014000020070D0013070D0006070D00F9060C005C
:10141000ED060D00E0060C00D4060C00C8060C001A
:10142000BC060C00B0060C00A4060B0099060C00CC
:101430008D060B0082060B0077060B006C060B0076
:1014400061060A0057060B004C060A0042060A0015
:1014500038060A002E060A0024060A001A060A00A8
:101460001006090007060A00FD050900F405090039
:10147000EB050900E2050900D9050900D0050900BE
:10148000C7050900BE050900B5050800AD0508003F
:10149000A50509009C050800940508008C050800B6
:1014A000840508007C050800740508006C05070029
:1014B000650508005D050700560508004E05070094
:1014C00047050700400508003805070031050700FB
:1014D0002A050700230507001C050600160507005E
:1014E0000F0507000805060002050700FB040600BB
:1014F000F5040700EE040600E8040600E204070015
:10150000DB040600D5040600CF040600C90406006B
:10151000C3040600BD040600B7040600B1040500BC
:10152000AC040600A6040600A00405009B04060007
:1015300095040500900406008A0405008504050052
:10154000800406007A040500750405007004050097
:101550006B04050066040500610405005C040500D9
:1015600057040500520405004D0405004804050019
:10157000430405003E0404003A0405003504050058
:10158000300404002C040500270404002304050093
:101590001E0404001A0404001604050011040400CB
:1015A0000D04040009040500040404000004040000
:1015B000FC030400F8030400F4030400F003040037
:1015C000EC030400E8030400E4030400E003040067
:1015D000DC030400D8030400D4030400D003040097
:1015E000CC030400C8030300C503030024F404D99A
:1015F000201BC40C5C0E9804C4095F0265077101CE
:10160000F405F900FB04B30048048700C103690036
:101610005803550003034500BE023A00840231001E
:1016200053022A002902250004022000E4011C00C4
:10163000C8011900AF0117009801140084011300BC
:10164000710110006101100051010E0043010D00F5
:1016500036010B002B010B0020010B0015010900C6
:101660000C01090003010800FB000800F30008005A
:10167000EB000700E4000600DE000600D8000600CC
:10168000D2000600CC000500C7000500C20005001E
:10169000BD000400B9000400B5000400B10004005E
:1016A000AD000400A9000400A5000300A20003008F
:1016B0009F0004009B0003009800030095000200B7
:1016C00093000300900003008D0002008B000300D4
:1016D00088000200860002008400030081000200EE
:1016E0007F0002007D0002007B0002007900020002
:1016F0007700010076000200740002007200010011
:10170000710002006F0002006D0001006C00020019
:101710006A00010069000200670001006600010024
:101720006500010064000200620001006100010028
:10173000600001005F0002005D0001005C0001002C
:101740005B0001005A00010059000100580001002F
:10175000570001005600010055000100540001002F
:10176000530000005300010052000100510001002D
:10177000500001004F0001004E0000004E0001002B
:101780004D0001004C0001004B0000004B00010027
:101790004A00010049000100480000004800010023
:1017A000470001004600000046000100450000001F
:1017B0004500010044000100430000004300010017
:1017C0004200000042000100410000004100010011
:1017D000400001003F0000003F0001003E0000000B
:1017E0003E0001003D0000003D0001003C00000003
:1017F0003C0000003C0001003B0000003B000100F9
:101800003A0000003A0001003900000039000100F0
:1018100038000000380000003800010037000000E8
:1018200037000100360000003600000036000100DD
:1018300035000000350000003500010034000000D4
:1018400034000000340001003300000033000000C9
:1018500033000100320000003200000032000100BD
:1018600031000000310000003100010030000000B4
:1018700030000000300001002F0000002F000000A9
:101880002F0000002F0001002E0000002E0000009D
:101890002E0001002D0000002D0000002D00000092
:1018A0002D0001002C0000002C0000002C00000086
:1018B0002C0001002B0000002B0000002B0000007A
:1018C0002B0001002A0000002A0000002A0000006E
:1018D0002A00010029000000290000002900000062
:1018E0002900000029000100280000002800000055
:1018F0002800000028000000280001002700000048
:10190000270000002700000027000000270001003A
:10191000260000002600000026000000260000002F
:101920002600010025000000250000002500000021
:101930002500000025000000250001002400000013
:101940002400000024000000240000002400010006
:1019500023000000230000002300000023000000FB
:1019600023000000230000002300010022000000EB
:1019700022000000220000002200000022000000DF
:1019800022000100210000002100000021000000D1
:1019900021000000210000002100000021000100C2
:1019A00020000000200000002000000020000000B7
:1019B00020000000200000002000000020000100A6
:1019C0001F0000001F0000001F0000001F0000009B
:1019D0001F0000001F0000001F0001001E0000008B
:1019E0001E0000001E0000001E00000024F4D43081
:1019F00050C38E20C2A24017828B7011127A910DB3
:101A0000816CD90AA861E108C7586607615143068D
:101A10001E4B5D05C145A7041A411104093D9803F9
:101A2000713931034036DB0265339102D430540200
:101A3000802E1D02632CEE01752AC501B028A0017D
:101A4000102781018F2564012B244B01E0223401F2
:101A5000AC211F018D200D01801FFC00841EED00B4
:101A6000971DDF00B81CD200E61BC600201BBC007F
:101A7000641AB200B219A8000A19A0006A189900E5
:101A8000D117910040178B00B516840031167E00E7
:101A9000B31579003A157300C7146F0058146A0023
:101AA000EE1366008813630025135E00C7125B0007
:101AB0006C12570015125400C111510070114F00E3
:101AC00021114B00D61049008D10470046104400EC
:101AD00002104200C00F4000800F3E00420F3C0049
:101AE000060F3B00CB0E3800930E37005C0E35001E
:101AF000270E3400F30D3200C10D3100900D30007F
:101B0000600D2E00320D2D00050D2C00D90C2B0080
:101B1000AE0C2900850C29005C0C2700350C270031
:101B20000E0C2600E80B2400C40B2400A00B23009D
:101B30007D0B23005A0B2100390B2100180B2000CC
:101B4000F80A1F00D90A1E00BB0A1E009D0A1D00CC
:101B5000800A1D00630A1C00470A1B002C0A1B0098
:101B6000110A1A00F7091A00DD091900C409190041
:101B7000AB091900920917007B09180063091700C7
:101B80004C09160036091600200916000A0915002E
:101B9000F5081500E0081400CC081400B80814007B
:101BA000A4081400900813007D0812006B081300AD
:101BB00058081200460812003408110023081100CA
:101BC0001208110001081100F0071000E0071000D2
:101BD000D0071000C0071000B0070F00A1071000C9
:101BE00091070E0083070F0074070F0065070E00B2
:101BF00057070E0049070E003B070D002E070E0089
:101C000020070D0013070D0006070D00F9060C0054
:101C1000ED060D00E0060C00D4060C00C8060C0012
:101C2000BC060C00B0060C00A4060B0099060C00C4
:101C30008D060B0082060B0077060B006C060B006E
:101C400061060A0057060B004C060A0042060A000D
:101C500038060A002E060A0024060A001A060A00A0
:101C60001006090007060A00FD050900F405090031
:101C7000EB050900E2050900D9050900D0050900B6
:101C8000C7050900BE050900B5050800AD05080037
:101C9000A50509009C050800940508008C050800AE
:101CA000840508007C050800740508006C05070021
:101CB000650508005D050700560508004E0507008C
:101CC00047050700400508003805070031050700F3
:101CD0002A050700230507001C0506001605070056
:101CE0000F0507000805060002050700FB040600B3
:101CF000F5040700EE040600E8040600E20407000D
:101D0000DB040600D5040600CF040600C904060063
:101D1000C3040600BD040600B7040600B1040500B4
:101D2000AC040600A6040600A00405009B040600FF
:101D300095040500900406008A040500850405004A
:101D4000800406007A04050075040500700405008F
:101D50006B04050066040500610405005C040500D1
:101D600057040500520405004D0405004804050011
:101D7000430405003E0404003A0405003504050050
:101D8000300404002C04050027040400230405008B
:101D90001E0404001A0404001604050011040400C3
:101DA0000D040400090405000404040000040400F8
:101DB000FC030400F8030400F4030400F00304002F
:101DC000EC030400E8030400E4030400E00304005F
:101DD000DC030400D8030400D4030400D00304008F
:101DE000CC030400C8030300C50303001000C902AC
:101DF00010012C014001220170011801B0010E01F7
:101E0000D0010401F001F0004002E600F002DC0025
:101E10009003D3002004CA004005BE004006B6006F
:101E20000008AB00B009A500D00BA000600E960022
:101E300060118C000015820020197200A01D68003E
:101E400090225F00B0275500902C480000314100DF
:101E5000E034390020383000503A2900003D1900A4
:101E6000A03D1400803E0A00203F00001000C9027F
:101E700010012C014001220170011801B0010E0176
:101E8000D0010401F001ED005002E300E002D900AE
:101E90009003D0005004C7005005C0005006BC009D
:101EA0005008AF00B009AA00D00BA000600E960049
:101EB00060118C000015820000197700E01D6D0094
:101EC000B0226300B0275800602C49001031400058
:101ED000D034370030382F00C0392B00F03C1900C7
:101EE000A03D1400803E0A00203F00001000AA031D
:101EF000F0013A019002220130031001D0030201E7
:101F00007004F7001005ED00B005E5005006DD0097
:101F1000F006D7009007D1003008CC00D008C700E9
:101F20007009C300100ABE00B00ABB00500BB70016
:101F3000F00BB300900CB000D00DAA00100FA5005C
:101F40005010A00090119B00D0129600B014900089
:101F500090168B0070188500501A8000301C7B0092
:101F6000B01E750030216F00B02369003026640078
:101F700010285F00902A5A00702C5500F02E4F0058
:101F800070314800B0324500F033410070363900FE
:101F9000103737005038330090392D00D03A2700E1
:101FA000B03C1C00503D1700F03D1100903E090070
:101FB000D03FE5FF473239004732380A473239000F
:101FC000473239004732380A473239004732382021
:101FD0005800473238205900473238205A004732DB
:101FE000380A4D343820503130004D3834004732F3
:101FF00039205034205239393920540047323920A1
:1020000050342054004732380A47323620432042A9
:10201000363520483232302050004732380A4732B5
:1020200036204320423131302048323430205000B5
:10203000473239204A30004732392050332054305B
:102040000047323920503220422054300047323885
:102050000A4D313930205336350A4D31303920534D
:102060003232300A4732392050310A4D3130342073
:1020700053300A4D313430205330004732380A4D46
:1020800031393020533131300A4D3130392053321B
:1020900034300A4732392050310A4D313034205320
:1020A000300A4D313430205330004732380A47323D
:1020B0003920503100473239205031204300473217
:1020C00039204900473239205430004732392054F2
:1020D000310047323920532D3100473239204939F8
:1020E00039390A47323920503220422054300047D3
:1020F00032380A47323920503100473239205033C4
:102100002054300047323920503420523939392098
:102110005400473239205034205239393920540084
:1021200047323920440047323920410047323920B4
:102130005700417869732000206D696E3A00206D68
:1021400061783A000900000A010008000A01000A4B
:10215000090000000A0008005A5249425F56323016
:102160005F44395F50494E005A5249425F563230FF
:102170005F44365F50494E005A5F4D494E5F5052A2
:102180004F42455F50494E005A5F53544F505F5085
:10219000494E005A5F535445505F50494E005A5FB4
:1021A0004D494E5F50494E005A5F4D41585F50496E
:1021B0004E005A5F454E41424C455F50494E005AD1
:1021C0005F4449525F50494E005A5F43535F504944
:1021D0004E00595F53544F505F50494E00595F5362
:1021E0005445505F50494E00595F4D494E5F50492C
:1021F0004E00595F454E41424C455F50494E005993
:102200005F4449525F50494E00595F43535F504904
:102210004E00585F53544F505F50494E00585F5323
:102220005445505F50494E00585F4D494E5F5049EC
:102230004E00585F454E41424C455F50494E005854
:102240005F4449525F50494E00585F43535F5049C5
:102250004E0053535F50494E00534552564F335F23
:1022600050494E00534552564F325F50494E00532D
:102270004552564F315F50494E00534552564F30EC
:102280005F50494E00534453530053445F444554F8
:102290004543545F50494E0053434B5F50494E00F5
:1022A00052414D50535F44395F50494E0052414DA9
:1022B00050535F44385F50494E0052414D50535F78
:1022C0004431305F50494E004F5249475F45335FBC
:1022D0004155544F5F46414E5F50494E004F524961
:1022E000475F45325F4155544F5F46414E5F50490D
:1022F0004E004F5249475F45315F4155544F5F464D
:10230000414E5F50494E004F5249475F45305F4153
:1023100055544F5F46414E5F50494E004D4F534913
:102320005F50494E004D4F534645545F445F5049FE
:102330004E004D49534F5F50494E004D415836367F
:1023400037355F53535F50494E004C45445F504909
:102350004E004C43445F50494E535F5253004C4330
:10236000445F50494E535F454E41424C45004C43FB
:10237000445F50494E535F4437004C43445F5049DB
:102380004E535F4436004C43445F50494E535F44C4
:1023900035004C43445F50494E535F4434004B4931
:1023A0004C4C5F50494E004845415445525F4245B0
:1023B000445F50494E004845415445525F315F509B
:1023C000494E004845415445525F305F50494E00E8
:1023D00046494C5F52554E4F55545F50494E00464A
:1023E000414E5F50494E0045315F535445505F5058
:1023F000494E0045315F454E41424C455F50494E84
:102400000045315F4449525F50494E0045315F43BA
:10241000535F50494E0045315F4155544F5F46412F
:102420004E5F50494E0045305F535445505F504910
:102430004E0045305F454E41424C455F50494E008D
:1024400045305F4449525F50494E0045305F435329
:102450005F50494E0045305F4155544F5F46414EF5
:102460005F50494E00455F4D5558325F50494E0010
:10247000455F4D5558315F50494E00455F4D5558A9
:10248000305F50494E00444F474C43445F53434BE9
:1024900000444F474C43445F4D4F53490042544E14
:1024A0005F454E430042544E5F454E320042544E0B
:1024B0005F454E31004245455045525F50494E0000
:1024C0004156525F53535F50494E004156525F533D
:1024D000434B5F50494E004156525F4D4F53495F49
:1024E00050494E004156525F4D49534F5F50494E3F
:1024F0000054584430005258443000434F4D4D551D
:102500004E49434154494F4E0044525952554E0092
:102510004552524F525300494E464F004543484F93
:10252000004572726F722077726974696E672074E9
:102530006F20454550524F4D210A00363726033C47
:102540003D380E2E303E1213131A1C1824221E087A
:10255000440A06430706450809000153544F5050EA
:1025600045442E20005072696E7465722073746F3A
:10257000707065642064756520746F206572726F79
:1025800072732E2046697820746865206572726FB8
:102590007220616E6420757365204D39393920745D
:1025A0006F20726573746172742E202854656D708B
:1025B00065726174757265206973207265736574E4
:1025C0002E205365742069742061667465722072D0
:1025D000657374617274696E67290A004E6F2043D7
:1025E0006865636B73756D2077697468206C696EBC
:1025F00065206E756D6265722C204C617374204C81
:10260000696E653A2000636865636B73756D206D54
:1026100069736D617463682C204C617374204C691C
:102620006E653A20004C696E65204E756D6265726C
:10263000206973206E6F74204C617374204C696E36
:1026400065204E756D6265722B312C204C61737460
:10265000204C696E653A20004D3131300021212037
:102660004B494C4C20636175736564206279204B43
:10267000494C4C20627574746F6E2F70696E0A003D
:102680002121204B494C4C206361757365642062A5
:102690007920746F6F206D75636820696E61637453
:1026A0006976652074696D65202D20637572726589
:1026B0006E7420636F6D6D616E643A2000506C65BE
:1026C000617365205265736574005052494E5445DC
:1026D000522048414C5445440025533A202553008C
:1026E0004B494C4C45442E20005072696E74657203
:1026F0002068616C7465642E206B696C6C282920DD
:1027000063616C6C6564210A0053544F505045441A
:102710002E20005072696E7465722073746F707031
:1027200065642064756520746F206572726F7273C2
:102730002E2046697820746865206572726F722059
:10274000616E6420757365204D39393920746F20AE
:10275000726573746172742E202854656D70657291
:1027600061747572652069732072657365742E20BB
:102770005365742069742061667465722072657394
:1027800074617274696E67290A006563686F3A0044
:102790004572726F723A00204A0020204D34323167
:1027A0002049002020473239204939390A00616325
:1027B000746976650A00696E000020537973746548
:1027C0006D2076312E303120002020207C0A004EF2
:1027D000414E0020202E20202000207C004C43442D
:1027E0003A0A004353563A0A0020666F7220003AB4
:1027F0000A0A000A42656420546F706F6772617044
:102800006879205265706F727400446F6E652E0A8D
:10281000003F496E76616C69642073746F72616702
:102820006520736C6F742E0A3F55736520302074D9
:102830006F20003F454550524F4D2073746F7261B9
:102840006765206E6F7420617661696C61626C658A
:102850002E0A00446F6E652E0A003F496E76616C49
:1028600069642073746F7261676520736C6F742E76
:102870000A3F557365203020746F20003F45455056
:10288000524F4D2073746F72616765206E6F7420B4
:10289000617661696C61626C652E0A00473239208D
:1028A00050322066696E69736865642E0A00585953
:1028B000206F757473696465207072696E746162EB
:1028C0006C65207261646975732E0A003F457272EF
:1028D0006F7220696E20427573696E657373204351
:1028E000617264206D6561737572656D656E742EBD
:1028F0000A004D616E75616C6C792070726F62694F
:102900006E6720756E726561636861626C65206DCB
:10291000657368206C6F636174696F6E732E0A0053
:10292000292E0A0A0050726F62696E672061726F09
:10293000756E642028004D65736820696E76616C41
:102940006964617465642E2050726F62696E6720DD
:102950006D6573682E0A004D657368207A65726F25
:1029600065642E0A0044656661756C742073746F2B
:102970007261676520736C6F7420302073656C65BD
:10298000637465642E0A004C6F6164696E6720741D
:102990006573745F7061747465726E2076616C75B6
:1029A00065732E0A0A00496E76616C69642074654D
:1029B00073745F7061747465726E2076616C756596
:1029C0002E20282D3120746F2032290A0A004C6FE6
:1029D000636174696F6E7320696E76616C6964619E
:1029E0007465642E0A0A00456E74697265204D652F
:1029F000736820696E76616C6964617465642E0A1F
:102A00000A005374616E6461726420446576696182
:102A100074696F6E3A20004D65616E204D65736874
:102A2000204865696768743A200023206F66207328
:102A3000616D706C65733A20000A4D657368206F94
:102A40006E6C79207061727469616C6C7920706F42
:102A500070756C617465642E0A0A0050726F626949
:102A60006E6720506F696E740025532025692F25ED
:102A700069002E0A0A002F000A50726F62696E67A1
:102A8000206D65736820706F696E74200020616E20
:102A9000642074616B652061206D6561737572657A
:102AA0006D656E742E0A006D6D20746869636B2EFF
:102AB0000A00427573696E65737320436172642006
:102AC0006973200052656D6F76652026204D656123
:102AD00073757265204265640052656D6F7665207E
:102AE0007368696D00506C616365207368696D205F
:102AF000756E646572206E6F7A7A6C65004D6573D1
:102B00006820506F696E74204D65617375726564DD
:102B10002061743A20000A4D657368206F6E6C79ED
:102B2000207061727469616C6C7920706F70756C63
:102B3000617465642E0A004D65617375726500509D
:102B40006C616365205368696D2026204D65617353
:102B5000757265004D6F76696E6720746F206E65C3
:102B60007874004D6573682045646974696E6720E8
:102B700053746F7070656400446F6E6520456469BE
:102B800074696E67204D6573680A00446F6E652036
:102B900045646974696E67204D6573680046696EA7
:102BA000652054756E696E67204D657368002858FE
:102BB0002C5929206F757473696465207072696E71
:102BC0007461626C65207261646975732E0A004FCE
:102BD0006666736574206F7574206F6620626F750A
:102BE0006E64732E20283020746F2031306D6D2973
:102BF0000A0A00496E76616C6964206D6170207408
:102C00007970652E0A0A003F2846296164652068AC
:102C1000656967687420666F7220426564204C6540
:102C200076656C20436F7272656374696F6E206E97
:102C30006F7420706C61757369626C652E0A0A008E
:102C40003F43616E27742061637469766174652007
:102C5000616E642064656163746976617465206186
:102C600074207468652073616D652074696D652ECC
:102C70000A0A00426F7468205820262059206C6F81
:102C8000636174696F6E73206D7573742062652063
:102C90007370656369666965642E0A0A003F496E50
:102CA00076616C696420677269642073697A652053
:102CB000284A292073706563696669656420283233
:102CC0002D39292E0A0A003F285029686173652092
:102CD00076616C756520696E76616C696420283058
:102CE0002D36292E0A0A003F2856296572626F7315
:102CF00065206C6576656C20696D706C61757369B3
:102D0000626C652028302D34292E0A0A003F285293
:102D100029657065746974696F6E20636F756E7470
:102D200020696E76616C69642028312B292E0A0A8D
:102D300000446F696E67204732390053214E2149A4
:102D40002144215D0A0062656420706C616E65201B
:102D50006E6F726D616C203D205B00436F756C641B
:102D6000206E6F7420636F6D706C657465204C53BA
:102D7000462100436F727265637465645F5A3D005B
:102D800025532025692F2569000A0A002F00546960
:102D90006C74696E67206D65736820706F696E74FE
:102DA00020003F4572726F722070726F62696E67A9
:102DB00020706F696E742E2041626F7274696E6745
:102DC000206F7065726174696F6E2E0A00436F72B6
:102DD0007265637465645F5A3D00255320332F3359
:102DE0000054696C74696E67206D657368202833C0
:102DF0002F33290A00436F727265637465645F5AEA
:102E00003D00255320322F330054696C74696E677E
:102E1000206D6573682028322F33290A00436F72B2
:102E20007265637465645F5A3D0054696C74696EC1
:102E30006720506F696E7400255320312F33005482
:102E4000696C74696E67206D6573682028312F3353
:102E5000290A00646F6E650A00496E7375666669BB
:102E60006369656E7420646174610A000000803FCC
:102E70008EE3C8418EE34442AAAA92428EE3C24244
:102E8000721CF342AAAA11431CC729438EE3414393
:102E900000005A430000803F8EE3C8418EE3444265
:102EA000AAAA92428EE3C242721CF342AAAA11431A
:102EB0001CC729438EE3414300005A43457874728E
:102EC00061706F6C6174696E67206D6573682E2E1A
:102ED0002E00486F74656E6420746F6F20636F6C92
:102EE000640A004732362048656174696E67204E77
:102EF0006F7A7A6C65004732362048656174696E76
:102F000067204265640057616974696E6720666F67
:102F100072206865617475702E0A00466978656470
:102F2000204C656E677468205072696D6500446F4F
:102F30006E65205072696D696E67004D616E7561D6
:102F40006C207072696D696E672E2E2E00473236C6
:102F50002043616E63656C6564004C656176696EE3
:102F60006720473236003F53706563696669656460
:102F700020582C5920636F6F7264696E61746520EC
:102F80006F7574206F6620626F756E64732E0A0011
:102F90003F28522965706561742076616C756520E3
:102FA0006E6F7420706C61757369626C653B206D27
:102FB000757374206265206174206C656173742080
:102FC000312E0A003F537065636966696564206E3F
:102FD0006F7A7A6C652074656D7065726174757254
:102FE00065206E6F7420706C61757369626C652EFC
:102FF0000A003F5370656369666965642066696CA1
:10300000616D656E742073697A65206E6F742070CF
:103010006C61757369626C652E0A003F537065635D
:103020006966696564207072696D65206C656E679C
:103030007468206E6F7420706C61757369626C6562
:103040002E0A003F537065636966696564206E6F80
:103050007A7A6C652073697A65206E6F7420706C63
:1030600061757369626C652E0A003F526574726106
:103070006374696F6E204D756C7469706C696572EC
:10308000206D75737420626520737065636966696D
:1030900065642E0A003F5370656369666965642044
:1030A00052657472616374696F6E204D756C7469DA
:1030B000706C696572206E6F7420706C61757369D5
:1030C000626C652E0A003F537065636966696564CA
:1030D000206C6179657220686569676874206E6F1D
:1030E0007420706C61757369626C652E0A004329E7
:1030F0002E0A003F537065636966696564206265E6
:10310000642074656D7065726174757265206E6F90
:103110007420706C61757369626C65202834302D81
:1031200000473236207374617274696E672E2E2EDA
:103130000A004F46460A0046616465204865696793
:1031400068742000426564204C6576656C696E6722
:1031500020004661696C656420746F20656E616251
:103160006C6520426564204C6576656C696E670A03
:1031700000496E76616C6964206D6573682E0A0083
:1031800076616C69640A53746F7261676520736C51
:103190006F743A2000696E004D6573682069732072
:1031A000003F557365203020746F20003F496E76D4
:1031B000616C69642073746F7261676520736C6FF2
:1031C000742E0A003F454550524F4D2073746F7264
:1031D000616765206E6F7420617661696C61626CF5
:1031E000652E0A0020284E6F7420796574206D6565
:1031F000617375726564290020204176657261678C
:1032000065206D65617375726564206261636B6CC6
:1032100061736820286D6D293A0020204261636B3C
:103220006C6173682044697374616E636520286DF6
:103230006D293A20202020202020200020284631FF
:103240002E30203D2066756C6C2C2046302E3020B0
:103250003D206E6F6E65290A002020436F727265F3
:103260006374696F6E20416D6F756E742F46616473
:10327000652D6F75743A202020202046006163740C
:103280006976653A0A00696E004261636B6C61732E
:103290006820436F7272656374696F6E20004465C5
:1032A00076696174696F6E0025533A202573005367
:1032B00074616E6461726420446576696174696FDB
:1032C0006E3A20002052616E67653A2000204D6101
:1032D000783A2000204D696E3A20004D65616E3AC3
:1032E000200046696E6973686564210A0020726176
:1032F0006E67653A2000206D61783A2000206D6984
:103300006E3A2000207369676D613A2000206D6578
:10331000616E3A20003A207A3A2000206F66200041
:10332000476F696E6720746F3A20580043570A0050
:10333000206469723A0020616E676C653A005374CC
:10334000617274207261646975733A004D3438207B
:10335000506F696E740025533A2025642F25640050
:10336000506F736974696F6E696E67207468652049
:1033700070726F62652E2E2E0A003F4E756D62656B
:1033800072206F66206C65677320696E206D6F76A2
:10339000656D656E74206E6F7420706C61757369F5
:1033A000626C652028302D3135292E0A003F2028F7
:1033B000582C5929206F7574206F6620626F756EC6
:1033C00064732E0A003F53616D706C652073697AD7
:1033D00065206E6F7420706C61757369626C652016
:1033E00028342D3530292E0A004D3438205A2D50DE
:1033F000726F6265205265706561746162696C69A3
:10340000747920546573740A003F285629657262E6
:103410006F7365206C6576656C20696D706C617585
:103420007369626C652028302D34292E0A005057AC
:103430004D3A20202534640050574D3A2020253441
:10344000640050574D3A20202534640050574D3ABF
:1034500020202534640050574D3A20202534640044
:1034600050574D3A20202534640050574D3A2020C3
:103470002534640050574D3A2020253464005057BD
:103480004D3A20202534640050574D3A20202534F1
:10349000640050574D3A20202534640050574D3A6F
:1034A00020202534640050574D3A202025346400F4
:1034B00050574D3A20202534640050574D3A202073
:1034C0002534640050574D3A2020253464003A20BA
:1034D0000020202020434F4D002020206E6F6E2DB5
:1034E0007374616E646172642050574D206D6F6417
:1034F0006500202020636F6D7061726520696E74B5
:1035000065727275707420656E61626C656400200E
:1035100020206F766572666C6F7720696E746572B5
:103520007275707420656E61626C6564003A20008B
:103530002020202054494D534B00423A20002020A7
:1035400020205443435200413A20002020202054A0
:10355000434352002020202043533A2000202020C3
:103560002057474D3A200050574D3A2020253464CB
:103570000050574D3A202025346400470048000091
:103580000088008A008C00B300B400000098009A04
:10359000009C00A800AA00AC0028012A012C0120F0
:1035A00020202054494D455200440045006E0080C3
:1035B0000081006F00B000B10070009000910071B8
:1035C00000A000A100720020012101730020697396
:1035D00020616C736F207469656420746F20746857
:1035E00069732070696E0054494D45523143000A99
:1035F000202E002020002020506F72743A200020DE
:10360000202000202020416E616C6F6720696E20B1
:103610003D2025356C64003C756E757365642F75AF
:103620006E6B6E6F776E3E00202841253264292034
:1036300020002533642000257350494E3A20004F66
:103640007574707574203D2000496E70757420206B
:103650003D2000416E616C6F6720696E203D202522
:10366000356C640070726F7465637465642000204B
:103670002841253264292020002533642000257349
:1036800050494E3A2000F6240001F1240101E424BF
:103690003201D7243301CB243401C0243501B524B1
:1036A0002501AD241F01A52421019D24230191247E
:1036B0003301862434017B24280170242A016524E7
:1036C0002C01552406014B242A0140241C013224DC
:1036D000180126241A01162406010C242C010124A9
:1036E0002201F3231E01E7232401DF230901D02354
:1036F0000401C3230A01B6230701A72308019E235F
:10370000290192231701862319017A231B016E23B5
:103710001D015E231101522310014A230D013B2399
:10372000420132233201252307011C2333010723E1
:103730000601F2220601DD220601C8220601BA2294
:103740000A01AD220801A0220901982234018A222F
:103750003101852235017A220F016F220601642290
:1037600005015922040152223501492235013F2227
:10377000370132222601282203011D22360112229E
:10378000030109223101FF213D01F2213801E82125
:103790000E01DD213C01D2210E01C9212801BF21EA
:1037A0003001B2213E01A82113019E211201932173
:1037B0002E01882112017821130168210601582168
:1037C0000901446F6E652E0A0066616C73650046E0
:1037D00041494C3A204E6F207472696767657220C8
:1037E00064657465637465640A004641494C3A2017
:1037F0004E6F697365206465746563746564202D1C
:1038000020706C656173652072652D72756E207411
:103810006573740A002064657465637465642E0AB8
:10382000003D20424C546F756368207072652056CD
:10383000332E3120286F7220636F6D70617469625E
:103840006C6529003D205A20536572766F205072B6
:103850006F6265003D20424C546F7563682056339B
:103860002E310020282B2F2D20346D73293A200073
:103870003A2033306D73206F72206D6F72650A00CD
:103880002E2050756C7365207769647468002A2A4D
:1038900020506C656173652074726967676572207A
:1038A00070726F62652077697468696E20333020AA
:1038B000736563202A2A0A004641494C3A20424C4B
:1038C000544F55434820656E61626C6564202D201D
:1038D0005365742075702074686973206465766917
:1038E0006365206173206120536572766F2050728A
:1038F0006F6265207769746820494E564552544975
:103900004E472073657420746F2027747275652785
:103910002E0A0020204445504C4F594544207374D2
:103920006174653A204C4F5720286C6F676963209B
:1039300030290020204445504C4F59454420737491
:103940006174653A204849474820286C6F6769636D
:10395000203129003D204D656368616E6963616CAB
:103960002053776974636820646574656374656463
:103970000A005741524E494E473A20494E56455249
:1039800054494E472073657474696E672070726F76
:103990006261626C79206261636B77617264732E1D
:1039A0000A002E204465706C6F7920262073746F96
:1039B0007720342074696D65730A003D20424C54B1
:1039C0006F75636820436C617373696320312E32B5
:1039D0002C20312E332C20536D61727420312E3007
:1039E0002C20322E302C20322E322C20332E302C14
:1039F00020332E312064657465637465642E0A007B
:103A00002E20436865636B20666F7220424C544FD2
:103A10005543480A002E205A5F4D494E5F50524F81
:103A200042455F454E4453544F505F494E564552B0
:103A300054494E473A20002E2050726F6265205A3A
:103A40005F4D494E5F50524F42455F50494E3A20BC
:103A5000002C2073746F7720616E676C653A2020AC
:103A600020002C206465706C6F7920616E676C6536
:103A70003A2000536572766F2070726F6265207411
:103A80006573740A2E207573696E6720696E6465AC
:103A9000783A2020005761746368696E6720706906
:103AA0006E730A0064697300656E0061626C656420
:103AB0000A00656E6473746F70206D6F6E69746F49
:103AC000722000290A00204B0028536C6F742000DC
:103AD000204B00205300416476616E6365205400E2
:103AE0003F4C2076616C7565206F7574206F662081
:103AF00072616E67652028302D3130292E0A003F13
:103B00004B2076616C7565206F7574206F6620722E
:103B1000616E67652028302D3130292E0A003F5410
:103B20002076616C7565206F7574206F66207261F8
:103B30006E67652E0A005761726E696E67203A20C3
:103B4000436C65616E20436972636C6520726571B8
:103B500075697265732058590A004D3630303A2025
:103B6000546F6F20436F6C6400486F74656E6420FF
:103B7000746F6F20636F6C640A00507265737320FA
:103B8000627574746F6E20746F2068656174206E46
:103B90006F7A7A6C650A0020496E76616C696420E0
:103BA0006578747275646572200047322F47332040
:103BB00062616420706172616D65746572730A0080
:103BC000536C6565702E2E2E00205A3A2000205925
:103BD0003A200042656420583A20004D6573682001
:103BE000706F696E742063616E6E6F742062652001
:103BF0007265736F6C7665640A00436C69636B2051
:103C0000746F20526573756D652E2E2E004E6F20D9
:103C10004D6F76652E002569730025696D20256935
:103C200073002569682025696D2025697300256961
:103C300064202569682025696D2025697300256940
:103C40007920256964202569682025696D2025690A
:103C500073005072696E742074696D653A20004378
:103C60006F6F6C696E672E2E2E0048656174696EE9
:103C7000672E2E2E00452563202553006F6B006FA5
:103C80006666001C25172510250925FB244445429E
:103C900055473A004D3131322053687574646F775F
:103CA0006E0042656420436F6F6C696E672E2E2E26
:103CB000004265642048656174696E672E2E2E008F
:103CC000503830324E5232204F46462E0043484143
:103CD0004D4245525F54454D504552415455524511
:103CE000004D4F54494F4E5F4D4F4445530054488B
:103CF00045524D414C5F50524F54454354494F4EED
:103D0000004155544F5245504F52545F53445F53F6
:103D100054415455530050524F4D50545F535550D9
:103D2000504F525400454D455247454E43595F5000
:103D3000415253455200434153455F4C4947485413
:103D40005F4252494748544E45535300544F4747EA
:103D50004C455F4C494748545300534F46545741D4
:103D600052455F504F574552004255494C445F50B1
:103D7000455243454E54004C4556454C494E475FCD
:103D800044415441005A5F50524F424500415554FE
:103D90004F4C4556454C005052494E545F4A4F4295
:103DA0000050524F4752455353004155544F5245CE
:103DB000504F52545F54454D5000564F4C554D4551
:103DC0005452494300454550524F4D0042494E41DF
:103DD00052595F46494C455F5452414E53464552F5
:103DE0000053455249414C5F584F4E5F584F46462D
:103DF000004649524D574152455F4E414D453A4D5F
:103E000061726C696E20322E302E342E3420284799
:103E100069744875622920534F555243455F434F9B
:103E200044455F55524C3A68747470733A2F2F674B
:103E300069746875622E636F6D2F4D61726C696E67
:103E40004669726D776172652F4D61726C696E2083
:103E500050524F544F434F4C5F56455253494F4E6B
:103E60003A312E30204D414348494E455F54595018
:103E7000453A503830324E5232204558545255440B
:103E800045525F434F554E543A3220555549443AB6
:103E900063656465326132662D343161322D3437A9
:103EA00034382D396231322D63353563363266331D
:103EB000363766660A002F2F20004D3134352053E7
:103EC0003C696E6465783E206F7574206F66207261
:103ED000616E67652028302D31290A0041636365D2
:103EE0006C65726174696F6E0046656564726174B9
:103EF0006500205200416363656C65726174696F8F
:103F00006E3A2050003F4A206F7574206F66207211
:103F1000616E67652028302E303120746F20302E7E
:103F200033290A004F4646004F4E0020204D61784D
:103F30003A2000200020204D696E3A2000536F6621
:103F40007420656E6473746F70733A2000486F74E8
:103F5000656E64206F6666736574733A0020466C04
:103F60006F773A200050726F7465637465642050F7
:103F7000696E0A003A200020536572766F20002097
:103F80006F7574206F662072616E67650A005365F5
:103F900072766F2000496E76616C69642065787472
:103FA00072756465720A0020643A0020693A002044
:103FB000703A0020653A0064697300656E00432919
:103FC0000A0061626C656420286D696E2074656DFD
:103FD000702000436F6C642065787472756465733B
:103FE0002061726520004D65736820706F696E7482
:103FF0002063616E6E6F74206265207265736F6CF2
:104000007665640A004D34323120696E636F7272D6
:1040100065637420706172616D657465722075737B
:104020006167650A00454550524F4D204F4B0A00CD
:10403000446966663A200046726F6D5374703A00A8
:10404000537465707065723A00556E4C6576656C98
:104050003A004C6576656C65643A005261773A20A7
:10406000202020000A4C6F676963616C3A00436F3F
:10407000756E7420453A004361703A0050726F6269
:10408000696E67204661696C65640A0050726F62F0
:10409000696E67204661696C656400205A3A2000A9
:1040A00020593A200042656420583A2000290A002D
:1040B00020746F20003F5A206F7574206F66207245
:1040C000616E6765202800290A0020746F20003F78
:1040D00059206F7574206F662072616E67652028A5
:1040E0002D00290A0020746F20003F58206F75743E
:1040F000206F662072616E676520282D0050726FF8
:104100006265204F6666736574205800220A006558
:104110006E7175657565696E672022006F6B005260
:104120006573656E643A200023646566696E652078
:1041300044454641554C545F004B6420004B692078
:10414000004B702000504944204175746F74756EA7
:10415000652066696E6973686564212050757420F6
:10416000746865206C617374204B702C204B69203F
:10417000616E64204B6420636F6E7374616E747340
:104180002066726F6D2062656C6F7720696E746F48
:1041900020436F6E66696775726174696F6E2E6811
:1041A0000A00504944204175746F74756E6520662D
:1041B00061696C6564212074696D656F75740A00AE
:1041C000504944204175746F74756E65206661694D
:1041D0006C6564212054656D7065726174757265DB
:1041E00020746F6F20686967680A00204B643A206A
:1041F00000204B693A2000204B703A20000A2043EF
:104200006C617373696320504944200A00204B6439
:104210003A2000204B693A2000204B703A20000AD7
:10422000204E6F206F76657273686F6F740A00207E
:1042300054753A2000204B753A2000206D61783A81
:104240002000206D696E3A200020643A2000206230
:104250006961733A2000504944204175746F747548
:104260006E652073746172740A0050494420417570
:10427000746F74756E65206661696C656421205485
:10428000656D706572617475726520746F6F2068FA
:104290006967680A00504944204175746F74756EEF
:1042A00065206661696C65642120426164206578DF
:1042B000747275646572206E756D6265720A004570
:1042C00072723A207574663820666F6E74206E6F55
:1042D0007420696E697469616C697A65642E004541
:1042E00072723A207574663820666F6E74206E6F35
:1042F0007420696E697469616C697A65642E004521
:1043000072723A207574663820666F6E74206E6F14
:104310007420696E697469616C697A65642E002520
:1043200068753A25303268750025303268753A254F
:104330003032687500256875642025303268753A1A
:10434000253032687500000C0D00FE07022603BC04
:10435000017FFE08FE08FE05080806000040F0C8C0
:104360008888987810050808060000C0F8888888B2
:104370008888F80505050600012030F8302005087A
:10438000080600002070F820202020E0050909061A
:1043900000FF2070A8A8B8888870200506060600CF
:1043A00001E08CEA8C8A0A0509090600FFF8A88852
:1043B00088888888A8F8050A0A0600FE2050505010
:1043C0005088A8A8887003030306000340A040FF9C
:1043D000FFFFFFFFFFFFFFFFFFFFFFFFFFFFFFFFED
:1043E000FFFFFFFFFF0000000605FF0107070602B1
:1043F0000080808080800080030303060105A0A068
:10440000A005060606000050F85050F850050909AE
:104410000600FF2070A8A07028A8702005070706D6
:104420000000C8C810204098980507070600004003
:10443000A0A040A8906801030306020580808003C5
:1044400009090601FF204040808080404020030988
:10445000090601FF804040202020404080050707DA
:1044600006000020A8702070A820050505060001A0
:104470002020F820200203030601FFC04080050130
:1044800001060003F8020202060100C0C00507078A
:1044900006000008101020404080050707060000B5
:1044A000708898A8C8887003070706010040C040BC
:1044B000404040E0050707060000708808102040D3
:1044C000F8050707060000F808103008887005078F
:1044D0000706000010305090F8101005070706007E
:1044E00000F880F0080888700507070600003040D3
:1044F00080F0888870050707060000F80810102073
:1045000020200507070600007088887088887005DD
:104510000707060000708888780810600205050605
:104520000100C0C000C0C00206060601FFC0C000F6
:10453000C04080030505060101204080402005039E
:1045400003060002F800F80305050601018040207B
:104550004080050707060000708810202000200515
:1045600007070600007088B8A8B88070050707061E
:104570000000708888F8888888050707060000F022
:104580004848704848F0050707060000708880809A
:10459000808870050707060000F04848484848F042
:1045A000050707060000F88080F08080F8050707FF
:1045B000060000F88080F080808005070706000074
:1045C00070888080988870050707060000888888B2
:1045D000F8888888030707060100E0404040404013
:1045E000E00507070600003810101010906005075E
:1045F000070600008890A0C0A09088050707060065
:1046000000808080808080F805070706000088D839
:10461000A8888888880507070600008888C8A898A1
:1046200088880507070600007088888888887005D4
:104630000707060000F08888F080808005070706DD
:10464000000070888888A89068050707060000F0B9
:104650008888F0A0908805070706000070888070A1
:10466000088870050707060000F820202020202079
:10467000050707060000888888888888700507076E
:10468000060000888888885050200507070600002B
:1046900088888888A8A850050707060000888850E1
:1046A00020508888050707060000888850202020B1
:1046B00020050707060000F80810204080F80309CD
:1046C000090601FFE080808080808080E005070788
:1046D000060000804040201010080309090601FF71
:1046E000E020202020202020E005030306000520F4
:1046F00050880501010600FEF8030303060105804A
:104700004020050505060000700878887805070731
:104710000600008080F0888888F005050506000006
:104720007080808870050707060000080878888870
:1047300088780505050600007088F0807005070779
:10474000060000304840E04040400507070600FEF4
:10475000708888887808700507070600008080F058
:10476000888888880307070601004000C040404051
:10477000E00409090601FE100030101010109060CE
:1047800005070706000080808890E09088030707EF
:10479000060100C04040404040E00505050600001D
:1047A000D0A8A8A8A8050505060000B0C888888874
:1047B0000505050600007088888870050707060053
:1047C000FEF0888888F080800507070600FE78885C
:1047D0008888780808050505060000B0C880808034
:1047E00005050506000078807008F005070706003B
:1047F000002020F8202020180505050600008888E4
:1048000088986805050506000088888850200505F9
:10481000050600008888A8A8500505050600008840
:10482000502050880507070600FE888888502040E1
:1048300080050505060000F8102040F80309090668
:1048400001FF20404040804040402001090906020D
:10485000FF8080808080808080800309090601FFBE
:10486000804040402040404080050303060002484D
:10487000A890FF1FE020102310249010A0112022E8
:1048800010241037B00840048003001FE0201021DE
:104890001023101520112021102110313008400460
:1048A0008003001FE03FF03CF03B701F601EE03DC6
:1048B000F03BF038700FC0078003001FE03FF03E70
:1048C000F03CF01AE01EE03EF03EF03EF00FC00774
:1048D0008003005072696E742050617573656400C6
:1048E0004D6F76652025736D6D00004D6F766520E8
:1048F000302E316D6D004D6F766520316D6D004D40
:104900006F76652031306D6D00486F74656E642080
:10491000746F6F20636F6C640045787472756465A2
:1049200072202A004578747275646572004D6F7646
:1049300065205A004D6F76652059004D6F766520D1
:1049400058004F6666004F6E00536F667420456EC8
:104950006473746F7073004D6F74696F6E004D38BF
:10496000340044697361626C6520537465707065CE
:104970007273004732380A4D343820503130004DC0
:1049800034382050726F62652054657374004C6532
:1049900076656C20436F726E65727300556E696642
:1049A00069656420426564204C6576656C696E6754
:1049B00000473238205A00486F6D65205A00473250
:1049C00038205900486F6D6520590047323820580B
:1049D00000486F6D652058004175746F20486F6DF9
:1049E00065004D6F76652041786973004D61696E91
:1049F000005072656865617420504C4120416C6CB8
:104A0000005072656865617420504C4120426564B5
:104A1000005072656865617420504C4120456E6499
:104A2000207E005072656865617420504C41207E84
:104A300000507265686561742041425320416C6C7E
:104A4000005072656865617420414253204265647C
:104A500000507265686561742041425320456E6460
:104A6000207E005072656865617420414253207E4B
:104A70000054656D706572617475726500436F6F87
:104A80006C646F776E005072656865617420414296
:104A900053005072656865617420504C4100466156
:104AA0006E20537065656400426564004E6F7A7ACB
:104AB0006C65207E004D61696E00416476616E63B5
:104AC00065204B202A00466C6F77207E00466C6F75
:104AD000770046616E20537065656400426564002E
:104AE0004E6F7A7A6C65207E005370656564004D68
:104AF00061696E0000FE0003FF8007C7C00701E088
:104B00000000E00000F00000700400700E00701F54
:104B100000703F80F00E00E00F01E007C7C003FF08
:104B20008000FE0000FE0003FF8007C7C00F01E009
:104B30000E00E03F80F01F00700E00700400700057
:104B400000700000F00000E00701E007C7C003FFAD
:104B50008000FE000E000E000E000E000E000E0083
:104B60000E000E007FC03F801F000E0004000400F6
:104B70000E001F003F807FC00E000E000E000E00D2
:104B80000E000E000E000E00FFFFFF7F80FFC0FF33
:104B9000C0FFC07F807F80FFC0FFC0FFC03F001EFE
:104BA000000C004D65736820456469746F7200479E
:104BB0003239205031004D31303920532569004DB4
:104BC00031393020532569004265642054656D7089
:104BD00000486F74656E642054656D70002E256901
:104BE000004732392050362043202D004865696740
:104BF000687420416D6F756E740041646A757374DA
:104C0000204D6573682048656967687400473239CC
:104C100020503420540046696E652054756E65201E
:104C2000436C6F73657374004732392050342052DF
:104C300039393920540046696E652054756E6520F7
:104C4000416C6C00473236204320422569204825BC
:104C50006920500056616C69646174652043757306
:104C6000746F6D204D657368004732380A473236DD
:104C70002043204231313020483234302050005619
:104C8000616C6964617465204D65736820284142D8
:104C90005329004732380A473236204320423635FE
:104CA000204832323020500056616C69646174656E
:104CB000204D6573682028504C4129004732392027
:104CC0004A2569004C6576656C204D657368005314
:104CD00069646520506F696E74730047726964205F
:104CE0004D657368204C6576656C696E6700473268
:104CF00039204A3000332D506F696E74204C657630
:104D0000656C696E6700473239205033205220436A
:104D10002E2569004732392050322042205430007D
:104D20004D616E75616C2046696C6C2D696E004733
:104D3000323920503320543000536D617274204654
:104D4000696C6C2D696E0046696C6C2D696E204132
:104D50006D6F756E74004D65736820696E76616C59
:104D60006964617465642E0A00496E666F2053633E
:104D70007265656E00473239204900496E76616C74
:104D8000696461746520436C6F7365737400496E68
:104D900076616C696461746520416C6C00473239DE
:104DA000205031204300436F6E74696E7565204258
:104DB0006564204D6573680046696C6C2D696E20D2
:104DC0004D657368004732380A4732392050310048
:104DD0004275696C6420436F6C64204D6573680094
:104DE0004275696C6420437573746F6D204D6573F3
:104DF00068004732380A4D31393020533131300A9A
:104E00004D31303920533234300A47323920503155
:104E10000A4D3130342053300A4D31343020533074
:104E2000004275696C64204D6573682028414253C7
:104E300029004732380A4D313930205336350A4D72
:104E400031303920533232300A4732392050310A5A
:104E50004D3130342053300A4D313430205330003E
:104E60004275696C64204D6573682028504C412957
:104E7000004D313137204D657368202569204C6F16
:104E80006164656400473239204C2569004D313139
:104E900037204D657368202569205361766564006D
:104EA0004732392053256900536176652042656495
:104EB000204D657368004C6F616420426564204D2D
:104EC000657368004D656D6F727920536C6F740067
:104ED0004E6F2053746F7261676500486F6D696E25
:104EE000672058595A0047323920503420582573CA
:104EF000205925732052256900202D2D2D2D2D00A0
:104F00004732380047323920532D31004F66662032
:104F10005072696E746572204261636B75700047F0
:104F20003239205431004F757470757420666F7279
:104F30002043535600473239205430004F75747067
:104F4000757420666F7220486F7374004D657368C6
:104F5000204C6576656C696E670045646974204D08
:104F60006573680056616C6964617465204D657392
:104F7000680047323920493939390A4732392050D7
:104F8000322042205430004D616E75616C6C792086
:104F90004275696C64204D657368004275696C6484
:104FA000204D65736800372E205361766520426579
:104FB00064204D65736800473239205034205239DF
:104FC0003939205400362E2046696E652054756E9E
:104FD0006520416C6C00352E2056616C69646174EB
:104FE00065204D65736800473239205034205239AE
:104FF0003939205400342E2046696E652054756E70
:105000006520416C6C00332E2056616C69646174BC
:1050100065204D6573680047323920503320543085
:1050200000322E20536D6172742046696C6C2D69BC
:105030006E004732380A47323920503100312E2075
:105040004275696C6420436F6C64204D6573680021
:10505000556E696669656420426564204C657665B5
:105060006C696E67004661646520486569676874AD
:10507000004732392057004F7574707574205542BF
:105080004C20496E666F0055424C20546F6F6C7314
:10509000004F7574707574204D657368204D617094
:1050A000004D6573682053746F72616765004D65CC
:1050B0007368204564697400537465702D42792DBE
:1050C000537465702055424C0047323920410041ED
:1050D000637469766174652055424C00473239200B
:1050E0004400446561637469766174652055424C7F
:1050F000004D6F74696F6E008B487348BB48A348BE
:105100003FFFF038007030FC3020FC102078102079
:1051100030102C00D02E31D02F7BD02F7BD02E31D1
:10512000D02C00D020301020781020FC1030FC3023
:105130003800703FFFF03FFFF038007031863023B9
:1051400087102787902F87D02F03D020301020780A
:10515000102078102030102F03D02F87D027879071
:105160002387103186303800703FFFF01FFFF81F93
:10517000FFF8041040020820020820041040082014
:105180008010410010410008208004104000000001
:105190001FFFF81FFFF8503830324E523220526550
:1051A0006164792E005072696E74696E672E2E2EBE
:1051B00000290A002062797465733B2063726320C2
:1051C0000053657474696E67732053746F726564FD
:1051D0002028004E6F20454550524F4D2E0A004565
:1051E0004550524F4D206461746173697A65206542
:1051F00072726F722E0A003F4D65736820746F6F74
:105200002062696720666F7220454550524F4D2ECF
:105210000A0055424C2072657365740A00206C6F59
:10522000616465642066726F6D2073746F7261676C
:10523000652E0A004D65736820002E0A003F436109
:105240006E277420656E61626C65200020696E694E
:105250007469616C697A65642E0A0A00290A002063
:1052600062797465733B2063726320002073746FEE
:105270007265642073657474696E677320726574F7
:10528000726965766564202800202863616C637507
:105290006C6174656429210A0020213D2000454588
:1052A00050524F4D20435243206D69736D617463BA
:1052B00068202D202873746F7265642920002053A4
:1052C000697A653A2000496E6465783A2000204D7D
:1052D00061726C696E3D563736290A004545505259
:1052E0004F4D2076657273696F6E206D69736D61C5
:1052F0007463682028454550524F4D3D004E6F2045
:10530000454550524F4D2E0A00454550524F4D20B5
:10531000496E697469616C697A65640A004D6573E8
:105320006820736176656420696E20736C6F7420E9
:10533000003F556E61626C6520746F207361766505
:10534000206D65736820646174612E0A0020736C9F
:105350006F743D00206D65736865735F656E643DB5
:10536000004532454E443D00206D65736820736CE6
:105370006F747320617661696C61626C652E0A00DE
:105380003F496E76616C696420736C6F742E0A00FD
:105390004D657368206C6F616465642066726F6D23
:1053A00020736C6F7420003F556E61626C652074D1
:1053B0006F206C6F6164206D657368206461746137
:1053C0002E0A0048617264636F64656420446566F8
:1053D00061756C742053657474696E6773204C6FCB
:1053E000616465640A00000048430000484300000F
:1053F000204200004842142EA042856BA0423D6A24
:10540000C7430080C042E2040000E2040000E2045E
:10541000000088130000556E696669656420426566
:1054200064204C6576656C696E67003B20003A0A23
:105430000020204D363033200020204D34323520DE
:1054400046004261636B6C61736820636F6D7065C9
:105450006E736174696F6E3A00546F6F6C2D636880
:10546000616E67696E673A002055005431204C0028
:105470002055005430204C0046696C616D656E7497
:10548000206C6F61642F756E6C6F6164206C656E4B
:10549000677468733A00204B0020204D393030206B
:1054A00054004C696E65617220416476616E63657B
:1054B0003A0020204D3835312058005A2D50726F57
:1054C0006265204F66667365740020204D32303966
:1054D0002053004175746F2D526574726163743A84
:1054E00020533D3020746F2064697361626C652CB9
:1054F000203120746F20696E74657270726574203B
:10550000452D6F6E6C79206D6F7665732061732009
:10551000726574726163742F7265636F7665720071
:1055200020460020570020204D32303820530052B2
:1055300065636F7665723A20533C6C656E6774687C
:105540003E20463C756E6974732F6D3E0020460008
:1055500020570020204D323037205300526574729E
:105560006163743A20533C6C656E6774683E2046F4
:105570003C756E6974732F6D3E205A3C6C6966747D
:105580003E0020440020490020500020204D3330B0
:10559000312045005049442073657474696E677307
:1055A0003A0020460020420020480020204D31349F
:1055B000352053004D6174657269616C20686561C6
:1055C00074757020706172616D65746572733A00F4
:1055D000206D65736865732E0A0A00454550524F69
:1055E0004D2063616E20686F6C64200041637469B4
:1055F0007665204D65736820536C6F743A200020E7
:10560000204D3432302053000020580020204D32ED
:105610003138205400486F74656E64206F6666737D
:105620006574733A00204A0020530020204D323028
:1056300035204200416476616E6365643A20423CE5
:105640006D696E5F7365676D656E745F74696D65B6
:105650005F75733E20533C6D696E5F66656564726D
:105660006174653E20543C6D696E5F74726176654D
:105670006C5F66656564726174653E204A3C6A755C
:105680006E635F6465763E0020520020204D32300C
:1056900034205000416363656C65726174696F6E9C
:1056A0002028756E6974732F7332293A20503C702C
:1056B00072696E745F616363656C3E20523C726513
:1056C00074726163745F616363656C3E20543C7403
:1056D000726176656C5F616363656C3E0020204D8E
:1056E0003230312058004D6178696D756D2041630D
:1056F00063656C65726174696F6E2028756E69747C
:10570000732F7332293A0020204D32303320580055
:105710004D6178696D756D2066656564726174654B
:10572000732028756E6974732F73293A005374655A
:1057300070732070657220756E69743A0020204D78
:105740003230302044300A00204400205400202011
:105750004D323030002044697361626C65640A0028
:1057600046696C616D656E742073657474696E67EB
:10577000733A0020204D3134392043203B20556EB0
:1057800069747320696E2043656C736975730A00D0
:1057900020286D6D29002020473231202020203B19
:1057A00020556E69747320696E206D6D006F706591
:1057B0006E00545249474745524544003A20007A0A
:1057C0005F70726F6265007A5F6D6178007A5F6DFD
:1057D000696E00795F6D696E00785F6D696E005269
:1057E00065706F7274696E6720656E6473746F7034
:1057F000207374617475730A00205A3A0020593A74
:105800000020436F756E7420583A0020453A0020FE
:105810005A3A0020593A00583A0000005B43000011
:105820005B4300006643000020C20000000000004F
:10583000000020746F6F206C6F6E67206578747243
:105840007573696F6E2070726576656E7465640A33
:105850000020636F6C6420657874727573696F6E75
:105860002070726576656E7465640A00486F6D69B4
:105870006E67204661696C656400000020C200000C
:105880000000000000000000484200004842000004
:1058900020415761726E696E673A20486F6D696E7C
:1058A000672042756D702044697669736F72203C81
:1058B00020310A000202040000A0400000A04000C5
:1058C0000000400080814300005B4300006643FF0E
:1058D000FFFF00000001000000010000800055559E
:1058E00055000000400033333300AAAA2A00499231
:1058F000240000002000C7711C0099991900D145AF
:105900001700555515003BB1130024491200111121
:105910001100000010000F0F0F00E3380E00437954
:105920000D00CCCC0C00C3300C00E8A20B006421AD
:105930000B00AAAA0A00703D0A009DD80900427B0C
:10594000090092240900DCD308008888080010426E
:10595000080000000800F0C10700878707007550A5
:105960000700711C07003EEB0600A1BC0600699011
:10597000060066660600703E06006118060017F411
:10598000050074D105005BB00500B290050062729D
:1059900005005555050078390500B81E05000505B8
:1059A00005004EEC040087D40400A1BD040090A7BC
:1059B000040049920400C17D0400EE690400C7564A
:1059C0000400444404005C32040008210400411037
:1059D0000400000004003FF00300F8E0030026D2BA
:1059E0000300C3C30300CCB503003AA803000A9B1D
:1059F0000300388E0300C08103009F750300D06947
:105A00000300505E03001D53030034480300913D22
:105A100003003333030016290300381F03009715D2
:105A20000300300C0300030303000BFA020049F1EA
:105A30000200BAE802005CE002002DD802002DD07E
:105A4000020059C80200B0C0020031B90200DAB148
:105A50000200AAAA0200A0A30200BC9C0200FA95C0
:105A600002005C8F0200DF88020082820200457C17
:105A700002002776020027700200436A02007C645D
:105A80000200D05E02003F590200C853020010001D
:105A9000C90210012C014001220170011801B0015E
:105AA0000E01D0010401F001ED005002E300E0021C
:105AB000D9009003D0005004C7005005C000500624
:105AC000BC005008AF00B009AA00D00BA000600EC7
:105AD000960060118C000015820000197700E01D0F
