:100000000C94BA390D940B3B0D94E03A0D94B53A2B
:100010000D948A3A0D945F3A0D94343A0D94093A4E
:100020000D94DE390C94FBEA0C94FBEA0C94FBEA89
:100030000C94EB390D941C370C94EB390C94EB3980
:100040000C94EB390D94335A0C94EB390C94EB3936
:100050000C94EB390C94EB390D94E6440D949439DF
:100060000C94EB390C9439CE0C942FCE0C94EB39C4
:100070000C94EB390C94EB390C94EB390C94EB3970
:100080000C94835D0C94EB390C94EB390C94EB39A4
:100090000C94EB390C94EB390C94EB390C94EB3950
:1000A0000C94EB390C94EB390C94555D0C94EB39B2
:1000B0000C94EB390C94EB390C94EB390C94275DD0
:1000C0000C94EB390C94EB390C94EB390C94EB3920
:1000D0000C94EB390C94EB390C94EB390C94EB3910
:1000E0000C94EB39084AD73B3BCE016E84BCBFFD74
:1000F000C12F3D6C74319ABD56833DDA3D00C77FF8
:1001000011BED9E4BB4C3E916BAAAABE0000008090
:100110003F05A84CCDB2D44EB93836A9020C50B91F
:10012000918688083CA6AAAA2ABE000000803F0744
:10013000634236B79BD8A71A39685618AEBAAB5582
:100140008C1D3CB7CC5763BD6DEDFD753EF6177247
:1001500031BF000000803F08000000BE9224491219
:100160003EABAAAA2ABECDCCCC4C3E00000080BE3D
:10017000ABAAAAAA3E00000000BF000000803F001A
:1001800000000000084178D3BB4387D1133D190E0E
:100190003CC3BD4282AD2B3E68EC8276BED98FE176
:1001A000A93E4C80EFFFBE01C4FF7F3F000000006E
:1001B00000000D94797B0D94B5810D94FA270D9470
:1001C00026850D94FE830D947C7B0D9402840D9402
:1001D000C27F0D9427760D9428880D941E100D94DF
:1001E0008D940D94E87A0D94F3780D945F390D9405
:1001F00085480D949E7B0D946D480D94F9270D94C0
:100200002C380D9459B00D94AB940D9455280D9441
:10021000DA8C0D945C280D94CF7A0D94C1810D94E5
:1002200023820D94B2850D941D7F0D9449480D9441
:10023000B8810D9462280D94D68C0D94FC270D94F2
:10024000BC050D944D280D9432820D94817B0D9444
:1002500086150D9420920D942D770D9479940D941C
:1002600074280D9444170D941A770D9492940D945C
:100270009A0B0D9435780D949D760D94D1790D944B
:10028000BE810D9450820D94DF7B0D9494820D9469
:10029000F2460D94E28C0D94B8950D94DF110D94F7
:1002A000B5280D943E760D9467380D9425750D9400
:1002B00097940D94A4820D94C7810D941C880D947D
:1002C00039380D9487280D9470280D946F820D9401
:1002D00047280D9440770D94D88C0D9488940D94F4
:1002E00068480D945C7F0D94B97A0D944D380D9447
:1002F000B2380D9483940D94BC380D9406840D94FB
:10030000C4810D9410970D94A5AB0D9424880D9481
:100310009E380D9456970D94018A0D9457380D947C
:10032000B0940D9486AE0D94B5820D94607F0D94BB
:100330007A280D94E8760D948C280D94B9820D944A
:1003400028820D940B290D9434380D9459770D940F
:1003500055480D9482280D94B0820D940A7A0D941C
:1003600010760D947F7B0D947B7B0D94419C0D94B6
:10037000017B0D947D7B0D94F57B0D94C3790D94D9
:10038000D1AD0D94B2810D94A40D0D946B7B0D94A1
:100390007E280D94F9750D942A8E0D94110F0D94ED
:1003A000C6380D94A1820D949E820D94CA810D943D
:1003B0007A7B0D94ED7B0D9469760D94AC750D945C
:1003C0002D820D9485380D94A8380D9476750D9472
:1003D000AA820D9457A00D9443380D947B380D9448
:1003E000A1940D94BC7A0D9472A30D9401770D9491
:1003F000837B0D94B67A0D94B4130D94D4790D9437
:10040000B6760D9402470D9471380D94AC920D940C
:10041000E2120D9491750D9420880D94C0750D9481
:1004200084760D9488280D949C940D946C280D94DA
:10043000A7820D94A6940D9494380D9484840D9401
:1004400066280D9480480D947E940D94967A0D94B0
:10045000BB810D9440750D941E820D94699A0D9484
:100460005F380D94DC970D94AD820D940DA90D9419
:10047000CF760D946C770D944B7A0D94D4A70D9490
:1004800051280D945B750D9459280D94BE750D94EB
:10049000B6824E414E494E495459494E46CDCCCC78
:1004A0003D0AD7233C17B7D13877CC2B329595E648
:1004B000241FB14F0A000020410000C84200401C28
:1004C0004620BCBE4CCA1B0E5AAEC59D7400407A75
:1004D00010F35A00A0724E18090010A5D4E80000CD
:1004E000E87648170000E40B54020000CA9A3B006B
:1004F0000000E1F505000080969800000040420FE2
:10050000000000A08601000000102700000000E8A5
:1005100003000000006400000000000A000000006A
:10052000000100000000002C76D888DC674F08230B
:10053000DFC1DFAE59E1B1B796E5E3E453C63AE671
:1005400051997696E8E6C28426EB898C9B62ED4051
:100550007C6FFCEFBC9C9F40F2BAA56FA5F49005A0
:100560005A2AF75C936B6CF9676DC11BFCE0E40DD4
:1005700047FEF520E6B500D0ED902E0300943577C8
:10058000050080841E080000204E0A000000C80CF0
:10059000333333330F986E12831141EF8D21148959
:1005A0003BE65516CFFEE6DB18D1844B381BF77CB3
:1005B0001D901DA4BBE424203284725E228100C9F8
:1005C000F124ECA1E53D274D3231004D3233202599
:1005D00073004D32340024F404D9201BC40C5C0E8B
:1005E0009804C4095F0265077101F405F900FB0472
:1005F000B30048048700C103690058035500030392
:100600004500BE023A008402310053022A0029024A
:10061000250004022000E4011C00C8011900AF01FC
:10062000170098011400840113007101100061018A
:10063000100051010E0043010D0036010B002B018B
:100640000B0020010B00150109000C01090003013A
:100650000800FB000800F3000800EB000700E400BE
:100660000600DE000600D8000600D2000600CC001E
:100670000500C7000500C2000500BD000400B90068
:100680000400B5000400B1000400AD000400A9009E
:100690000400A5000300A20003009F0004009B00CB
:1006A00003009800030095000200930003009000EF
:1006B00003008D0002008B0003008800020086000A
:1006C000020084000300810002007F0002007D0020
:1006D00002007B0002007900020077000100760032
:1006E00002007400020072000100710002006F003D
:1006F00002006D0001006C0002006A000100690048
:10070000020067000100660001006500010064004E
:1007100002006200010061000100600001005F0052
:1007200002005D0001005C0001005B0001005A0056
:100730000100590001005800010057000100560057
:100740000100550001005400010053000000530057
:1007500001005200010051000100500001004F0053
:1007600001004E0000004E0001004D0001004C0051
:1007700001004B0000004B0001004A00010049004D
:100780000100480000004800010047000100460049
:100790000000460001004500000045000100440043
:1007A000010043000000430001004200000042003D
:1007B00001004100000041000100400001003F0035
:1007C00000003F0001003E0000003E0001003D002F
:1007D00000003D0001003C0000003C0000003C0027
:1007E00001003B0000003B0001003A0000003A001D
:1007F0000100390000003900010038000000380015
:10080000000038000100370000003700010036000A
:100810000000360000003600010035000000350001
:1008200000003500010034000000340000003400F6
:1008300001003300000033000000330001003200EB
:1008400000003200000032000100310000003100E1
:1008500000003100010030000000300000003000D6
:1008600001002F0000002F0000002F0000002F00CB
:1008700001002E0000002E0000002E0001002D00BF
:1008800000002D0000002D0000002D0001002C00B4
:1008900000002C0000002C0000002C0001002B00A8
:1008A00000002B0000002B0000002B0001002A009C
:1008B00000002A0000002A0000002A000100290090
:1008C0000000290000002900000029000000290084
:1008D0000100280000002800000028000000280077
:1008E000000028000100270000002700000027006A
:1008F000000027000000270001002600000026005D
:10090000000026000000260000002600010025004F
:100910000000250000002500000025000000250043
:100920000000250001002400000024000000240035
:100930000000240000002400010023000000230028
:10094000000023000000230000002300000023001B
:10095000000023000100220000002200000022000D
:1009600000002200000022000000220001002100FF
:1009700000002100000021000000210000002100F3
:1009800000002100000021000100200000002000E4
:1009900000002000000020000000200000002000D7
:1009A000000020000000200001001F0000001F00C8
:1009B00000001F0000001F0000001F0000001F00BB
:1009C00000001F0001001E0000001E0000001E00AD
:1009D00000001E00000024F4D43050C38E20C2A2B8
:1009E0004017828B7011127A910D816CD90AA8611F
:1009F000E108C7586607615143061E4B5D05C145B6
:100A0000A7041A411104093D980371393103403696
:100A1000DB0265339102D4305402802E1D02632C18
:100A2000EE01752AC501B028A001102781018F258C
:100A300064012B244B01E0223401AC211F018D20E5
:100A40000D01801FFC00841EED00971DDF00B81C07
:100A5000D200E61BC600201BBC00641AB200B2190B
:100A6000A8000A19A0006A189900D1179100401730
:100A70008B00B516840031167E00B31579003A1547
:100A80007300C7146F0058146A00EE1366008813D1
:100A9000630025135E00C7125B006C12570015122D
:100AA0005400C111510070114F0021114B00D6109C
:100AB00049008D1047004610440002104200C00F4C
:100AC0004000800F3E00420F3C00060F3B00CB0E63
:100AD0003800930E37005C0E3500270E3400F30DFE
:100AE0003200C10D3100900D3000600D2E00320D2E
:100AF0002D00050D2C00D90C2B00AE0C2900850C07
:100B000029005C0C2700350C27000E0C2600E80B92
:100B10002400C40B2400A00B23007D0B23005A0BE0
:100B20002100390B2100180B2000F80A1F00D90AF8
:100B30001E00BB0A1E009D0A1D00800A1D00630ADC
:100B40001C00470A1B002C0A1B00110A1A00F70997
:100B50001A00DD091900C4091900AB09190092092E
:100B600017007B091800630917004C0916003609A5
:100B70001600200916000A091500F5081500E008FE
:100B80001400CC081400B8081400A408140090083D
:100B900013007D0812006B08130058081200460865
:100BA0001200340811002308110012081100010876
:100BB0001100F0071000E0071000D0071000C00778
:100BC0001000B0070F00A107100091070E00830767
:100BD0000F0074070F0065070E0057070E00490746
:100BE0000E003B070D002E070E0020070D00130717
:100BF0000D0006070D00F9060C00ED060D00E006DD
:100C00000C00D4060C00C8060C00BC060C00B00694
:100C10000C00A4060B0099060C008D060B00820642
:100C20000B0077060B006C060B0061060A005706E6
:100C30000B004C060A0042060A0038060A002E067F
:100C40000A0024060A001A060A0010060900070610
:100C50000A00FD050900F4050900EB050900E2059D
:100C60000900D9050900D0050900C7050900BE051E
:100C70000900B5050800AD050800A50509009C059B
:100C80000800940508008C050800840508007C0510
:100C90000800740508006C050700650508005D057F
:100CA0000700560508004E050700470507004005E8
:100CB000080038050700310507002A05070023054D
:100CC00007001C050600160507000F0507000805AC
:100CD000060002050700FB040600F5040700EE0409
:100CE0000600E8040600E2040700DB040600D50461
:100CF0000600CF040600C9040600C3040600BD04B4
:100D00000600B7040600B1040500AC040600A60402
:100D10000600A00405009B0406009504050090044D
:100D200006008A04050085040500800406007A0494
:100D3000050075040500700405006B0405006604D9
:100D40000500610405005C04050057040500520419
:100D500005004D04050048040500430405003E0459
:100D600004003A04050035040500300404002C0496
:100D7000050027040400230405001E0404001A04CF
:100D8000040016040500110404000D040400090405
:100D900005000404040000040400FC030400F8033C
:100DA0000400F4030400F0030400EC030400E8036F
:100DB0000400E4030400E0030400DC030400D8039F
:100DC0000400D4030400D0030400CC030400C803CF
:100DD0000300C5030300726F746174696F6E206D48
:100DE00061747269783A0A0024F404D9201BC40C97
:100DF0005C0E9804C4095F0265077101F405F900EF
:100E0000FB04B30048048700C10369005803550080
:100E100003034500BE023A008402310053022A0057
:100E20002902250004022000E4011C00C801190069
:100E3000AF01170098011400840113007101100024
:100E40006101100051010E0043010D0036010B003D
:100E50002B010B0020010B00150109000C010900FA
:100E600003010800FB000800F3000800EB00070086
:100E7000E4000600DE000600D8000600D2000600EE
:100E8000CC000500C7000500C2000500BD0004003D
:100E9000B9000400B5000400B1000400AD00040076
:100EA000A9000400A5000300A20003009F000400A5
:100EB0009B000300980003009500020093000300CC
:100EC000900003008D0002008B00030088000200E8
:100ED0008600020084000300810002007F000200FF
:100EE0007D0002007B000200790002007700010013
:100EF000760002007400020072000100710002001E
:100F00006F0002006D0001006C0002006A00010029
:100F10006900020067000100660001006500010031
:100F20006400020062000100610001006000010035
:100F30005F0002005D0001005C0001005B00010039
:100F40005A0001005900010058000100570001003B
:100F5000560001005500010054000100530000003C
:100F60005300010052000100510001005000010037
:100F70004F0001004E0000004E0001004D00010036
:100F80004C0001004B0000004B0001004A00010032
:100F9000490001004800000048000100470001002E
:100FA0004600000046000100450000004500010029
:100FB0004400010043000000430001004200000023
:100FC000420001004100000041000100400001001A
:100FD0003F0000003F0001003E0000003E00010015
:100FE0003D0000003D0001003C0000003C0000000E
:100FF0003C0001003B0000003B0001003A00000003
:101000003A000100390000003900010038000000FA
:1010100038000000380001003700000037000100F0
:1010200036000000360000003600010035000000E8
:1010300035000000350001003400000034000000DD
:1010400034000100330000003300000033000100D1
:1010500032000000320000003200010031000000C8
:1010600031000000310001003000000030000000BD
:10107000300001002F0000002F0000002F000000B2
:101080002F0001002E0000002E0000002E000100A5
:101090002D0000002D0000002D0000002D0001009B
:1010A0002C0000002C0000002C0000002C0001008F
:1010B0002B0000002B0000002B0000002B00010083
:1010C0002A0000002A0000002A0000002A00010077
:1010D000290000002900000029000000290000006C
:1010E000290001002800000028000000280000005E
:1010F0002800000028000100270000002700000051
:101100002700000027000000270001002600000043
:101110002600000026000000260000002600010036
:10112000250000002500000025000000250000002B
:10113000250000002500010024000000240000001C
:10114000240000002400000024000100230000000F
:101150002300000023000000230000002300000003
:1011600023000000230001002200000022000000F4
:1011700022000000220000002200000022000100E6
:1011800021000000210000002100000021000000DB
:1011900021000000210000002100010020000000CB
:1011A00020000000200000002000000020000000BF
:1011B0002000000020000000200001001F000000AF
:1011C0001F0000001F0000001F0000001F000000A3
:1011D0001F0000001F0001001E0000001E00000094
:1011E0001E0000001E00000024F4D43050C38E20E6
:1011F000C2A24017828B7011127A910D816CD90AAC
:10120000A861E108C7586607615143061E4B5D059A
:10121000C145A7041A411104093D980371393103EE
:101220004036DB0265339102D4305402802E1D0219
:10123000632CEE01752AC501B028A0011027810199
:101240008F2564012B244B01E0223401AC211F01C6
:101250008D200D01801FFC00841EED00971DDF0016
:10126000B81CD200E61BC600201BBC00641AB200EA
:10127000B219A8000A19A0006A189900D1179100A4
:1012800040178B00B516840031167E00B315790027
:101290003A157300C7146F0058146A00EE13660005
:1012A0008813630025135E00C7125B006C125700A1
:1012B00015125400C111510070114F0021114B0043
:1012C000D61049008D10470046104400021042001D
:1012D000C00F4000800F3E00420F3C00060F3B0055
:1012E000CB0E3800930E37005C0E3500270E34000D
:1012F000F30D3200C10D3100900D3000600D2E0055
:10130000320D2D00050D2C00D90C2B00AE0C290040
:10131000850C29005C0C2700350C27000E0C2600DC
:10132000E80B2400C40B2400A00B23007D0B23003A
:101330005A0B2100390B2100180B2000F80A1F005E
:10134000D90A1E00BB0A1E009D0A1D00800A1D004E
:10135000630A1C00470A1B002C0A1B00110A1A0012
:10136000F7091A00DD091900C4091900AB091900B1
:10137000920917007B091800630917004C09160031
:1013800036091600200916000A091500F50815008F
:10139000E0081400CC081400B8081400A4081400D5
:1013A000900813007D0812006B0813005808120003
:1013B0004608120034081100230811001208110019
:1013C00001081100F0071000E0071000D00710001E
:1013D000C0071000B0070F00A107100091070E0012
:1013E00083070F0074070F0065070E0057070E00F4
:1013F00049070E003B070D002E070E0020070D00C9
:1014000013070D0006070D00F9060C00ED060D0090
:10141000E0060C00D4060C00C8060C00BC060C004C
:10142000B0060C00A4060B0099060C008D060B00FC
:1014300082060B0077060B006C060B0061060A00A3
:1014400057060B004C060A0042060A0038060A003E
:101450002E060A0024060A001A060A0010060900D1
:1014600007060A00FD050900F4050900EB0509005F
:10147000E2050900D9050900D0050900C7050900E2
:10148000BE050900B5050800AD050800A505090061
:101490009C050800940508008C05080084050800D8
:1014A0007C050800740508006C0507006505080048
:1014B0005D050700560508004E05070047050700B3
:1014C0004005080038050700310507002A05070018
:1014D000230507001C050600160507000F05070079
:1014E0000805060002050700FB040600F5040700D6
:1014F000EE040600E8040600E2040700DB04060030
:10150000D5040600CF040600C9040600C304060083
:10151000BD040600B7040600B1040500AC040600D3
:10152000A6040600A00405009B040600950405001F
:10153000900406008A040500850405008004060066
:101540007A04050075040500700405006B040500AD
:1015500066040500610405005C04050057040500ED
:10156000520405004D04050048040500430405002D
:101570003E0404003A04050035040500300404006C
:101580002C04050027040400230405001E040400A5
:101590001A04040016040500110404000D040400DC
:1015A000090405000404040000040400FC03040012
:1015B000F8030400F4030400F0030400EC03040047
:1015C000E8030400E4030400E0030400DC03040077
:1015D000D8030400D4030400D0030400CC030400A7
:1015E000C8030300C503030024F404D9201BC40C62
:1015F0005C0E9804C4095F0265077101F405F900E7
:10160000FB04B30048048700C10369005803550078
:1016100003034500BE023A008402310053022A004F
:101620002902250004022000E4011C00C801190061
:10163000AF0117009801140084011300710110001C
:101640006101100051010E0043010D0036010B0035
:101650002B010B0020010B00150109000C010900F2
:1016600003010800FB000800F3000800EB0007007E
:10167000E4000600DE000600D8000600D2000600E6
:10168000CC000500C7000500C2000500BD00040035
:10169000B9000400B5000400B1000400AD0004006E
:1016A000A9000400A5000300A20003009F0004009D
:1016B0009B000300980003009500020093000300C4
:1016C000900003008D0002008B00030088000200E0
:1016D0008600020084000300810002007F000200F7
:1016E0007D0002007B00020079000200770001000B
:1016F0007600020074000200720001007100020016
:101700006F0002006D0001006C0002006A00010021
:101710006900020067000100660001006500010029
:10172000640002006200010061000100600001002D
:101730005F0002005D0001005C0001005B00010031
:101740005A00010059000100580001005700010033
:101750005600010055000100540001005300000034
:10176000530001005200010051000100500001002F
:101770004F0001004E0000004E0001004D0001002E
:101780004C0001004B0000004B0001004A0001002A
:101790004900010048000000480001004700010026
:1017A0004600000046000100450000004500010021
:1017B000440001004300000043000100420000001B
:1017C0004200010041000000410001004000010012
:1017D0003F0000003F0001003E0000003E0001000D
:1017E0003D0000003D0001003C0000003C00000006
:1017F0003C0001003B0000003B0001003A000000FB
:101800003A000100390000003900010038000000F2
:1018100038000000380001003700000037000100E8
:1018200036000000360000003600010035000000E0
:1018300035000000350001003400000034000000D5
:1018400034000100330000003300000033000100C9
:1018500032000000320000003200010031000000C0
:1018600031000000310001003000000030000000B5
:10187000300001002F0000002F0000002F000000AA
:101880002F0001002E0000002E0000002E0001009D
:101890002D0000002D0000002D0000002D00010093
:1018A0002C0000002C0000002C0000002C00010087
:1018B0002B0000002B0000002B0000002B0001007B
:1018C0002A0000002A0000002A0000002A0001006F
:1018D0002900000029000000290000002900000064
:1018E0002900010028000000280000002800000056
:1018F0002800000028000100270000002700000049
:10190000270000002700000027000100260000003B
:10191000260000002600000026000000260001002E
:101920002500000025000000250000002500000023
:101930002500000025000100240000002400000014
:101940002400000024000000240001002300000007
:1019500023000000230000002300000023000000FB
:1019600023000000230001002200000022000000EC
:1019700022000000220000002200000022000100DE
:1019800021000000210000002100000021000000D3
:1019900021000000210000002100010020000000C3
:1019A00020000000200000002000000020000000B7
:1019B0002000000020000000200001001F000000A7
:1019C0001F0000001F0000001F0000001F0000009B
:1019D0001F0000001F0001001E0000001E0000008C
:1019E0001E0000001E00000024F4D43050C38E20DE
:1019F000C2A24017828B7011127A910D816CD90AA4
:101A0000A861E108C7586607615143061E4B5D0592
:101A1000C145A7041A411104093D980371393103E6
:101A20004036DB0265339102D4305402802E1D0211
:101A3000632CEE01752AC501B028A0011027810191
:101A40008F2564012B244B01E0223401AC211F01BE
:101A50008D200D01801FFC00841EED00971DDF000E
:101A6000B81CD200E61BC600201BBC00641AB200E2
:101A7000B219A8000A19A0006A189900D11791009C
:101A800040178B00B516840031167E00B31579001F
:101A90003A157300C7146F0058146A00EE136600FD
:101AA0008813630025135E00C7125B006C12570099
:101AB00015125400C111510070114F0021114B003B
:101AC000D61049008D104700461044000210420015
:101AD000C00F4000800F3E00420F3C00060F3B004D
:101AE000CB0E3800930E37005C0E3500270E340005
:101AF000F30D3200C10D3100900D3000600D2E004D
:101B0000320D2D00050D2C00D90C2B00AE0C290038
:101B1000850C29005C0C2700350C27000E0C2600D4
:101B2000E80B2400C40B2400A00B23007D0B230032
:101B30005A0B2100390B2100180B2000F80A1F0056
:101B4000D90A1E00BB0A1E009D0A1D00800A1D0046
:101B5000630A1C00470A1B002C0A1B00110A1A000A
:101B6000F7091A00DD091900C4091900AB091900A9
:101B7000920917007B091800630917004C09160029
:101B800036091600200916000A091500F508150087
:101B9000E0081400CC081400B8081400A4081400CD
:101BA000900813007D0812006B08130058081200FB
:101BB0004608120034081100230811001208110011
:101BC00001081100F0071000E0071000D007100016
:101BD000C0071000B0070F00A107100091070E000A
:101BE00083070F0074070F0065070E0057070E00EC
:101BF00049070E003B070D002E070E0020070D00C1
:101C000013070D0006070D00F9060C00ED060D0088
:101C1000E0060C00D4060C00C8060C00BC060C0044
:101C2000B0060C00A4060B0099060C008D060B00F4
:101C300082060B0077060B006C060B0061060A009B
:101C400057060B004C060A0042060A0038060A0036
:101C50002E060A0024060A001A060A0010060900C9
:101C600007060A00FD050900F4050900EB05090057
:101C7000E2050900D9050900D0050900C7050900DA
:101C8000BE050900B5050800AD050800A505090059
:101C90009C050800940508008C05080084050800D0
:101CA0007C050800740508006C0507006505080040
:101CB0005D050700560508004E05070047050700AB
:101CC0004005080038050700310507002A05070010
:101CD000230507001C050600160507000F05070071
:101CE0000805060002050700FB040600F5040700CE
:101CF000EE040600E8040600E2040700DB04060028
:101D0000D5040600CF040600C9040600C30406007B
:101D1000BD040600B7040600B1040500AC040600CB
:101D2000A6040600A00405009B0406009504050017
:101D3000900406008A04050085040500800406005E
:101D40007A04050075040500700405006B040500A5
:101D500066040500610405005C04050057040500E5
:101D6000520405004D040500480405004304050025
:101D70003E0404003A040500350405003004040064
:101D80002C04050027040400230405001E0404009D
:101D90001A04040016040500110404000D040400D4
:101DA000090405000404040000040400FC0304000A
:101DB000F8030400F4030400F0030400EC0304003F
:101DC000E8030400E4030400E0030400DC0304006F
:101DD000D8030400D4030400D0030400CC0304009F
:101DE000C8030300C50303001000C90210012C0141
:101DF0004001220170011801B0010E01F00104013F
:101E00005002FA00B002F0003003E600D003DC001C
:101E10009004D2007005C800A006BE000008B400FF
:101E2000B009AA00D00BA000600E960060118C00D3
:101E30000015820020197800C01D6E00A0226400E9
:101E4000B0275A00902C500000314600E0343C008E
:101E500010383200903A2800603C1E00A03D14006B
:101E6000803E0A00203F00001000AA0380004001CD
:101E700000012C01B001220140021001F002020118
:101E80008003F8004004F500E004ED009005E40054
:101E90003006DD00E006D7008007D1003008CC0016
:101EA000D008C7007009C300100ABE00B00ABB000A
:101EB000500BB700900CB300D00DAA00B00FA500D6
:101EC0005010A000101496009016900010198C006D
:101ED000501A8500301C820070227800B0237500F3
:101EE00040256E0020276900A0296400502A5F0069
:101EF000902B5A00D02C5500702D4F00E02E48003A
:101F00005031450030334100D0353900603637005C
:101F100010373300F0382D00A0392700803C1C001A
:101F2000403D1700F03D1100803E0900D03FE5FF25
:101F3000473239004732380A4732390047323900D0
:101F40004732380A47323900473238205800473282
:101F500038205900473238205A004732380A4D3469
:101F60003820503130004D38340047323920503459
:101F70002052393939205400473239205034205406
:101F8000004732380A47323620432042363520484F
:101F90003232302050004732380A47323620432050
:101FA000423131302048323430205000473239201D
:101FB0004A300047323920503320543000473239FC
:101FC0002050322042205430004732380A4D3139F7
:101FD00030205336350A4D31303920533232300AF1
:101FE0004732392050310A4D3130342053300A4DB8
:101FF000313430205330004732380A4D31393020E7
:10200000533131300A4D31303920533234300A47A0
:1020100032392050310A4D3130342053300A4D319D
:102020003430205330004732380A4732392050319B
:1020300000473239205031204300473239204900CF
:10204000473239205430004732392054310047326A
:102050003920532D310047323920493939390A475F
:1020600032392050322042205430004732380A475B
:10207000323920503100473239205033205430005B
:1020800047323920503420523939392054004732F0
:102090003920503420523939392054004732392000
:1020A00044004732392041004732392057004178F7
:1020B00069732000206D696E3A00206D61783A00E6
:1020C0000900000A010008000A01000A09000000D6
:1020D0000A0008005A5249425F5632305F44395F65
:1020E00050494E005A5249425F5632305F44365F83
:1020F00050494E005A5F4D494E5F50524F42455F26
:1021000050494E005A5F53544F505F50494E005A49
:102110005F535445505F50494E005A5F4D494E5FE2
:1021200050494E005A5F4D41585F50494E005A5F2A
:10213000454E41424C455F50494E005A5F4449521A
:102140005F50494E005A5F43535F50494E00595FFC
:1021500053544F505F50494E00595F535445505FA0
:1021600050494E00595F4D494E5F50494E00595FEE
:10217000454E41424C455F50494E00595F444952DB
:102180005F50494E00595F43535F50494E00585FBE
:1021900053544F505F50494E00585F535445505F61
:1021A00050494E00585F4D494E5F50494E00585FB0
:1021B000454E41424C455F50494E00585F4449529C
:1021C0005F50494E00585F43535F50494E00535390
:1021D0005F50494E00534552564F335F50494E00B1
:1021E000534552564F325F50494E00534552564F59
:1021F000315F50494E00534552564F305F50494E63
:1022000000534453530053445F4445544543545F83
:1022100050494E0053434B5F50494E0052414D5080
:10222000535F44395F50494E0052414D50535F4413
:10223000385F50494E0052414D50535F4431305F3A
:1022400050494E004F5249475F45335F4155544F07
:102250005F46414E5F50494E004F5249475F4532FD
:102260005F4155544F5F46414E5F50494E004F52BB
:1022700049475F45315F4155544F5F46414E5F507E
:10228000494E004F5249475F45305F4155544F5FBB
:1022900046414E5F50494E004D4F53495F50494EA5
:1022A000004D4F534645545F445F50494E004D49E1
:1022B000534F5F50494E004D4158363637355F53C6
:1022C000535F50494E004C45445F50494E004C43CB
:1022D000445F50494E535F5253004C43445F504952
:1022E0004E535F454E41424C45004C43445F50497C
:1022F0004E535F4437004C43445F50494E535F4454
:1023000036004C43445F50494E535F4435004C43C4
:10231000445F50494E535F4434004B494C4C5F502E
:10232000494E004845415445525F4245445F50493B
:102330004E004845415445525F315F50494E004878
:1023400045415445525F305F50494E0046494C5F0D
:1023500052554E4F55545F50494E0046414E5F50C6
:10236000494E0045315F535445505F50494E00453A
:10237000315F454E41424C455F50494E0045315F0B
:102380004449525F50494E0045315F43535F5049C5
:102390004E0045315F4155544F5F46414E5F5049B5
:1023A0004E0045305F535445505F50494E00453014
:1023B0005F454E41424C455F50494E0045305F44B9
:1023C00049525F50494E0045305F43535F50494E7C
:1023D0000045305F4155544F5F46414E5F50494E76
:1023E00000455F4D5558325F50494E00455F4D5591
:1023F00058315F50494E00455F4D5558305F504948
:102400004E00444F474C43445F53434B00444F47B7
:102410004C43445F4D4F53490042544E5F454E4339
:102420000042544E5F454E320042544E5F454E319D
:10243000004245455045525F50494E004156525F5B
:1024400053535F50494E004156525F53434B5F50C8
:10245000494E004156525F4D4F53495F50494E001F
:102460004156525F4D49534F5F50494E00545844B6
:1024700030005258443000434F4D4D554E49434172
:1024800054494F4E0044525952554E004552524FF6
:10249000525300494E464F004543484F0045727223
:1024A0006F722077726974696E6720746F2045457A
:1024B00050524F4D210A00363726033C3D380E2E30
:1024C000303E1213131A1C1824221E08440A064315
:1024D0000706450809000153544F505045442E202B
:1024E000005072696E7465722073746F70706564E9
:1024F0002064756520746F206572726F72732E2070
:1025000046697820746865206572726F7220616E0A
:102510006420757365204D39393920746F207265D8
:1025200073746172742E202854656D7065726174C5
:102530007572652069732072657365742E2053650A
:1025400074206974206166746572207265737461A9
:102550007274696E67290A004E6F20436865636B69
:1025600073756D2077697468206C696E65206E756F
:102570006D6265722C204C617374204C696E653AF3
:102580002000636865636B73756D206D69736D61A1
:102590007463682C204C617374204C696E653A201A
:1025A000004C696E65204E756D62657220697320FE
:1025B0006E6F74204C617374204C696E65204E758B
:1025C0006D6265722B312C204C617374204C696EE6
:1025D000653A20004D313130002121204B494C4CCF
:1025E00020636175736564206279204B494C4C20EF
:1025F000627574746F6E2F70696E0A002121204B12
:10260000494C4C2063617573656420627920746F56
:102610006F206D75636820696E61637469766520EB
:1026200074696D65202D2063757272656E74206308
:102630006F6D6D616E643A2000506C65617365204A
:102640005265736574005052494E544552204841BA
:102650004C5445440025533A202553004B494C4CDB
:1026600045442E20005072696E7465722068616C5A
:102670007465642E206B696C6C28292063616C6C16
:102680006564210A0053544F505045442E20005099
:1026900072696E7465722073746F70706564206403
:1026A000756520746F206572726F72732E20466993
:1026B0007820746865206572726F7220616E642084
:1026C000757365204D39393920746F2072657374C4
:1026D0006172742E202854656D7065726174757214
:1026E000652069732072657365742E2053657420AC
:1026F00069742061667465722072657374617274A6
:10270000696E67290A006563686F3A004572726FE7
:10271000723A00204A0020204D34323120490020F6
:1027200020473239204939390A0061637469766576
:102730000A00696E00002053797374656D2076314C
:102740002E303120002020207C0A004E414E0020F7
:10275000202E20202000207C004C43443A0A0043D5
:1027600053563A0A0020666F7220003A0A0A000A9D
:1027700042656420546F706F67726170687920528F
:1027800065706F727400446F6E652E0A003F496E6B
:1027900076616C69642073746F7261676520736C15
:1027A0006F742E0A3F557365203020746F20003FF0
:1027B000454550524F4D2073746F72616765206EAE
:1027C0006F7420617661696C61626C652E0A0044E9
:1027D0006F6E652E0A003F496E76616C69642073E6
:1027E000746F7261676520736C6F742E0A3F557346
:1027F00065203020746F20003F454550524F4D20DA
:1028000073746F72616765206E6F742061766169A1
:102810006C61626C652E0A004732392050322066A6
:10282000696E69736865642E0A005859206F757463
:1028300073696465207072696E7461626C65207280
:1028400061646975732E0A003F4572726F72206968
:102850006E20427573696E657373204361726420E4
:102860006D6561737572656D656E742E0A004D61DC
:102870006E75616C6C792070726F62696E6720751D
:102880006E726561636861626C65206D6573682056
:102890006C6F636174696F6E732E0A00292E0A0AC9
:1028A0000050726F62696E672061726F756E64208E
:1028B00028004D65736820696E76616C6964617487
:1028C00065642E2050726F62696E67206D65736853
:1028D0002E0A004D657368207A65726F65642E0A52
:1028E0000044656661756C742073746F726167650E
:1028F00020736C6F7420302073656C65637465643D
:102900002E0A004C6F6164696E6720746573745F92
:102910007061747465726E2076616C7565732E0AD1
:102920000A00496E76616C696420746573745F7027
:1029300061747465726E2076616C75652E20282D29
:102940003120746F2032290A0A004C6F6361746968
:102950006F6E7320696E76616C6964617465642E54
:102960000A0A00456E74697265204D6573682069B6
:102970006E76616C6964617465642E0A0A00537432
:10298000616E6461726420446576696174696F6E1A
:102990003A20004D65616E204D6573682048656979
:1029A0006768743A200023206F662073616D706C35
:1029B00065733A20000A4D657368206F6E6C79204C
:1029C0007061727469616C6C7920706F70756C6184
:1029D0007465642E0A0A0050726F62696E67205037
:1029E0006F696E740025532025692F2569002E0A12
:1029F0000A002F000A50726F62696E67206D65735E
:102A00006820706F696E74200020616E64207461AC
:102A10006B652061206D6561737572656D656E749F
:102A20002E0A006D6D20746869636B2E0A00427572
:102A300073696E657373204361726420697320004B
:102A400052656D6F76652026204D656173757265E0
:102A5000204265640052656D6F7665207368696D0C
:102A600000506C616365207368696D20756E6465E4
:102A700072206E6F7A7A6C65004D65736820506FB6
:102A8000696E74204D656173757265642061743A76
:102A900020000A4D657368206F6E6C79207061723A
:102AA0007469616C6C7920706F70756C61746564A9
:102AB0002E0A004D65617375726500506C61636527
:102AC000205368696D2026204D656173757265001D
:102AD0004D6F76696E6720746F206E657874004D57
:102AE0006573682045646974696E672053746F70FC
:102AF00070656400446F6E652045646974696E6733
:102B0000204D6573680A00446F6E652045646974E2
:102B1000696E67204D6573680046696E652054755F
:102B20006E696E67204D6573680028582C592920FE
:102B30006F757473696465207072696E7461626C1C
:102B400065207261646975732E0A004F666673654D
:102B500074206F7574206F6620626F756E64732EBB
:102B600020283020746F2031306D6D290A0A004909
:102B70006E76616C6964206D617020747970652E69
:102B80000A0A003F2846296164652068656967680C
:102B90007420666F7220426564204C6576656C20F7
:102BA000436F7272656374696F6E206E6F7420700C
:102BB0006C61757369626C652E0A0A003F43616E31
:102BC000277420616374697661746520616E642086
:102BD00064656163746976617465206174207468EA
:102BE000652073616D652074696D652E0A0A004267
:102BF0006F7468205820262059206C6F63617469B7
:102C00006F6E73206D7573742062652073706563D9
:102C100069666965642E0A0A003F496E76616C69CF
:102C20006420677269642073697A6520284A2920C4
:102C30007370656369666965642028322D39292EB1
:102C40000A0A003F285029686173652076616C7517
:102C50006520696E76616C69642028302D36292ED6
:102C60000A0A003F2856296572626F7365206C65F9
:102C700076656C20696D706C61757369626C652036
:102C800028302D34292E0A0A003F28522965706504
:102C9000746974696F6E20636F756E7420696E76E7
:102CA000616C69642028312B292E0A0A00446F695F
:102CB0006E672047323900CF20CA20C520C0205D72
:102CC0000A0062656420706C616E65206E6F726DC3
:102CD000616C203D205B00436F756C64206E6F74E7
:102CE00020636F6D706C657465204C534621004302
:102CF0006F727265637465645F5A3D0025532025C9
:102D0000692F2569000A0A002F0054696C74696EE6
:102D100067206D65736820706F696E7420003F4591
:102D200072726F722070726F62696E6720706F6965
:102D30006E742E2041626F7274696E67206F7065C9
:102D4000726174696F6E2E0A00436F7272656374EC
:102D500065645F5A3D00255320332F330054696C5E
:102D600074696E67206D6573682028332F33290AD4
:102D700000436F727265637465645F5A3D0025534A
:102D800020322F330054696C74696E67206D65734F
:102D9000682028322F33290A00436F7272656374EA
:102DA00065645F5A3D0054696C74696E6720506FAA
:102DB000696E7400255320312F330054696C746997
:102DC0006E67206D6573682028312F33290A0064EF
:102DD0006F6E650A00496E73756666696369656E34
:102DE0007420646174610A000000803F8EE3C84172
:102DF0008EE34442AAAA92428EE3C242721CF3427C
:102E0000AAAA11431CC729438EE3414300005A4339
:102E10000000803F8EE3C8418EE34442AAAA92425A
:102E20008EE3C242721CF342AAAA11431CC7294373
:102E30008EE3414300005A434578747261706F6CB1
:102E40006174696E67206D6573682E2E2E00486F61
:102E500074656E6420746F6F20636F6C640A004742
:102E600032362048656174696E67204E6F7A7A6CDD
:102E700065004732362048656174696E6720426597
:102E8000640057616974696E6720666F72206865B7
:102E9000617475702E0A004669786564204C656E11
:102EA000677468205072696D6500446F6E652050CC
:102EB00072696D696E67004D616E75616C2070722C
:102EC000696D696E672E2E2E004732362043616E83
:102ED00063656C6564004C656176696E6720473296
:102EE00036003F53706563696669656420582C59E4
:102EF00020636F6F7264696E617465206F757420F2
:102F00006F6620626F756E64732E0A003F28522927
:102F100065706561742076616C7565206E6F7420D4
:102F2000706C61757369626C653B206D757374209C
:102F30006265206174206C6561737420312E0A0013
:102F40003F537065636966696564206E6F7A7A6C59
:102F5000652074656D7065726174757265206E6F41
:102F60007420706C61757369626C652E0A003F5342
:102F700070656369666965642066696C616D656E1C
:102F8000742073697A65206E6F7420706C6175733C
:102F900069626C652E0A003F5370656369666965F6
:102FA00064207072696D65206C656E677468206E50
:102FB0006F7420706C61757369626C652E0A003FD6
:102FC000537065636966696564206E6F7A7A6C65B3
:102FD0002073697A65206E6F7420706C61757369F7
:102FE000626C652E0A003F52657472616374696F8A
:102FF0006E204D756C7469706C696572206D7573A7
:1030000074206265207370656369666965642E0A61
:10301000003F537065636966696564205265747228
:10302000616374696F6E204D756C7469706C69654D
:1030300072206E6F7420706C61757369626C652E9E
:103040000A003F537065636966696564206C617945
:10305000657220686569676874206E6F7420706C93
:1030600061757369626C652E0A0043292E0A003F60
:103070005370656369666965642062656420746580
:103080006D7065726174757265206E6F7420706CFE
:1030900061757369626C65202834302D00473236C3
:1030A000207374617274696E672E2E2E0A004F466B
:1030B000460A0046616465204865696768742000B7
:1030C000426564204C6576656C696E6720004661D8
:1030D000696C656420746F20656E61626C65204266
:1030E0006564204C6576656C696E670A00496E768A
:1030F000616C6964206D6573682E0A0076616C6985
:10310000640A53746F7261676520736C6F743A2040
:1031100000696E004D65736820697320003F557328
:1031200065203020746F20003F496E76616C6964C1
:103130002073746F7261676520736C6F742E0A0060
:103140003F454550524F4D2073746F726167652043
:103150006E6F7420617661696C61626C652E0A0025
:1031600020204261636B3A2000202046726F6E740B
:103170003A2000202052696768743A200020204CD1
:103180006566743A20002020546F703A200053691D
:103190006465733A0A0043656E7465723A0A0020EA
:1031A00020546F703A200020204261636B3A200067
:1031B000202046726F6E743A2000202052696768A2
:1031C000743A200020204C6566743A200042616306
:1031D0006B6C6173683A0A004E6F7A7A6C652054A2
:1031E0006970204F757465722044696D656E7369EE
:1031F0006F6E733A0A0020506F736974696F6E6165
:103200006C204572726F723A0A0020486F74656EC6
:1032100064204F6666736574205800540020284E61
:103220006F7420796574206D6561737572656429AA
:1032300000202041766572616765206D6561737558
:10324000726564206261636B6C61736820286D6DC8
:10325000293A0020204261636B6C617368204469E5
:103260007374616E636520286D6D293A20202020DB
:103270002020202000202846312E30203D20667559
:103280006C6C2C2046302E30203D206E6F6E6529F0
:103290000A002020436F7272656374696F6E20416B
:1032A0006D6F756E742F466164652D6F75743A206D
:1032B0002020202046006163746976653A0A00691F
:1032C0006E004261636B6C61736820436F7272655C
:1032D0006374696F6E2000446576696174696F6E0E
:1032E0000025533A202573005374616E6461726443
:1032F00020446576696174696F6E3A2000205261DE
:103300006E67653A2000204D61783A2000204D69B3
:103310006E3A20004D65616E3A200046696E697311
:10332000686564210A002072616E67653A2000209A
:103330006D61783A2000206D696E3A200020736933
:10334000676D613A2000206D65616E3A20003A2079
:103350007A3A2000206F662000476F696E672074FC
:103360006F3A20580043570A00206469723A0020DF
:10337000616E676C653A00537461727420726164A7
:103380006975733A004D343820506F696E740025AA
:10339000533A2025642F256400506F736974696F58
:1033A0006E696E67207468652070726F62652E2E7C
:1033B0002E0A003F4E756D626572206F66206C6547
:1033C000677320696E206D6F76656D656E74206E13
:1033D0006F7420706C61757369626C652028302D84
:1033E0003135292E0A003F2028582C5929206F7585
:1033F00074206F6620626F756E64732E0A003F53EF
:10340000616D706C652073697A65206E6F742070D1
:103410006C61757369626C652028342D3530292EF6
:103420000A004D3438205A2D50726F626520526563
:10343000706561746162696C697479205465737434
:103440000A003F2856296572626F7365206C6576A5
:10345000656C20696D706C61757369626C6520289C
:10346000302D34292E0A0050574D3A20202534643F
:103470000050574D3A20202534640050574D3A20D3
:10348000202534640050574D3A20202534640050E4
:10349000574D3A20202534640050574D3A202025BE
:1034A00034640050574D3A20202534640050574D65
:1034B0003A20202534640050574D3A2020253464AA
:1034C0000050574D3A20202534640050574D3A2083
:1034D000202534640050574D3A2020253464005094
:1034E000574D3A20202534640050574D3A2020256E
:1034F00034640050574D3A20202534640050574D15
:103500003A2020253464003A200020202020434F18
:103510004D002020206E6F6E2D7374616E64617299
:10352000642050574D206D6F646500202020636F2C
:103530006D7061726520696E746572727570742049
:10354000656E61626C6564002020206F766572662E
:103550006C6F7720696E7465727275707420656E19
:1035600061626C6564003A20002020202054494D9F
:10357000534B00423A200020202020544343520065
:10358000413A200020202020544343520020202094
:103590002043533A20002020202057474D3A200056
:1035A00050574D3A20202534640050574D3A202082
:1035B0002534640047004800000088008A008C0021
:1035C000B300B400000098009A009C00A800AA0074
:1035D000AC0028012A012C012020202054494D450F
:1035E0005200440045006E00800081006F00B00072
:1035F000B1007000900091007100A000A100720065
:1036000020012101730020697320616C736F2074A5
:1036100069656420746F20746869732070696E0036
:1036200054494D45523143000A202E0020200020ED
:1036300020506F72743A200020202000202020416A
:103640006E616C6F6720696E203D2025356C6400CB
:103650003C756E757365642F756E6B6E6F776E3E1D
:1036600000202841253264292020002533642000D1
:10367000257350494E3A20004F7574707574203D83
:103680002000496E70757420203D2000416E616CF1
:103690006F6720696E203D2025356C640070726F65
:1036A00074656374656420002028412532642920F4
:1036B00020002533642000257350494E3A200072C3
:1036C0002400016D24010160243201532433014799
:1036D0002434013C2435013124250129241F0121F2
:1036E000242101192423010D24330102243401F77C
:1036F000232801EC232A01E1232C01D1230601C751
:10370000232A01BC231C01AE231801A2231A019213
:1037100023060188232C017D2322016F231E0163D0
:103720002324015B2309014C2304013F230A0132B6
:10373000230701232308011A2329010E231701025D
:10374000231901F6221B01EA221D01DA221101CE02
:10375000221001C6220D01B7224201AE223201A180
:1037600022070198223301832206016E22060159A5
:103770002206014422060136220A01292208011CE0
:10378000220901142234010622310101223501F6F9
:10379000210F01EB210601E0210501D5210401CE15
:1037A000213501C5213501BB213701AE212601A4F8
:1037B000210301992136018E210301852131017BED
:1037C000213D016E21380164210E0159213C014E39
:1037D000210E01452128013B2130012E213E0124EB
:1037E0002113011A2112010F212E0104211201F4CB
:1037F000201301E4200601D4200901446F6E652ED8
:103800000A0066616C7365004641494C3A204E6F70
:103810002074726967676572206465746563746596
:10382000640A004641494C3A204E6F697365206432
:1038300065746563746564202D20706C65617365C3
:103840002072652D72756E20746573740A00206491
:10385000657465637465642E0A003D20424C546FA4
:10386000756368207072652056332E3120286F7280
:1038700020636F6D70617469626C6529003D205A28
:1038800020536572766F2050726F6265003D204252
:103890004C546F7563682056332E310020282B2F2F
:1038A0002D20346D73293A20003A2033306D732077
:1038B0006F72206D6F72650A002E2050756C7365F3
:1038C000207769647468002A2A20506C65617365EA
:1038D00020747269676765722070726F6265207705
:1038E000697468696E20333020736563202A2A0A60
:1038F000004641494C3A20424C544F5543482065BC
:103900006E61626C6564202D205365742075702093
:1039100074686973206465766963652061732061EA
:1039200020536572766F2050726F626520776974DC
:103930006820494E56455254494E472073657420BD
:10394000746F202774727565272E0A002020444565
:10395000504C4F5945442073746174653A204C4F64
:103960005720286C6F676963203029002020444568
:10397000504C4F5945442073746174653A2048494E
:10398000474820286C6F676963203129003D204D2E
:10399000656368616E6963616C20537769746368FD
:1039A0002064657465637465640A005741524E492A
:1039B0004E473A20494E56455254494E472073656A
:1039C0007474696E672070726F6261626C792062D4
:1039D00061636B77617264732E0A002E20446570F8
:1039E0006C6F7920262073746F7720342074696D92
:1039F00065730A003D20424C546F75636820436C28
:103A0000617373696320312E322C20312E332C20C8
:103A1000536D61727420312E302C20322E302C20C8
:103A2000322E322C20332E302C20332E3120646560
:103A30007465637465642E0A002E20436865636BA9
:103A400020666F7220424C544F5543480A002E2086
:103A50005A5F4D494E5F50524F42455F454E445369
:103A6000544F505F494E56455254494E473A2000F4
:103A70002E2050726F6265205A5F4D494E5F505242
:103A80004F42455F50494E3A20002C2073746F77A7
:103A900020616E676C653A202020002C20646570E0
:103AA0006C6F7920616E676C653A200053657276A1
:103AB0006F2070726F626520746573740A2E2075B2
:103AC00073696E6720696E6465783A2020005761DB
:103AD000746368696E672070696E730A0064697345
:103AE00000656E0061626C65640A00656E647374E3
:103AF0006F70206D6F6E69746F722000290A00204C
:103B00004B0028536C6F742000204B002053004161
:103B10006476616E63652054003F4C2076616C755D
:103B200065206F7574206F662072616E676520284E
:103B3000302D3130292E0A003F4B2076616C75659F
:103B4000206F7574206F662072616E676520283063
:103B50002D3130292E0A003F542076616C75652086
:103B60006F7574206F662072616E67652E0A004D56
:103B70003630303A20546F6F20436F6C6400486FCA
:103B800074656E6420746F6F20636F6C640A0050FC
:103B90007265737320627574746F6E20746F206821
:103BA000656174206E6F7A7A6C650A0020496E76C2
:103BB000616C696420657874727564657220004771
:103BC000322F47332062616420706172616D6574C9
:103BD0006572730A00536C6565702E2E2E00205A94
:103BE0003A200020593A200042656420583A2000CB
:103BF0004D65736820706F696E742063616E6E6FBF
:103C000074206265207265736F6C7665640A004388
:103C10006C69636B20746F20526573756D652E2E11
:103C20002E004E6F204D6F76652E0025697300259E
:103C3000696D20256973002569682025696D202537
:103C4000697300256964202569682025696D202530
:103C50006973002569792025696420256968202514
:103C6000696D20256973005072696E742074696DE6
:103C7000653A2000436F6F6C696E672E2E2E0048E8
:103C8000656174696E672E2E2E00452563202553CD
:103C9000006F6B006F666600982493248C24852443
:103CA000772444454255473A004D3131322053681C
:103CB0007574646F776E0042656420436F6F6C6942
:103CC0006E672E2E2E004265642048656174696E11
:103CD000672E2E2E00503830324E5232204F46463C
:103CE0002E004348414D4245525F54454D50455288
:103CF0004154555245004D4F54494F4E5F4D4F442E
:103D0000455300544845524D414C5F50524F544525
:103D10004354494F4E004155544F5245504F525411
:103D20005F53445F5354415455530050524F4D50CC
:103D3000545F535550504F525400454D45524745DE
:103D40004E43595F50415253455200434153455FE2
:103D50004C494748545F4252494748544E45535393
:103D600000544F47474C455F4C4947485453005314
:103D70004F4654574152455F504F574552004255A8
:103D8000494C445F50455243454E54004C455645BE
:103D90004C494E475F44415441005A5F50524F4294
:103DA00045004155544F4C4556454C005052494EE4
:103DB000545F4A4F420050524F47524553530041BF
:103DC00055544F5245504F52545F54454D50005634
:103DD0004F4C554D455452494300454550524F4D67
:103DE0000042494E4152595F46494C455F54524149
:103DF0004E534645520053455249414C5F584F4E31
:103E00005F584F4646004649524D574152455F4E16
:103E1000414D453A4D61726C696E20322E302E3420
:103E20002E3420284769744875622920534F555213
:103E300043455F434F44455F55524C3A6874747034
:103E4000733A2F2F6769746875622E636F6D2F4DFB
:103E500061726C696E4669726D776172652F4D6132
:103E6000726C696E2050524F544F434F4C5F564511
:103E70005253494F4E3A312E30204D414348494E1E
:103E8000455F545950453A503830324E52322045F1
:103E9000585452554445525F434F554E543A322080
:103EA000555549443A63656465326132662D343153
:103EB00061322D343734382D396231322D63353546
:103EC0006336326633363766660A002F2F20004D80
:103ED00031343520533C696E6465783E206F7574CB
:103EE000206F662072616E67652028302D31290AA7
:103EF00000416363656C65726174696F6E0046654D
:103F000065647261746500205200416363656C658D
:103F1000726174696F6E3A2050003F4A206F757469
:103F2000206F662072616E67652028302E30312048
:103F3000746F20302E33290A004F4646004F4E0042
:103F400020204D61783A2000200020204D696E3AF3
:103F50002000536F667420656E6473746F70733ADB
:103F60002000486F74656E64206F666673657473B5
:103F70003A0020466C6F773A200050726F74656388
:103F80007465642050696E0A003A200020536572FF
:103F9000766F2000206F7574206F662072616E67E7
:103FA000650A00536572766F2000496E76616C6910
:103FB000642065787472756465720A0020643A0042
:103FC00020693A0020703A0020653A006469730065
:103FD000656E0043290A0061626C656420286D6982
:103FE0006E2074656D702000436F6C64206578747A
:103FF00072756465732061726520004D6573682079
:10400000706F696E742063616E6E6F7420626520DC
:104010007265736F6C7665640A004D3432312069C5
:104020006E636F727265637420706172616D657426
:1040300065722075736167650A00454550524F4DA2
:10404000204F4B0A00446966663A200046726F6D45
:104050005374703A00537465707065723A00556E0F
:104060004C6576656C3A004C6576656C65643A0023
:104070005261773A20202020000A4C6F6769636103
:104080006C3A00436F756E7420453A004361703A94
:104090000050726F62696E67204661696C65640AE0
:1040A0000050726F62696E67204661696C656400DA
:1040B000205A3A200020593A200042656420583A9C
:1040C0002000290A0020746F20003F5A206F757469
:1040D000206F662072616E6765202800290A002023
:1040E000746F20003F59206F7574206F66207261D5
:1040F0006E676520282D00290A0020746F20003F7C
:1041000058206F7574206F662072616E6765202875
:104110002D0050726F6265204F666673657420587B
:1041200000220A00656E7175657565696E672022EB
:10413000006F6B00526573656E643A2000236465FE
:1041400066696E652044454641554C545F004B649A
:1041500020004B6920004B702000504944204175DD
:10416000746F74756E652066696E69736865642125
:104170002050757420746865206C617374204B70D6
:104180002C204B6920616E64204B6420636F6E733A
:1041900074616E74732066726F6D2062656C6F77E8
:1041A00020696E746F20436F6E6669677572617403
:1041B000696F6E2E680A00504944204175746F740F
:1041C000756E65206661696C6564212074696D6532
:1041D0006F75740A00504944204175746F74756E90
:1041E00065206661696C6564212054656D70657237
:1041F000617475726520746F6F20686967680A0062
:10420000204B643A2000204B693A2000204B703A42
:1042100020000A20436C6173736963205049442075
:104220000A00204B643A2000204B693A2000204BC2
:10423000703A20000A204E6F206F76657273686FA7
:104240006F740A002054753A2000204B753A200004
:10425000206D61783A2000206D696E3A200020645C
:104260003A200020626961733A200050494420419D
:1042700075746F74756E652073746172740A005082
:104280004944204175746F74756E65206661696C70
:104290006564212054656D70657261747572652066
:1042A000746F6F20686967680A005049442041753F
:1042B000746F74756E65206661696C656421204257
:1042C0006164206578747275646572206E756D62C4
:1042D00065720A004572723A207574663820666FFE
:1042E0006E74206E6F7420696E697469616C697A8E
:1042F00065642E004572723A207574663820666FC8
:104300006E74206E6F7420696E697469616C697A6D
:1043100065642E004572723A207574663820666FA7
:104320006E74206E6F7420696E697469616C697A4D
:1043300065642E002568753A253032687500253091
:104340003268753A25303268750025687564202515
:10435000303268753A253032687500000C0D00FE69
:1043600007022603BC017FFE08FE08FE05080806BA
:10437000000040F0C88888987810050808060000FA
:10438000C0F88888888888F805050506000120306F
:10439000F830200508080600002070F820202020B2
:1043A000E00509090600FF2070A8A8B888887020D9
:1043B000050606060001E08CEA8C8A0A0509090652
:1043C00000FFF8A88888888888A8F8050A0A0600E7
:1043D000FE205050505088A8A888700303030600A0
:1043E0000340A040FFFFFFFFFFFFFFFFFFFFFFFFB6
:1043F000FFFFFFFFFFFFFFFFFFFF0000000605FFBD
:10440000010707060200808080808000800303038C
:10441000060105A0A0A005060606000050F85050B1
:10442000F8500509090600FF2070A8A07028A870A0
:1044300020050707060000C8C81020409898050707
:104440000706000040A0A040A890680103030602F0
:10445000058080800309090601FF2040408080809C
:104460004040200309090601FF80404020202040F1
:10447000408005070706000020A8702070A82005CE
:1044800005050600012020F820200203030601FF95
:10449000C04080050101060003F802020206010087
:1044A000C0C0050707060000081010204040800526
:1044B0000707060000708898A8C8887003070706D9
:1044C000010040C040404040E00507070600007082
:1044D0008808102040F8050707060000F80810308B
:1044E00008887005070706000010305090F810107B
:1044F000050707060000F880F00808887005070720
:10450000060000304080F08888700507070600002C
:10451000F808101020202005070706000070888882
:104520007088887005070706000070888878081072
:1045300060020505060100C0C000C0C002060606F4
:1045400001FFC0C000C040800305050601012040F6
:10455000804020050303060002F800F80305050665
:104560000101804020408005070706000070881088
:10457000202000200507070600007088B8A8B88032
:1045800070050707060000708888F8888888050786
:1045900007060000F04848704848F0050707060085
:1045A0000070888080808870050707060000F0484A
:1045B00048484848F0050707060000F88080F0806A
:1045C00080F8050707060000F88080F080808005ED
:1045D0000707060000708880809888700507070626
:1045E0000000888888F8888888030707060100E0AB
:1045F0004040404040E0050707060000381010101A
:104600001090600507070600008890A0C0A0908861
:10461000050707060000808080808080F805070776
:1046200006000088D8A88888888805070706000043
:104630008888C8A8988888050707060000708888B9
:1046400088888870050707060000F08888F0808059
:104650008005070706000070888888A8906805070D
:1046600007060000F08888F0A0908805070706007C
:104670000070888070088870050707060000F82021
:1046800020202020200507070600008888888888C9
:104690008870050707060000888888885050200524
:1046A000070706000088888888A8A850050707061D
:1046B0000000888850205088880507070600008879
:1046C000885020202020050707060000F808102049
:1046D0004080F80309090601FFE080808080808027
:1046E00080E0050707060000804040201010080306
:1046F00009090601FFE020202020202020E00503FA
:10470000030600052050880501010600FEF803039A
:1047100003060105804020050505060000700878A5
:1047200088780507070600008080F0888888F005F3
:1047300005050600007080808870050707060000E8
:10474000080878888888780505050600007088F0D4
:104750008070050707060000304840E040404005F3
:1047600007070600FE708888887808700507070626
:1047700000008080F08888888803070706010040D1
:1047800000C0404040E00409090601FE100030105E
:10479000101010906005070706000080808890E0E8
:1047A0009088030707060100C04040404040E005F4
:1047B0000505060000D0A8A8A8A805050506000064
:1047C000B0C888888805050506000070888888704C
:1047D0000507070600FEF0888888F0808005070737
:1047E0000600FE7888888878080805050506000018
:1047F000B0C880808005050506000078807008F04C
:104800000507070600002020F820202018050505D0
:1048100006000088888898680505050600008888D5
:104820008850200505050600008888A8A8500505C1
:104830000506000088502050880507070600FE88FE
:10484000888850204080050505060000F8102040AB
:10485000F80309090601FF20404040804040402005
:104860000109090602FF80808080808080808003AB
:1048700009090601FF804040402040404080050378
:104880000306000248A890FF1FE020102310249088
:1048900010A011202210241037B00840048003001B
:1048A0001FE02010211023101520112021102110AD
:1048B00031300840048003001FE03FF03CF03B70C3
:1048C0001F601EE03DF03BF038700FC00780030012
:1048D0001FE03FF03EF03CF01AE01EE03EF03EF0FC
:1048E0003EF00FC0078003005072696E7420506163
:1048F00075736564004578747275646572202A006A
:104900004578747275646572004D6F7665205A0043
:104910004D6F76652059004D6F76652058004F66C3
:1049200066004F6E00536F667420456E6473746F3B
:104930007073004D6F74696F6E004D3834004469B8
:104940007361626C652053746570706572730047A3
:1049500032380A4D343820503130004D3438205030
:10496000726F62652054657374004C6576656C20C7
:10497000436F726E65727300556E69666965642077
:10498000426564204C6576656C696E670047323815
:10499000205A00486F6D65205A0047323820590070
:1049A000486F6D65205900473238205800486F6DB8
:1049B000652058004175746F20486F6D65004D6F1C
:1049C00076652041786973004D61696E00507265AB
:1049D0006865617420504C4120416C6C00507265D8
:1049E0006865617420504C412042656400507265D6
:1049F0006865617420504C4120456E64207E0050F3
:104A000072656865617420504C41207E005072656B
:104A1000686561742041425320416C6C005072659E
:104A2000686561742041425320426564005072659C
:104A3000686561742041425320456E64207E0050B9
:104A400072656865617420414253207E0054656D33
:104A5000706572617475726500436F6F6C646F7717
:104A60006E00507265686561742041425300507257
:104A7000656865617420504C410046616E2053703A
:104A800065656400426564004E6F7A7A6C65207ECD
:104A9000004D61696E00416476616E6365204B2054
:104AA0002A00466C6F77207E00466C6F7700466167
:104AB0006E20537065656400426564004E6F7A7ABB
:104AC0006C65207E005370656564004D61696E0001
:104AD00000FE0003FF8007C7C00701E00000E00000
:104AE00000F00000700400700E00701F00703F8026
:104AF000F00E00E00F01E007C7C003FF8000FE00DA
:104B000000FE0003FF8007C7C00F01E00E00E03F7A
:104B100080F01F00700E0070040070000070000034
:104B2000F00000E00701E007C7C003FF8000FE00BF
:104B30000E000E000E000E000E000E000E000E0005
:104B40007FC03F801F000E00040004000E001F0005
:104B50003F807FC00E000E000E000E000E000E0003
:104B60000E000E00FFFFFF7F80FFC0FFC0FFC07F71
:104B7000807F80FFC0FFC0FFC03F001E000C004DC3
:104B800065736820456469746F720047323920503C
:104B900031004D31303920532569004D31393020F5
:104BA000532569004265642054656D7000486F7438
:104BB000656E642054656D70002E2569004732399A
:104BC0002050362043202D004865696768742041D5
:104BD0006D6F756E740041646A757374204D6573F2
:104BE000682048656967687400473239205034206E
:104BF000540046696E652054756E6520436C6F7372
:104C000065737400473239205034205239393920C5
:104C1000540046696E652054756E6520416C6C00C9
:104C2000473236204320422569204825692050001C
:104C300056616C696461746520437573746F6D208F
:104C40004D657368004732380A47323620432042A8
:104C5000313130204832343020500056616C696464
:104C6000617465204D6573682028414253290047CF
:104C700032380A4732362043204236352048323215
:104C80003020500056616C6964617465204D657315
:104C9000682028504C412900473239204A256900B4
:104CA0004C6576656C204D657368005369646520BA
:104CB000506F696E74730047726964204D65736844
:104CC000204C6576656C696E6700473239204A3042
:104CD00000332D506F696E74204C6576656C696E7B
:104CE0006700473239205033205220432E25690077
:104CF0004732392050322042205430004D616E75C9
:104D0000616C2046696C6C2D696E00473239205009
:104D10003320543000536D6172742046696C6C2DE1
:104D2000696E0046696C6C2D696E20416D6F756E01
:104D300074004D65736820696E76616C6964617496
:104D400065642E0A00496E666F2053637265656E56
:104D500000473239204900496E76616C696461749C
:104D60006520436C6F7365737400496E76616C697E
:104D70006461746520416C6C0047323920503120E9
:104D80004300436F6E74696E756520426564204D03
:104D90006573680046696C6C2D696E204D6573689B
:104DA000004732380A473239205031004275696C69
:104DB0006420436F6C64204D657368004275696CB4
:104DC0006420437573746F6D204D657368004732BE
:104DD000380A4D31393020533131300A4D313039B4
:104DE00020533234300A4732392050310A4D3130A5
:104DF000342053300A4D313430205330004275692D
:104E00006C64204D65736820284142532900473265
:104E1000380A4D313930205336350A4D313039207A
:104E2000533232300A4732392050310A4D31303452
:104E30002053300A4D313430205330004275696CB4
:104E400064204D6573682028504C4129004D313154
:104E500037204D657368202569204C6F6164656457
:104E600000473239204C2569004D313137204D65DE
:104E700073682025692053617665640047323920C4
:104E8000532569005361766520426564204D657342
:104E900068004C6F616420426564204D6573680052
:104EA0004D656D6F727920536C6F74004E6F205397
:104EB000746F7261676500486F6D696E672058593D
:104EC0005A00473239205034205825732059257311
:104ED0002052256900202D2D2D2D2D004732380020
:104EE00047323920532D31004F6666205072696E6B
:104EF000746572204261636B7570004732392054CB
:104F000031004F757470757420666F72204353566C
:104F100000473239205430004F7574707574206624
:104F20006F7220486F7374004D657368204C65760E
:104F3000656C696E670045646974204D657368002F
:104F400056616C6964617465204D65736800473211
:104F50003920493939390A47323920503220422024
:104F60005430004D616E75616C6C79204275696CCE
:104F700064204D657368004275696C64204D6573EB
:104F80006800372E205361766520426564204D65A8
:104F9000736800473239205034205239393920544F
:104FA00000362E2046696E652054756E6520416C72
:104FB0006C00352E2056616C6964617465204D6506
:104FC000736800473239205034205239393920541F
:104FD00000342E2046696E652054756E6520416C44
:104FE0006C00332E2056616C6964617465204D65D8
:104FF00073680047323920503320543000322E205D
:10500000536D6172742046696C6C2D696E00473275
:10501000380A47323920503100312E204275696CF0
:105020006420436F6C64204D65736800556E69663B
:1050300069656420426564204C6576656C696E67BD
:1050400000466164652048656967687400473239C5
:105050002057004F75747075742055424C20496E6E
:10506000666F0055424C20546F6F6C73004F75741F
:10507000707574204D657368204D6170004D6573C7
:10508000682053746F72616765004D6573682045D1
:1050900064697400537465702D42792D5374657082
:1050A0002055424C004732392041004163746976F3
:1050B0006174652055424C004732392044004465F4
:1050C00061637469766174652055424C004D6F745C
:1050D000696F6E00A0488848D048B8483FFFF03854
:1050E000007030FC3020FC102078102030102C0094
:1050F000D02E31D02F7BD02F7BD02E31D02C00D092
:1051000020301020781020FC1030FC303800703F28
:10511000FFF03FFFF038007031863023871027877B
:10512000902F87D02F03D0203010207810207810B7
:105130002030102F03D02F87D0278790238710315E
:1051400086303800703FFFF01FFFF81FFFF8041093
:10515000400208200208200410400820801041006E
:105160001041000820800410400000001FFFF81FBD
:10517000FFF8503830324E52322052656164792E39
:10518000005072696E74696E672E2E2E00290A0017
:105190002062797465733B206372632000536574E9
:1051A00074696E67732053746F7265642028004EB3
:1051B0006F20454550524F4D2E0A00454550524FE5
:1051C0004D206461746173697A65206572726F72D3
:1051D0002E0A003F4D65736820746F6F2062696707
:1051E00020666F7220454550524F4D2E0A005542A1
:1051F0004C2072657365740A00206C6F616465648D
:105200002066726F6D2073746F726167652E0A007D
:105210004D65736820002E0A003F43616E2774209D
:10522000656E61626C65200020696E697469616CED
:10523000697A65642E0A0A00290A00206279746579
:10524000733B2063726320002073746F7265642067
:1052500073657474696E67732072657472696576BC
:105260006564202800202863616C63756C61746537
:105270006429210A0020213D2000454550524F4D10
:1052800020435243206D69736D61746368202D2043
:105290002873746F7265642920002053697A653A17
:1052A0002000496E6465783A2000204D61726C6977
:1052B0006E3D563736290A00454550524F4D2076EF
:1052C000657273696F6E206D69736D6174636820B8
:1052D00028454550524F4D3D004E6F204545505298
:1052E0004F4D2E0A00454550524F4D20496E69746E
:1052F00069616C697A65640A004D65736820736141
:1053000076656420696E20736C6F7420003F556E63
:1053100061626C6520746F2073617665206D6573C2
:105320006820646174612E0A0020736C6F743D0004
:10533000206D65736865735F656E643D0045324539
:105340004E443D00206D65736820736C6F7473204C
:10535000617661696C61626C652E0A003F496E7608
:10536000616C696420736C6F742E0A004D657368FC
:10537000206C6F616465642066726F6D20736C6F62
:105380007420003F556E61626C6520746F206C6FF5
:105390006164206D65736820646174612E0A004841
:1053A000617264636F6465642044656661756C74E2
:1053B0002053657474696E6773204C6F6164656413
:1053C0000A0000004843000048430000204200005B
:1053D0004842142EA042856BA0423D6AC74300801C
:1053E000C042E2040000E2040000E204000088136E
:1053F0000000556E696669656420426564204C65ED
:1054000076656C696E67003B20003A0A0020204DEB
:10541000363033200020204D3432352046004261A2
:10542000636B6C61736820636F6D70656E7361741C
:10543000696F6E3A00546F6F6C2D6368616E6769B7
:105440006E673A002055005431204C00205500541E
:1054500030204C0046696C616D656E74206C6F6124
:10546000642F756E6C6F6164206C656E6774687311
:105470003A00204B0020204D3930302054004C6938
:105480006E65617220416476616E63653A0020202A
:105490004D3835312058005A2D50726F6265204FBB
:1054A00066667365740020204D3230392053004108
:1054B00075746F2D526574726163743A20533D3078
:1054C00020746F2064697361626C652C20312074D4
:1054D0006F20696E7465727072657420452D6F6EF1
:1054E0006C79206D6F7665732061732072657472BC
:1054F0006163742F7265636F7665720020460020C9
:10550000570020204D3230382053005265636F76AB
:1055100065723A20533C6C656E6774683E20463C69
:10552000756E6974732F6D3E002046002057002071
:10553000204D323037205300526574726163743AE3
:1055400020533C6C656E6774683E20463C756E69FE
:1055500074732F6D3E205A3C6C6966743E00204483
:105560000020490020500020204D333031204500DC
:105570005049442073657474696E67733A0020461D
:105580000020420020480020204D313435205300B7
:105590004D6174657269616C206865617475702015
:1055A000706172616D65746572733A00206D657328
:1055B0006865732E0A0A00454550524F4D206361BD
:1055C0006E20686F6C642000416374697665204DBD
:1055D00065736820536C6F743A200020204D34327C
:1055E000302053000020580020204D323138205404
:1055F00000486F74656E64206F6666736574733AF5
:1056000000204A0020530020204D32303520420037
:10561000416476616E6365643A20423C6D696E5FF9
:105620007365676D656E745F74696D655F75733EF4
:1056300020533C6D696E5F66656564726174653E9A
:1056400020543C6D696E5F74726176656C5F66654F
:105650006564726174653E204A3C6A756E635F647E
:1056600065763E0020520020204D3230342050001C
:10567000416363656C65726174696F6E2028756E35
:105680006974732F7332293A20503C7072696E74BA
:105690005F616363656C3E20523C72657472616346
:1056A000745F616363656C3E20543C74726176651F
:1056B0006C5F616363656C3E0020204D32303120A9
:1056C00058004D6178696D756D20416363656C6547
:1056D000726174696F6E2028756E6974732F7332EE
:1056E000293A0020204D3230332058004D6178692E
:1056F0006D756D20666565647261746573202875CB
:105700006E6974732F73293A005374657073207037
:10571000657220756E69743A0020204D3230302059
:1057200044300A0020440020540020204D32303004
:10573000002044697361626C65640A0046696C61AB
:105740006D656E742073657474696E67733A0020BA
:10575000204D3134392043203B20556E697473202D
:10576000696E2043656C736975730A0020286D6D3E
:1057700029002020473231202020203B20556E690F
:10578000747320696E206D6D00486F6D696E6720BF
:105790004661696C6564006F70656E0054524947DC
:1057A0004745524544003A20007A5F70726F626547
:1057B000007A5F6D6178007A5F6D696E00795F6D68
:1057C000696E00785F6D696E005265706F72746902
:1057D0006E6720656E6473746F7020737461747586
:1057E000730A00205A3A0020593A0020436F756E20
:1057F0007420583A0020453A00205A3A0020593A7D
:1058000000583A0000005B4300005B430000664321
:10581000000020C2000000000000000020746F6F34
:10582000206C6F6E6720657874727573696F6E2077
:1058300070726576656E7465640A0020636F6C64CF
:1058400020657874727573696F6E20707265766505
:105850006E7465640A00000020C2000000000000B1
:10586000000000004842000048420000204157610B
:10587000726E696E673A20486F6D696E6720427577
:105880006D702044697669736F72203C20310A0084
:105890000202040000A0400000A040000000400000
:1058A00080814300005B4300006643FFFFFF000070
:1058B0000001000000010000800055555500000067
:1058C000400033333300AAAA2A0049922400000082
:1058D0002000C7711C0099991900D1451700555532
:1058E00015003BB1130024491200111111000000F2
:1058F00010000F0F0F00E3380E0043790D00CCCCE1
:105900000C00C3300C00E8A20B0064210B00AAAA13
:105910000A00703D0A009DD80900427B09009224CC
:105920000900DCD308008888080010420800000045
:105930000800F0C107008787070075500700711C39
:1059400007003EEB0600A1BC0600699006006666F3
:105950000600703E06006118060017F4050074D1B9
:1059600005005BB00500B290050062720500555558
:10597000050078390500B81E0500050505004EEC48
:10598000040087D40400A1BD040090A7040049923C
:105990000400C17D0400EE690400C75604004444BD
:1059A00004005C32040008210400411004000000DF
:1059B00004003FF00300F8E0030026D20300C3C355
:1059C0000300CCB503003AA803000A9B0300388EFD
:1059D0000300C08103009F750300D0690300505E7F
:1059E00003001D53030034480300913D030033338B
:1059F000030016290300381F030097150300300C1D
:105A00000300030303000BFA020049F10200BAE8A5
:105A100002005CE002002DD802002DD0020059C81F
:105A20000200B0C0020031B90200DAB10200AAAA35
:105A30000200A0A30200BC9C0200FA9502005C8F49
:105A40000200DF88020082820200457C0200277685
:105A5000020027700200436A02007C640200D05EEC
:105A600002003F590200C85302001000C902100191
:105A70002C014001220170011801B0010E01F0015A
:105A800004015002FA00B002F0003003E600D00337
:105A9000DC009004D2007005C800A006BE0000081B
:105AA000B400B009AA00D00BA000600E96006011EF
:105AB0008C000015820020197800C01D6E00A02205
:105AC0006400B0275A00902C500000314600E034AA
:105AD0003C0010383200903A2800603C1E00A03D87
