:100000000C94EB370D94F8360D94CD360D94A23642
:100010000D9477360D944C360D9421360D94F635AB
:100020000D94CB350C94E3E60C94E3E60C94E3E6F4
:100030000C941C380D9409330C941C380C941C3807
:100040000C941C380D9406560C941C380C941C38D7
:100050000C941C380C941C380D94D3400D948135AD
:100060000C941C380C941CCA0C9412CA0C941C38A6
:100070000C941C380C941C380C941C380C941C38B0
:100080000C94405A0C941C380C941C380C941C385A
:100090000C941C380C941C380C941C380C941C3890
:1000A0000C941C380C941C380C94125A0C941C3868
:1000B0000C941C380C941C380C941C380C94E45987
:1000C0000C941C380C941C380C941C380C941C3860
:1000D0000C941C380C941C380C941C380C941C3850
:1000E0000C941C38084AD73B3BCE016E84BCBFFD44
:1000F000C12F3D6C74319ABD56833DDA3D00C77FF8
:1001000011BED9E4BB4C3E916BAAAABE0000008090
:100110003F05A84CCDB2D44EB93836A9020C50B91F
:10012000918688083CA6AAAA2ABE000000803F0744
:10013000634236B79BD8A71A39685618AEBAAB5582
:100140008C1D3CB7CC5763BD6DEDFD753EF6177247
:1001500031BF000000803F08000000BE9224491219
:100160003EABAAAA2ABECDCCCC4C3E00000080BE3D
:10017000ABAAAAAA3E00000000BF000000803F001A
:1001800000000000084178D3BB4387D1133D190E0E
:100190003CC3BD4282AD2B3E68EC8276BED98FE176
:1001A000A93E4C80EFFFBE01C4FF7F3F000000006E
:1001B00000000D9456750D94E08D0D943C440D9403
:1001C00072800D94C78D0D94847C0D940A0C0D944F
:1001D000C28D0D94DF420D94B5760D94E7700D94A9
:1001E000677D0D9486070D94797D0D94A9340D9447
:1001F00019860D94757D0D94C1710D9449240D944B
:1002000059240D94767D0D94547D0D94B3340D9442
:10021000CC8D0D946F240D9429440D9441440D947C
:100220009F760D94727C0D9495340D943A760D94CE
:1002300096990D9417860D94A8710D94C1750D941F
:1002400075240D94617D0D943B760D9491740D94FD
:1002500054440D94F5720D945D710D945D240D94CC
:10026000B88D0D9461240D9444710D947E7C0D9491
:1002700044340D94E4820D9415860D943E240D941F
:10028000D68D0D94FD0A0D94B19C0D94F27C0D94C5
:1002900079750D94817C0D942F7D0D945E7D0D9468
:1002A000647D0D94E0820D943D760D9469870D94E4
:1002B000DB8D0D94EA8D0D94CB0D0D94DC820D94A5
:1002C00081340D944C350D94E8820D94E67F0D94A5
:1002D0006B240D94E87C0D94DD790D9446240D94E7
:1002E00074240D944C340D940B750D94757C0D9401
:1002F000827A0D94AD760D94D0700D9421340D94C6
:100300003F760D943C760D94A8750D9472340D943F
:100310008A7C0D94EF420D94447F0D9426340D9405
:10032000DE7C0D94D18D0D947E700D94B3730D947D
:10033000EF8D0D94FE700D94877C0D94F8240D9430
:10034000CE0E0D941D440D946D7D0D9467240D9477
:100350005E760D9429710D944CA20D94A2240D94F7
:1003600080950D94F78E0D94A8930D947B7C0D943D
:1003700076750D94EB8B0D941B910D943A340D947E
:10038000E6230D94A00F0D94787C0D94107D0D94B0
:100390008B340D94C27E0D9468340D9434240D94E6
:1003A00030340D9480700D9442240D9494740D9407
:1003B000207A0D947C750D948F710D94B9700D9405
:1003C000DA710D941C7A0D9459440D945F8B0D9441
:1003D000ED7C0D944F240D94BE7E0D9490090D94E8
:1003E0008F750D9453240D9419340D9454340D9439
:1003F0004F900D9400720D94707D0D949F340D9468
:1004000072110D94E58D0D947CA70D9483740D9459
:1004100041760D9421860D944FA90D94E9230D94F6
:10042000BD8D0D946C700D9439760D94C67E0D942F
:1004300095900D94A8010D94CA740D94ED710D94CE
:10044000E7230D9419720D94C7A60D942B760D9485
:1004500043760D9476710D946A7D0D9430130D944E
:1004600079240D945E340D949BA40D9413A10D94E6
:10047000E37C0D943A240D942C724E414E494E4922
:100480005459494E46CDCCCC3D0AD7233C17B7D161
:100490003877CC2B329595E6241FB14F0A00002007
:1004A000410000C84200401C4620BCBE4CCA1B0E86
:1004B0005AAEC59D7400407A10F35A00A0724E18CF
:1004C000090010A5D4E80000E87648170000E40B06
:1004D00054020000CA9A3B000000E1F505000080CC
:1004E000969800000040420F000000A08601000026
:1004F00000102700000000E8030000000064000076
:100500000000000A00000000000100000000002CB4
:1005100076D888DC674F0823DFC1DFAE59E1B1B779
:1005200096E5E3E453C63AE651997696E8E6C28446
:1005300026EB898C9B62ED407C6FFCEFBC9C9F405E
:10054000F2BAA56FA5F490055A2AF75C936B6CF983
:10055000676DC11BFCE0E40D47FEF520E6B500D059
:10056000ED902E0300943577050080841E0800006E
:10057000204E0A000000C80C333333330F986E123C
:10058000831141EF8D2114893BE65516CFFEE6DB42
:1005900018D1844B381BF77C1D901DA4BBE424208C
:1005A0003284725E228100C9F124ECA1E53D274D21
:1005B0003231004D3233202573004D3234005072F9
:1005C000696E7465722073746F70706564206475F1
:1005D0006520746F206572726F72732E2046697881
:1005E00020746865206572726F7220616E64207578
:1005F0007365204D39393920746F207265737461C9
:1006000072742E202854656D706572617475726500
:100610002069732072657365742E20536574206998
:100620007420616674657220726573746172746996
:100630006E67290A0024F404D9201BC40C5C0E98B0
:1006400004C4095F0265077101F405F900FB04B3F6
:100650000048048700C1036900580355000303459F
:1006600000BE023A008402310053022A002902250A
:100670000004022000E4011C00C8011900AF0117AA
:100680000098011400840113007101100061011031
:100690000051010E0043010D0036010B002B010B30
:1006A0000020010B00150109000C010900030108DD
:1006B00000FB000800F3000800EB000700E4000660
:1006C00000DE000600D8000600D2000600CC0005BF
:1006D00000C7000500C2000500BD000400B9000409
:1006E00000B5000400B1000400AD000400A900043E
:1006F00000A5000300A20003009F0004009B00036C
:10070000009800030095000200930003009000038E
:10071000008D0002008B00030088000200860002AA
:100720000084000300810002007F0002007D0002BF
:10073000007B0002007900020077000100760002D1
:10074000007400020072000100710002006F0002DC
:10075000006D0001006C0002006A000100690002E7
:1007600000670001006600010065000100640002EE
:10077000006200010061000100600001005F0002F2
:10078000005D0001005C0001005B0001005A0001F7
:1007900000590001005800010057000100560001F7
:1007A00000550001005400010053000000530001F7
:1007B000005200010051000100500001004F0001F3
:1007C000004E0000004E0001004D0001004C0001F1
:1007D000004B0000004B0001004A000100490001ED
:1007E00000480000004800010047000100460000EA
:1007F00000460001004500000045000100440001E2
:1008000000430000004300010042000000420001DC
:10081000004100000041000100400001003F0000D5
:10082000003F0001003E0000003E0001003D0000CE
:10083000003D0001003C0000003C0000003C0001C5
:10084000003B0000003B0001003A0000003A0001BC
:1008500000390000003900010038000000380000B5
:1008600000380001003700000037000100360000AA
:1008700000360000003600010035000000350000A1
:100880000035000100340000003400000034000195
:10089000003300000033000000330001003200008C
:1008A0000032000000320001003100000031000081
:1008B0000031000100300000003000000030000175
:1008C000002F0000002F0000002F0000002F00016B
:1008D000002E0000002E0000002E0001002D000060
:1008E000002D0000002D0000002D0001002C000054
:1008F000002C0000002C0000002C0001002B000048
:10090000002B0000002B0000002B0001002A00003B
:10091000002A0000002A0000002A0001002900002F
:100920000029000000290000002900000029000122
:100930000028000000280000002800000028000017
:100940000028000100270000002700000027000009
:1009500000270000002700010026000000260000FC
:1009600000260000002600000026000100250000EF
:1009700000250000002500000025000000250000E3
:1009800000250001002400000024000000240000D5
:1009900000240000002400010023000000230000C8
:1009A00000230000002300000023000000230000BB
:1009B00000230001002200000022000000220000AD
:1009C000002200000022000000220001002100009F
:1009D0000021000000210000002100000021000093
:1009E0000021000000210001002000000020000084
:1009F0000020000000200000002000000020000077
:100A00000020000000200001001F0000001F000067
:100A1000001F0000001F0000001F0000001F00005A
:100A2000001F0001001E0000001E0000001E00004C
:100A3000001E00000024F4D43050C38E20C2A24017
:100A400017828B7011127A910D816CD90AA861E11D
:100A500008C7586607615143061E4B5D05C145A78F
:100A6000041A411104093D9803713931034036DB02
:100A70000265339102D4305402802E1D02632CEEA5
:100A800001752AC501B028A001102781018F2564B6
:100A9000012B244B01E0223401AC211F018D200DDC
:100AA00001801FFC00841EED00971DDF00B81CD2E2
:100AB00000E61BC600201BBC00641AB200B219A8D5
:100AC000000A19A0006A189900D117910040178BED
:100AD00000B516840031167E00B31579003A1573FF
:100AE00000C7146F0058146A00EE13660088136381
:100AF0000025135E00C7125B006C125700151254DC
:100B000000C111510070114F0021114B00D6104946
:100B1000008D1047004610440002104200C00F40F4
:100B200000800F3E00420F3C00060F3B00CB0E380A
:100B300000930E37005C0E3500270E3400F30D32A3
:100B400000C10D3100900D3000600D2E00320D2DD2
:100B500000050D2C00D90C2B00AE0C2900850C29AA
:100B6000005C0C2700350C27000E0C2600E80B2437
:100B700000C40B2400A00B23007D0B23005A0B2183
:100B800000390B2100180B2000F80A1F00D90A1E9B
:100B900000BB0A1E009D0A1D00800A1D00630A1C7E
:100BA00000470A1B002C0A1B00110A1A00F7091A39
:100BB00000DD091900C4091900AB091900920917D1
:100BC000007B091800630917004C09160036091646
:100BD00000200916000A091500F5081500E00814A0
:100BE00000CC081400B8081400A4081400900813DE
:100BF000007D0812006B0813005808120046081206
:100C00000034081100230811001208110001081116
:100C100000F0071000E0071000D0071000C0071018
:100C200000B0070F00A107100091070E0083070F07
:100C30000074070F0065070E0057070E0049070EE6
:100C4000003B070D002E070E0020070D0013070DB7
:100C50000006070D00F9060C00ED060D00E0060C7D
:100C600000D4060C00C8060C00BC060C00B0060C34
:100C700000A4060B0099060C008D060B0082060BE3
:100C80000077060B006C060B0061060A0057060B86
:100C9000004C060A0042060A0038060A002E060A20
:100CA0000024060A001A060A001006090007060AB0
:100CB00000FD050900F4050900EB050900E205093E
:100CC00000D9050900D0050900C7050900BE0509BE
:100CD00000B5050800AD050800A50509009C05083C
:100CE00000940508008C050800840508007C0508B0
:100CF00000740508006C050700650508005D050720
:100D000000560508004E0507004705070040050886
:100D10000038050700310507002A050700230507ED
:100D2000001C050600160507000F0507000805064C
:100D30000002050700FB040600F5040700EE0406A8
:100D400000E8040600E2040700DB040600D5040600
:100D500000CF040600C9040600C3040600BD040653
:100D600000B7040600B1040500AC040600A60406A2
:100D700000A00405009B04060095040500900406ED
:100D8000008A04050085040500800406007A040535
:100D90000075040500700405006B04050066040579
:100DA00000610405005C04050057040500520405B9
:100DB000004D04050048040500430405003E0404FA
:100DC000003A04050035040500300404002C040535
:100DD0000027040400230405001E0404001A040470
:100DE0000016040500110404000D040400090405A4
:100DF000000404040000040400FC030400F80304DD
:100E000000F4030400F0030400EC030400E803040E
:100E100000E4030400E0030400DC030400D803043E
:100E200000D4030400D0030400CC030400C803036F
:100E300000C5030300726F746174696F6E206D6189
:100E4000747269783A0A0024F404D9201BC40C5C3B
:100E50000E9804C4095F0265077101F405F900FBEF
:100E600004B30048048700C1036900580355000318
:100E7000034500BE023A008402310053022A0029D1
:100E800002250004022000E4011C00C8011900AF83
:100E90000117009801140084011300710110006112
:100EA00001100051010E0043010D0036010B002B13
:100EB000010B0020010B00150109000C01090003C2
:100EC000010800FB000800F3000800EB000700E445
:100ED000000600DE000600D8000600D2000600CCA6
:100EE000000500C7000500C2000500BD000400B9F0
:100EF000000400B5000400B1000400AD000400A926
:100F0000000400A5000300A20003009F0004009B52
:100F10000003009800030095000200930003009076
:100F20000003008D0002008B000300880002008691
:100F300000020084000300810002007F0002007DA7
:100F40000002007B000200790002007700010076B9
:100F50000002007400020072000100710002006FC4
:100F60000002006D0001006C0002006A00010069CF
:100F700000020067000100660001006500010064D6
:100F80000002006200010061000100600001005FDA
:100F90000002005D0001005C0001005B0001005ADE
:100FA00000010059000100580001005700010056DF
:100FB00000010055000100540001005300000053DF
:100FC0000001005200010051000100500001004FDB
:100FD0000001004E0000004E0001004D0001004CD9
:100FE0000001004B0000004B0001004A00010049D5
:100FF00000010048000000480001004700010046D1
:1010000000000046000100450000004500010044CA
:1010100000010043000000430001004200000042C4
:101020000001004100000041000100400001003FBC
:101030000000003F0001003E0000003E0001003DB6
:101040000000003D0001003C0000003C0000003CAE
:101050000001003B0000003B0001003A0000003AA4
:10106000000100390000003900010038000000389C
:101070000000003800010037000000370001003692
:101080000000003600000036000100350000003589
:10109000000000350001003400000034000000347E
:1010A0000001003300000033000000330001003273
:1010B0000000003200000032000100310000003169
:1010C000000000310001003000000030000000305E
:1010D0000001002F0000002F0000002F0000002F53
:1010E0000001002E0000002E0000002E0001002D47
:1010F0000000002D0000002D0000002D0001002C3C
:101100000000002C0000002C0000002C0001002B2F
:101110000000002B0000002B0000002B0001002A23
:101120000000002A0000002A0000002A0001002917
:10113000000000290000002900000029000000290B
:1011400000010028000000280000002800000028FE
:1011500000000028000100270000002700000027F1
:1011600000000027000000270001002600000026E4
:1011700000000026000000260000002600010025D7
:1011800000000025000000250000002500000025CB
:1011900000000025000100240000002400000024BD
:1011A00000000024000000240001002300000023B0
:1011B00000000023000000230000002300000023A3
:1011C0000000002300010022000000220000002295
:1011D0000000002200000022000000220001002187
:1011E000000000210000002100000021000000217B
:1011F000000000210000002100010020000000206C
:10120000000000200000002000000020000000205E
:1012100000000020000000200001001F0000001F4F
:101220000000001F0000001F0000001F0000001F42
:101230000000001F0001001E0000001E0000001E34
:101240000000001E00000024F4D43050C38E20C2E1
:10125000A24017828B7011127A910D816CD90AA865
:1012600061E108C7586607615143061E4B5D05C121
:1012700045A7041A411104093D980371393103400F
:1012800036DB0265339102D4305402802E1D026396
:101290002CEE01752AC501B028A001102781018F0D
:1012A0002564012B244B01E0223401AC211F018D68
:1012B000200D01801FFC00841EED00971DDF00B88B
:1012C0001CD200E61BC600201BBC00641AB200B290
:1012D00019A8000A19A0006A189900D117910040B6
:1012E000178B00B516840031167E00B31579003ACD
:1012F000157300C7146F0058146A00EE1366008857
:1013000013630025135E00C7125B006C12570015B3
:10131000125400C111510070114F0021114B00D621
:101320001049008D1047004610440002104200C0D2
:101330000F4000800F3E00420F3C00060F3B00CBE9
:101340000E3800930E37005C0E3500270E3400F384
:101350000D3200C10D3100900D3000600D2E0032B5
:101360000D2D00050D2C00D90C2B00AE0C2900858D
:101370000C29005C0C2700350C27000E0C2600E819
:101380000B2400C40B2400A00B23007D0B23005A68
:101390000B2100390B2100180B2000F80A1F00D97F
:1013A0000A1E00BB0A1E009D0A1D00800A1D006364
:1013B0000A1C00470A1B002C0A1B00110A1A00F71E
:1013C000091A00DD091900C4091900AB09190092B6
:1013D0000917007B091800630917004C091600362D
:1013E000091600200916000A091500F5081500E085
:1013F000081400CC081400B8081400A408140090C5
:101400000813007D0812006B0813005808120046EC
:1014100008120034081100230811001208110001FD
:10142000081100F0071000E0071000D0071000C0FE
:10143000071000B0070F00A107100091070E0083EE
:10144000070F0074070F0065070E0057070E0049CD
:10145000070E003B070D002E070E0020070D00139E
:10146000070D0006070D00F9060C00ED060D00E063
:10147000060C00D4060C00C8060C00BC060C00B01C
:10148000060C00A4060B0099060C008D060B0082CA
:10149000060B0077060B006C060B0061060A00576E
:1014A000060B004C060A0042060A0038060A002E07
:1014B000060A0024060A001A060A00100609000798
:1014C000060A00FD050900F4050900EB050900E224
:1014D000050900D9050900D0050900C7050900BEA6
:1014E000050900B5050800AD050800A50509009C23
:1014F000050800940508008C050800840508007C98
:10150000050800740508006C050700650508005D06
:10151000050700560508004E05070047050700406F
:1015200005080038050700310507002A05070023D4
:101530000507001C050600160507000F0507000833
:1015400005060002050700FB040600F5040700EE8F
:10155000040600E8040600E2040700DB040600D5E8
:10156000040600CF040600C9040600C3040600BD3B
:10157000040600B7040600B1040500AC040600A68A
:10158000040600A00405009B0406009504050090D5
:101590000406008A04050085040500800406007A1C
:1015A00004050075040500700405006B0405006661
:1015B000040500610405005C0405005704050052A1
:1015C0000405004D04050048040500430405003EE1
:1015D0000404003A04050035040500300404002C1E
:1015E00004050027040400230405001E0404001A57
:1015F00004040016040500110404000D040400098D
:101600000405000404040000040400FC030400F8C2
:10161000030400F4030400F0030400EC030400E8F6
:10162000030400E4030400E0030400DC030400D826
:10163000030400D4030400D0030400CC030400C856
:10164000030300C503030024F404D9201BC40C5C6D
:101650000E9804C4095F0265077101F405F900FBE7
:1016600004B30048048700C1036900580355000310
:10167000034500BE023A008402310053022A0029C9
:1016800002250004022000E4011C00C8011900AF7B
:10169000011700980114008401130071011000610A
:1016A00001100051010E0043010D0036010B002B0B
:1016B000010B0020010B00150109000C01090003BA
:1016C000010800FB000800F3000800EB000700E43D
:1016D000000600DE000600D8000600D2000600CC9E
:1016E000000500C7000500C2000500BD000400B9E8
:1016F000000400B5000400B1000400AD000400A91E
:10170000000400A5000300A20003009F0004009B4A
:10171000000300980003009500020093000300906E
:101720000003008D0002008B000300880002008689
:1017300000020084000300810002007F0002007D9F
:101740000002007B000200790002007700010076B1
:101750000002007400020072000100710002006FBC
:101760000002006D0001006C0002006A00010069C7
:1017700000020067000100660001006500010064CE
:101780000002006200010061000100600001005FD2
:101790000002005D0001005C0001005B0001005AD6
:1017A00000010059000100580001005700010056D7
:1017B00000010055000100540001005300000053D7
:1017C0000001005200010051000100500001004FD3
:1017D0000001004E0000004E0001004D0001004CD1
:1017E0000001004B0000004B0001004A00010049CD
:1017F00000010048000000480001004700010046C9
:1018000000000046000100450000004500010044C2
:1018100000010043000000430001004200000042BC
:101820000001004100000041000100400001003FB4
:101830000000003F0001003E0000003E0001003DAE
:101840000000003D0001003C0000003C0000003CA6
:101850000001003B0000003B0001003A0000003A9C
:101860000001003900000039000100380000003894
:10187000000000380001003700000037000100368A
:101880000000003600000036000100350000003581
:101890000000003500010034000000340000003476
:1018A000000100330000003300000033000100326B
:1018B0000000003200000032000100310000003161
:1018C0000000003100010030000000300000003056
:1018D0000001002F0000002F0000002F0000002F4B
:1018E0000001002E0000002E0000002E0001002D3F
:1018F0000000002D0000002D0000002D0001002C34
:101900000000002C0000002C0000002C0001002B27
:101910000000002B0000002B0000002B0001002A1B
:101920000000002A0000002A0000002A000100290F
:101930000000002900000029000000290000002903
:1019400000010028000000280000002800000028F6
:1019500000000028000100270000002700000027E9
:1019600000000027000000270001002600000026DC
:1019700000000026000000260000002600010025CF
:1019800000000025000000250000002500000025C3
:1019900000000025000100240000002400000024B5
:1019A00000000024000000240001002300000023A8
:1019B000000000230000002300000023000000239B
:1019C000000000230001002200000022000000228D
:1019D000000000220000002200000022000100217F
:1019E0000000002100000021000000210000002173
:1019F0000000002100000021000100200000002064
:101A00000000002000000020000000200000002056
:101A100000000020000000200001001F0000001F47
:101A20000000001F0000001F0000001F0000001F3A
:101A30000000001F0001001E0000001E0000001E2C
:101A40000000001E00000024F4D43050C38E20C2D9
:101A5000A24017828B7011127A910D816CD90AA85D
:101A600061E108C7586607615143061E4B5D05C119
:101A700045A7041A411104093D9803713931034007
:101A800036DB0265339102D4305402802E1D02638E
:101A90002CEE01752AC501B028A001102781018F05
:101AA0002564012B244B01E0223401AC211F018D60
:101AB000200D01801FFC00841EED00971DDF00B883
:101AC0001CD200E61BC600201BBC00641AB200B288
:101AD00019A8000A19A0006A189900D117910040AE
:101AE000178B00B516840031167E00B31579003AC5
:101AF000157300C7146F0058146A00EE136600884F
:101B000013630025135E00C7125B006C12570015AB
:101B1000125400C111510070114F0021114B00D619
:101B20001049008D1047004610440002104200C0CA
:101B30000F4000800F3E00420F3C00060F3B00CBE1
:101B40000E3800930E37005C0E3500270E3400F37C
:101B50000D3200C10D3100900D3000600D2E0032AD
:101B60000D2D00050D2C00D90C2B00AE0C29008585
:101B70000C29005C0C2700350C27000E0C2600E811
:101B80000B2400C40B2400A00B23007D0B23005A60
:101B90000B2100390B2100180B2000F80A1F00D977
:101BA0000A1E00BB0A1E009D0A1D00800A1D00635C
:101BB0000A1C00470A1B002C0A1B00110A1A00F716
:101BC000091A00DD091900C4091900AB09190092AE
:101BD0000917007B091800630917004C0916003625
:101BE000091600200916000A091500F5081500E07D
:101BF000081400CC081400B8081400A408140090BD
:101C00000813007D0812006B0813005808120046E4
:101C100008120034081100230811001208110001F5
:101C2000081100F0071000E0071000D0071000C0F6
:101C3000071000B0070F00A107100091070E0083E6
:101C4000070F0074070F0065070E0057070E0049C5
:101C5000070E003B070D002E070E0020070D001396
:101C6000070D0006070D00F9060C00ED060D00E05B
:101C7000060C00D4060C00C8060C00BC060C00B014
:101C8000060C00A4060B0099060C008D060B0082C2
:101C9000060B0077060B006C060B0061060A005766
:101CA000060B004C060A0042060A0038060A002EFF
:101CB000060A0024060A001A060A00100609000790
:101CC000060A00FD050900F4050900EB050900E21C
:101CD000050900D9050900D0050900C7050900BE9E
:101CE000050900B5050800AD050800A50509009C1B
:101CF000050800940508008C050800840508007C90
:101D0000050800740508006C050700650508005DFE
:101D1000050700560508004E050700470507004067
:101D200005080038050700310507002A05070023CC
:101D30000507001C050600160507000F050700082B
:101D400005060002050700FB040600F5040700EE87
:101D5000040600E8040600E2040700DB040600D5E0
:101D6000040600CF040600C9040600C3040600BD33
:101D7000040600B7040600B1040500AC040600A682
:101D8000040600A00405009B0406009504050090CD
:101D90000406008A04050085040500800406007A14
:101DA00004050075040500700405006B0405006659
:101DB000040500610405005C040500570405005299
:101DC0000405004D04050048040500430405003ED9
:101DD0000404003A04050035040500300404002C16
:101DE00004050027040400230405001E0404001A4F
:101DF00004040016040500110404000D0404000985
:101E00000405000404040000040400FC030400F8BA
:101E1000030400F4030400F0030400EC030400E8EE
:101E2000030400E4030400E0030400DC030400D81E
:101E3000030400D4030400D0030400CC030400C84E
:101E4000030300C50303001000C90210012C014068
:101E500001220170011801B0010E01F001040150CE
:101E600002FA00B002F0003003E600D003DC00907C
:101E700004D2007005C800A006BE000008B400B07F
:101E800009AA00D00BA000600E960060118C000023
:101E900015820020197800C01D6E00A0226400B0D9
:101EA000275A00902C500000314600E0343C0010CE
:101EB000383200903A2800603C1E00A03D1400809B
:101EC0003E0A00203F00001000AA038000400100ED
:101ED000012C01B001220140021001F00202018038
:101EE00003F8004004F500E004ED009005E4003044
:101EF00006DD00E006D7008007D1003008CC00D016
:101F000008C7007009C300100ABE00B00ABB005029
:101F10000BB700900CB300D00DAA00B00FA5005075
:101F200010A000101496009016900010198C00500C
:101F30001A8500301C820070227800B023750040A2
:101F4000256E0020276900A0296400502A5F0090B8
:101F50002B5A00D02C5500702D4F00E02E48005019
:101F600031450030334100D035390060363700103C
:101F7000373300F0382D00A0392700803C1C00408A
:101F80003D1700F03D1100803E0900D03FE5FF47BE
:101F90003239004732380A47323900473239004770
:101FA00032380A4732390047323820580047323831
:101FB000205900473238205A004732380A4D343809
:101FC00020503130004D3834004732392050342011
:101FD00052393939205400473239205034205400C6
:101FE0004732380A473236204320423635204832BD
:101FF00032302050004732380A47323620432042E0
:102000003131302048323430205000473239204AB4
:1020100030004732392050332054300047323920C5
:1020200050322042205430004732380A4D31393086
:10203000205336350A4D31303920533232300A4779
:1020400032392050310A4D3130342053300A4D316D
:102050003430205330004732380A4D313930205364
:102060003131300A4D31303920533234300A473261
:10207000392050310A4D3130342053300A4D31343B
:1020800030205330004732380A473239205031006F
:102090004732392050312043004732392049004728
:1020A0003239205430004732392054310047323918
:1020B00020532D310047323920493939390A473206
:1020C000392050322042205430004732380A4732FB
:1020D00039205031004732392050332054300047E6
:1020E000323920503420523939392054004732399E
:1020F0002050342052393939205400473239204495
:102100000047323920410047323920570041786971
:10211000732000206D696E3A00206D61783A0009E5
:1021200000000A010008000A01000A090000000A74
:102130000008005A5249425F5632305F44395F50BE
:10214000494E005A5249425F5632305F44365F5022
:10215000494E005A5F53544F505F50494E005A5FEA
:10216000535445505F50494E005A5F4D494E5F50A1
:10217000494E005A5F454E41424C455F50494E0022
:102180005A5F4449525F50494E005A5F43535F5073
:10219000494E00595F53544F505F50494E00595FAC
:1021A000535445505F50494E00595F4D494E5F5062
:1021B000494E00595F454E41424C455F50494E00E3
:1021C000595F4449525F50494E00595F43535F5035
:1021D000494E00585F53544F505F50494E00585F6E
:1021E000535445505F50494E00585F4D494E5F5023
:1021F000494E00585F454E41424C455F50494E00A4
:10220000585F4449525F50494E00585F43535F50F6
:10221000494E0053535F50494E00534552564F3379
:102220005F50494E00534552564F325F50494E0061
:10223000534552564F315F50494E00534552564F09
:10224000305F50494E00534453530053445F44455C
:10225000544543545F50494E0053434B5F50494EE1
:102260000052414D50535F44395F50494E00524136
:102270004D50535F44385F50494E0052414D5053CA
:102280005F4431305F50494E004F5249475F4533FC
:102290005F4155544F5F46414E5F50494E004F528B
:1022A00049475F45325F4155544F5F46414E5F504D
:1022B000494E004F5249475F45315F4155544F5F8A
:1022C00046414E5F50494E004F5249475F45305F8F
:1022D0004155544F5F46414E5F50494E004D4F535C
:1022E000495F50494E004D4F534645545F445F503F
:1022F000494E004D49534F5F50494E004D415836AD
:102300003637355F53535F50494E004C45445F505C
:10231000494E004C43445F50494E535F5253004C6A
:1023200043445F50494E535F454E41424C45004C3B
:1023300043445F50494E535F4437004C43445F5021
:10234000494E535F4436004C43445F50494E535FFF
:102350004435004C43445F50494E535F4434004B76
:10236000494C4C5F50494E004845415445525F42EC
:1023700045445F50494E004845415445525F315FE6
:1023800050494E004845415445525F305F50494ED8
:102390000046494C5F52554E4F55545F50494E00D0
:1023A00046414E5F50494E0045315F535445505FA2
:1023B00050494E0045315F454E41424C455F5049C2
:1023C0004E0045315F4449525F50494E0045315FF0
:1023D00043535F50494E0045315F4155544F5F466E
:1023E000414E5F50494E0045305F535445505F5059
:1023F000494E0045305F454E41424C455F50494E85
:102400000045305F4449525F50494E0045305F43BC
:10241000535F50494E0045305F4155544F5F464130
:102420004E5F50494E00455F4D5558325F50494E02
:1024300000455F4D5558315F50494E00455F4D5541
:1024400058305F50494E00444F474C43445F53431C
:102450004B00444F474C43445F4D4F534900425457
:102460004E5F454E430042544E5F454E320042544B
:102470004E5F454E31004245455045525F50494EF2
:10248000004156525F53535F50494E004156525FD0
:1024900053434B5F50494E004156525F4D4F534995
:1024A0005F50494E004156525F4D49534F5F50496E
:1024B0004E0054584430005258443000434F4D4D64
:1024C000554E49434154494F4E0044525952554E7E
:1024D000004552524F525300494E464F0045434823
:1024E0004F004572726F722077726974696E67204F
:1024F000746F20454550524F4D210A003637260350
:102500003C3D380E2E303E121A1C1824221E084460
:102510000A06430706450809000153544F50504529
:10252000442E20005072696E7465722073746F704F
:102530007065642064756520746F206572726F72B7
:10254000732E2046697820746865206572726F72F8
:1025500020616E6420757365204D39393920746FA0
:1025600020726573746172742E202854656D7065D5
:102570007261747572652069732072657365742E5B
:1025800020536574206974206166746572207265D9
:102590007374617274696E67290A004E6F20436814
:1025A00065636B73756D2077697468206C696E65FF
:1025B000206E756D6265722C204C617374204C69BD
:1025C0006E653A2000636865636B73756D206D6995
:1025D000736D617463682C204C617374204C696E58
:1025E000653A20004C696E65204E756D62657220FB
:1025F0006973206E6F74204C617374204C696E6532
:10260000204E756D6265722B312C204C61737420E5
:102610004C696E653A20004D313130002121204B4C
:10262000494C4C20636175736564206279204B4985
:102630004C4C20627574746F6E2F70696E0A0021A5
:1026400021204B494C4C206361757365642062798D
:1026500020746F6F206D75636820696E61637469A3
:1026600076652074696D65202D2063757272656EC4
:102670007420636F6D6D616E643A2000506C65610B
:102680007365205265736574005052494E5445522B
:102690002048414C5445440025533A202553004BD3
:1026A000494C4C45442E20005072696E746572206E
:1026B00068616C7465642E206B696C6C28292063DA
:1026C000616C6C6564210A006563686F3A0045724D
:1026D000726F723A00204A0020204D343231204976
:1026E000002020473239204939390A006163746972
:1026F00076650A00696E00002053797374656D2059
:1027000076312E303120002020207C0A004E414EB0
:102710000020202E20202000207C004C43443A0A38
:10272000004353563A0A0020666F7220003A0A0AA4
:10273000000A42656420546F706F67726170687937
:10274000205265706F727400446F6E652E0A003FF0
:10275000496E76616C69642073746F72616765207D
:10276000736C6F742E0A3F557365203020746F2090
:10277000003F454550524F4D2073746F726167653D
:10278000206E6F7420617661696C61626C652E0ADF
:1027900000446F6E652E0A003F496E76616C696475
:1027A0002073746F7261676520736C6F742E0A3FBB
:1027B000557365203020746F20003F454550524FBF
:1027C0004D2073746F72616765206E6F742061763F
:1027D00061696C61626C652E0A00473239205032A3
:1027E0002066696E69736865642E0A005859206F07
:1027F000757473696465207072696E7461626C656A
:10280000207261646975732E0A003F4572726F729F
:1028100020696E20427573696E657373204361721F
:1028200064206D6561737572656D656E742E0A0046
:102830004D616E75616C6C792070726F62696E6744
:1028400020756E726561636861626C65206D657389
:1028500068206C6F636174696F6E732E0A00292E95
:102860000A0A0050726F62696E672061726F756E3E
:10287000642028004D65736820696E76616C696418
:10288000617465642E2050726F62696E67206D6599
:1028900073682E0A004D657368207A65726F6564EF
:1028A0002E0A0044656661756C742073746F7261E2
:1028B000676520736C6F7420302073656C6563747A
:1028C00065642E0A004C6F6164696E6720746573DD
:1028D000745F7061747465726E2076616C75657377
:1028E0002E0A0A00496E76616C69642074657374FF
:1028F0005F7061747465726E2076616C75652E20F0
:10290000282D3120746F2032290A0A004C6F636130
:1029100074696F6E7320696E76616C696461746549
:10292000642E0A0A00456E74697265204D657368ED
:1029300020696E76616C6964617465642E0A0A00B0
:102940005374616E64617264204465766961746970
:102950006F6E3A20004D65616E204D6573682048AA
:1029600065696768743A200023206F662073616D83
:10297000706C65733A20000A4D657368206F6E6C49
:1029800079207061727469616C6C7920706F7075F8
:102990006C617465642E0A0A0050726F62696E671A
:1029A00020506F696E740025532025692F2569001A
:1029B0002E0A0A002F000A50726F62696E67206D3E
:1029C00065736820706F696E74200020616E6420EA
:1029D00074616B652061206D6561737572656D65ED
:1029E0006E742E0A006D6D20746869636B2E0A0088
:1029F000427573696E6573732043617264206973F5
:102A0000200052656D6F76652026204D65617375D7
:102A10007265204265640052656D6F76652073684B
:102A2000696D00506C616365207368696D20756E17
:102A3000646572206E6F7A7A6C65004D65736820EC
:102A4000506F696E74204D656173757265642061A5
:102A5000743A20000A4D657368206F6E6C7920709F
:102A600061727469616C6C7920706F70756C6174DF
:102A700065642E0A004D65617375726500506C6166
:102A80006365205368696D2026204D6561737572FA
:102A900065004D6F76696E6720746F206E6578747F
:102AA000004D6573682045646974696E67205374CE
:102AB0006F7070656400446F6E6520456469746969
:102AC0006E67204D6573680A00446F6E652045642B
:102AD0006974696E67204D6573680046696E65208C
:102AE00054756E696E67204D6573680028582C59BF
:102AF00029206F757473696465207072696E7461E2
:102B0000626C65207261646975732E0A004F666697
:102B1000736574206F7574206F6620626F756E64C4
:102B2000732E20283020746F2031306D6D290A0AF1
:102B300000496E76616C6964206D617020747970F3
:102B4000652E0A0A003F2846296164652068656988
:102B500067687420666F7220426564204C657665F4
:102B60006C20436F7272656374696F6E206E6F7450
:102B700020706C61757369626C652E0A0A003F43B0
:102B8000616E277420616374697661746520616E7B
:102B90006420646561637469766174652061742082
:102BA0007468652073616D652074696D652E0A0A0D
:102BB00000426F7468205820262059206C6F636192
:102BC00074696F6E73206D75737420626520737005
:102BD000656369666965642E0A0A003F496E76611D
:102BE0006C696420677269642073697A6520284A79
:102BF00029207370656369666965642028322D3900
:102C0000292E0A0A003F28502968617365207661E1
:102C10006C756520696E76616C69642028302D368C
:102C2000292E0A0A003F2856296572626F736520B3
:102C30006C6576656C20696D706C61757369626C2A
:102C4000652028302D34292E0A0A003F2852296594
:102C50007065746974696F6E20636F756E74206936
:102C60006E76616C69642028312B292E0A0A004493
:102C70006F696E6720473239002E21292124211FD8
:102C8000215D0A0062656420706C616E65206E6F64
:102C9000726D616C203D205B00436F756C64206E2B
:102CA0006F7420636F6D706C657465204C534621A2
:102CB00000436F727265637465645F5A3D0025530B
:102CC0002025692F2569000A0A002F0054696C74B9
:102CD000696E67206D65736820706F696E7420007F
:102CE0003F4572726F722070726F62696E672070FA
:102CF0006F696E742E2041626F7274696E67206F07
:102D00007065726174696F6E2E0A00436F7272652E
:102D1000637465645F5A3D00255320332F3300549C
:102D2000696C74696E67206D6573682028332F3372
:102D3000290A00436F727265637465645F5A3D00CF
:102D4000255320322F330054696C74696E67206DEF
:102D50006573682028322F33290A00436F72726529
:102D6000637465645F5A3D0054696C74696E6720D2
:102D7000506F696E7400255320312F330054696CF5
:102D800074696E67206D6573682028312F33290AB6
:102D900000646F6E650A00496E73756666696369E3
:102DA000656E7420646174610A000000803F8EE3E8
:102DB000C8418EE34442AAAA92428EE3C242721CE8
:102DC000F342AAAA11431CC729438EE341430000E2
:102DD0005A430000803F8EE3C8418EE34442AAAAD2
:102DE00092428EE3C242721CF342AAAA11431CC74C
:102DF00029438EE3414300005A4345787472617061
:102E00006F6C6174696E67206D6573682E2E2E007D
:102E1000486F74656E6420746F6F20636F6C640A12
:102E2000004732362048656174696E67204E6F7ABC
:102E30007A6C65004732362048656174696E672098
:102E40004265640057616974696E6720666F72201D
:102E50006865617475702E0A004669786564204C57
:102E6000656E677468205072696D6500446F6E65A9
:102E7000205072696D696E67004D616E75616C20DE
:102E80007072696D696E672E2E2E004732362043B0
:102E9000616E63656C6564004C656176696E672080
:102EA000473236003F537065636966696564205830
:102EB0002C5920636F6F7264696E617465206F7541
:102EC00074206F6620626F756E64732E0A003F284F
:102ED000522965706561742076616C7565206E6F2E
:102EE0007420706C61757369626C653B206D7573DD
:102EF00074206265206174206C6561737420312ECA
:102F00000A003F537065636966696564206E6F7A75
:102F10007A6C652074656D70657261747572652078
:102F20006E6F7420706C61757369626C652E0A0037
:102F30003F5370656369666965642066696C616D9D
:102F4000656E742073697A65206E6F7420706C6191
:102F5000757369626C652E0A003F5370656369661C
:102F6000696564207072696D65206C656E67746850
:102F7000206E6F7420706C61757369626C652E0AC7
:102F8000003F537065636966696564206E6F7A7A85
:102F90006C652073697A65206E6F7420706C617542
:102FA0007369626C652E0A003F52657472616374C6
:102FB000696F6E204D756C7469706C696572206DF7
:102FC00075737420626520737065636966696564F2
:102FD0002E0A003F53706563696669656420526517
:102FE0007472616374696F6E204D756C7469706C76
:102FF000696572206E6F7420706C61757369626CA4
:10300000652E0A003F537065636966696564206CCC
:103010006179657220686569676874206E6F7420D5
:10302000706C61757369626C652E0A0043292E0A03
:10303000003F53706563696669656420626564205A
:1030400074656D7065726174757265206E6F742041
:10305000706C61757369626C65202834302D00478F
:103060003236207374617274696E672E2E2E0A00D8
:103070004F46460A00466164652048656967687482
:103080002000426564204C6576656C696E6720009F
:103090004661696C656420746F20656E61626C6561
:1030A00020426564204C6576656C696E670A00494C
:1030B0006E76616C6964206D6573682E0A007661B6
:1030C0006C69640A53746F7261676520736C6F7406
:1030D0003A2000696E004D65736820697320003FD7
:1030E000557365203020746F20003F496E76616C07
:1030F00069642073746F7261676520736C6F742EDE
:103100000A003F454550524F4D2073746F726167FE
:1031100065206E6F7420617661696C61626C652EEA
:103120000A0020204261636B3A2000202046726F23
:103130006E743A2000202052696768743A2000209B
:10314000204C6566743A20002020546F703A2000AD
:1031500053696465733A0A0043656E7465723A0A8E
:10316000002020546F703A200020204261636B3AA7
:103170002000202046726F6E743A20002020526991
:103180006768743A200020204C6566743A2000423B
:1031900061636B6C6173683A0A004E6F7A7A6C6592
:1031A00020546970204F757465722044696D656E96
:1031B00073696F6E733A0A0020506F736974696F98
:1031C0006E616C204572726F723A0A0020486F740B
:1031D000656E64204F666673657420580054002045
:1031E000284E6F7420796574206D65617375726502
:1031F000642900202041766572616765206D6561F4
:103200007375726564206261636B6C6173682028FA
:103210006D6D293A0020204261636B6C61736820F8
:1032200044697374616E636520286D6D293A2020AE
:1032300020202020202000202846312E30203D2034
:1032400066756C6C2C2046302E30203D206E6F6EE3
:1032500065290A002020436F7272656374696F6E7E
:1032600020416D6F756E742F466164652D6F7574A6
:103270003A202020202046006163746976653A0A6E
:1032800000696E004261636B6C61736820436F720A
:1032900072656374696F6E20004465766961746954
:1032A0006F6E0025533A202573005374616E64617C
:1032B000726420446576696174696F6E3A200020FB
:1032C00052616E67653A2000204D61783A200020F7
:1032D0004D696E3A20004D65616E3A200046696E78
:1032E0006973686564210A002072616E67653A201F
:1032F00000206D61783A2000206D696E3A20002030
:103300007369676D613A2000206D65616E3A200037
:103310003A207A3A2000206F662000476F696E6776
:1033200020746F3A20580043570A00206469723AAB
:103330000020616E676C653A00537461727420728C
:1033400061646975733A004D343820506F696E744A
:103350000025533A2025642F256400506F7369744B
:10336000696F6E696E67207468652070726F626540
:103370002E2E2E0A003F4E756D626572206F6620FC
:103380006C65677320696E206D6F76656D656E7410
:10339000206E6F7420706C61757369626C65202893
:1033A000302D3135292E0A003F2028582C5929204C
:1033B0006F7574206F6620626F756E64732E0A00DD
:1033C0003F53616D706C652073697A65206E6F7410
:1033D00020706C61757369626C652028342D3530FE
:1033E000292E0A004D3438205A2D50726F62652004
:1033F0005265706561746162696C697479205465A5
:1034000073740A003F2856296572626F7365206CD9
:103410006576656C20696D706C61757369626C6549
:103420002028302D34292E0A0050574D3A202025CF
:1034300034640050574D3A20202534640050574DD5
:103440003A20202534640050574D3A20202534641A
:103450000050574D3A20202534640050574D3A20F3
:10346000202534640050574D3A2020253464005004
:10347000574D3A20202534640050574D3A202025DE
:1034800034640050574D3A20202534640050574D85
:103490003A20202534640050574D3A2020253464CA
:1034A0000050574D3A20202534640050574D3A20A3
:1034B000202534640050574D3A20202534640050B4
:1034C000574D3A2020253464003A20002020202047
:1034D000434F4D002020206E6F6E2D7374616E641B
:1034E0006172642050574D206D6F6465002020206C
:1034F000636F6D7061726520696E7465727275704C
:103500007420656E61626C6564002020206F7665B2
:1035100072666C6F7720696E746572727570742054
:10352000656E61626C6564003A20002020202054A2
:10353000494D534B00423A20002020202054434361
:103540005200413A200020202020544343520020C2
:1035500020202043533A20002020202057474D3A76
:10356000200050574D3A20202534640050574D3AE2
:1035700020202534640047004800000088008A00AD
:103580008C00B300B400000098009A009C00A800D2
:10359000AA00AC0028012A012C0120202020544937
:1035A0004D455200440045006E00800081006F00D0
:1035B000B000B1007000900091007100A000A10067
:1035C000720020012101730020697320616C736F08
:1035D000207469656420746F207468697320706951
:1035E0006E0054494D45523143000A202E002020E0
:1035F000002020506F72743A2000202020002020EC
:1036000020416E616C6F6720696E203D2025356C0E
:1036100064003C756E757365642F756E6B6E6F77A5
:103620006E3E002028412532642920200025336485
:103630002000257350494E3A20004F757470757400
:10364000203D2000496E70757420203D2000416EA1
:10365000616C6F6720696E203D2025356C640070B9
:10366000726F74656374656420002028412532649C
:10367000292020002533642000257350494E3A202C
:1036800000B7240001B2240101A52432019824339B
:10369000018C24340181243501762425016E241FF8
:1036A00001662421015E242301522433014724347E
:1036B000013C24280131242A0126242C0116240649
:1036C000010C242A0101241C01F3231801E7231A09
:1036D00001D7230601CD232C01C2232201B4231ECE
:1036E00001A8232401A02309019123040184230AB2
:1036F0000177230701682308015F2329015323175A
:1037000001472319013B231B012F231D011F2311F7
:1037100001132310010B230D01FC224201F322327D
:1037200001E6220701DD223301C8220601B3220689
:10373000019E220601892206017B220A016E2208CF
:103740000161220901592234014B223101462235FF
:10375000013B220F0130220601252205011A220415
:1037600001132235010A22350100223701F32126F7
:1037700001E9210301DE213601D3210301CA2131F0
:1037800001C0213D01B3213801A9210E019E213C38
:103790000193210E018A2128018021300173213EED
:1037A00001692112015E212E0153211201432106DC
:1037B0000133210901446F6E652E0A005A5F505291
:1037C0004F42455F534552564F5F4E52206E6F74C5
:1037D000207365742075702E0A00576174636869E0
:1037E0006E672070696E730A0064697300656E000D
:1037F00061626C65640A00656E6473746F70206D3D
:103800006F6E69746F7220003A20002053657276E3
:103810006F2000206F7574206F662072616E67657F
:103820000A00536572766F2000290A00204B002899
:10383000536C6F742000204B00205300416476616C
:103840006E63652054003F4C2076616C7565206F77
:103850007574206F662072616E67652028302D3187
:1038600030292E0A003F4B2076616C7565206F75FC
:1038700074206F662072616E67652028302D3130AC
:10388000292E0A003F542076616C7565206F75748F
:10389000206F662072616E67652E0A004D363030EB
:1038A0003A20546F6F20436F6C6400486F74656EEC
:1038B0006420746F6F20636F6C640A0050726573CC
:1038C0007320627574746F6E20746F206865617404
:1038D000206E6F7A7A6C650A0020496E76616C6999
:1038E00064206578747275646572200047322F47D2
:1038F000332062616420706172616D6574657273FA
:103900000A00536C6565702E2E2E005A2050726F7F
:1039100062652050617374204265640A005A205029
:10392000726F626520506173742042656400486F55
:103930006D652058592066697273740A00486F6D6E
:103940006520585920466972737400205A3A200045
:1039500020593A200042656420583A20004D657392
:103960006820706F696E742063616E6E6F74206280
:1039700065207265736F6C7665640A00436C6963D9
:103980006B20746F20526573756D652E2E2E004E60
:103990006F204D6F76652E002569730025696D20B7
:1039A000256973002569682025696D2025697300E4
:1039B000256964202569682025696D2025697300C3
:1039C00025697920256964202569682025696D208D
:1039D000256973005072696E742074696D653A20B0
:1039E00000436F6F6C696E672E2E2E004865617400
:1039F000696E672E2E2E00452563202553006F6BC0
:103A0000006F666600DD24D824D124CA24BC244477
:103A1000454255473A004D31313220536875746440
:103A20006F776E0042656420436F6F6C696E672E1E
:103A30002E2E004265642048656174696E672E2EE3
:103A40002E00503830324E5232204F46462E004320
:103A500048414D4245525F54454D504552415455A1
:103A60005245004D4F54494F4E5F4D4F4445530012
:103A7000544845524D414C5F50524F544543544970
:103A80004F4E004155544F5245504F52545F53448E
:103A90005F5354415455530050524F4D50545F534F
:103AA0005550504F525400454D455247454E43598D
:103AB0005F50415253455200434153455F4C494783
:103AC00048545F4252494748544E45535300544F5F
:103AD00047474C455F4C494748545300534F465461
:103AE000574152455F504F574552004255494C444B
:103AF0005F50455243454E54004C4556454C494E47
:103B0000475F44415441005A5F50524F4245004183
:103B100055544F4C4556454C005052494E545F4AFF
:103B20004F420050524F4752455353004155544F56
:103B30005245504F52545F54454D5000564F4C55CE
:103B40004D455452494300454550524F4D0042495E
:103B50004E4152595F46494C455F5452414E53467F
:103B600045520053455249414C5F584F4E5F584FA4
:103B70004646004649524D574152455F4E414D45DC
:103B80003A4D61726C696E20322E302E342E342004
:103B9000284769744875622920534F555243455F41
:103BA000434F44455F55524C3A68747470733A2FD2
:103BB0002F6769746875622E636F6D2F4D61726C2B
:103BC000696E4669726D776172652F4D61726C69BD
:103BD0006E2050524F544F434F4C5F5645525349FD
:103BE0004F4E3A312E30204D414348494E455F54A7
:103BF0005950453A503830324E523220455854527E
:103C0000554445525F434F554E543A32205555491D
:103C1000443A63656465326132662D343161322D18
:103C2000343734382D396231322D633535633632CD
:103C30006633363766660A002F2F20004D31343543
:103C400020533C696E6465783E206F7574206F6602
:103C50002072616E67652028302D31290A0041638A
:103C600063656C65726174696F6E00466565647248
:103C700061746500205200416363656C6572617414
:103C8000696F6E3A2050003F4A206F7574206F664E
:103C90002072616E67652028302E303120746F20CD
:103CA000302E33290A004F4646004F4E0020204D4B
:103CB00061783A2000200020204D696E3A200053A0
:103CC0006F667420656E6473746F70733A20004879
:103CD0006F74656E64206F6666736574733A002056
:103CE000466C6F773A200050726F74656374656438
:103CF0002050696E0A00496E76616C6964206578AF
:103D00007472756465720A0020643A0020693A0092
:103D100020703A0020653A0064697300656E0043C4
:103D2000290A0061626C656420286D696E207465E3
:103D30006D702000436F6C642065787472756465E3
:103D4000732061726520004D65736820706F696E25
:103D5000742063616E6E6F74206265207265736F8C
:103D60006C7665640A004D34323120696E636F727F
:103D70007265637420706172616D6574657220751F
:103D8000736167650A00454550524F4D204F4B0AFD
:103D900000446966663A200046726F6D5374703A4B
:103DA00000537465707065723A00556E4C657665A7
:103DB0006C3A004C6576656C65643A005261773AFE
:103DC00020202020000A4C6F676963616C3A004331
:103DD0006F756E7420453A004361703A0050726FFF
:103DE00062696E67204661696C65640A0050726F93
:103DF00062696E67204661696C656400205A3A20EA
:103E00000020593A200042656420583A2000290ACF
:103E10000020746F20003F5A206F7574206F662059
:103E200072616E6765202800290A0020746F2000E7
:103E30003F59206F7574206F662072616E67652030
:103E4000282D00290A0020746F20003F58206F752C
:103E500074206F662072616E676520282D00507295
:103E60006F6265204F6666736574205800220A00F1
:103E7000656E7175657565696E672022006F6B00F0
:103E8000526573656E643A200023646566696E65E9
:103E90002044454641554C545F004B6420004B691B
:103EA00020004B702000504944204175746F747598
:103EB0006E652066696E697368656421205075744B
:103EC00020746865206C617374204B702C204B69E2
:103ED00020616E64204B6420636F6E7374616E7436
:103EE000732066726F6D2062656C6F7720696E74E7
:103EF0006F20436F6E66696775726174696F6E2EAD
:103F0000680A00504944204175746F74756E6520CD
:103F10006661696C6564212074696D656F75740AEA
:103F200000504944204175746F74756E6520666158
:103F3000696C6564212054656D7065726174757279
:103F40006520746F6F20686967680A00204B643AC7
:103F50002000204B693A2000204B703A20000A20B4
:103F6000436C617373696320504944200A00204BFD
:103F7000643A2000204B693A2000204B703A200020
:103F80000A204E6F206F76657273686F6F740A0037
:103F90002054753A2000204B753A2000206D61783E
:103FA0003A2000206D696E3A200020643A200020FB
:103FB000626961733A2000504944204175746F74FE
:103FC000756E652073746172740A00504944204113
:103FD00075746F74756E65206661696C6564212007
:103FE00054656D706572617475726520746F6F20B1
:103FF000686967680A00504944204175746F747598
:104000006E65206661696C6564212042616420658B
:1040100078747275646572206E756D6265720A00DF
:104020004572723A207574663820666F6E74206E21
:104030006F7420696E697469616C697A65642E00B9
:104040004572723A207574663820666F6E74206E01
:104050006F7420696E697469616C697A65642E0099
:104060004572723A207574663820666F6E74206EE1
:104070006F7420696E697469616C697A65642E0079
:104080002568753A25303268750025303268753AF2
:1040900025303268750025687564202530326875D2
:1040A0003A253032687500000C0D00FE0702260329
:1040B000BC017FFE08FE08FE05080806000040F06F
:1040C000C88888987810050808060000C0F8888815
:1040D000888888F80505050600012030F83020059D
:1040E00008080600002070F820202020E0050909BB
:1040F0000600FF2070A8A8B888887020050606066C
:104100000001E08CEA8C8A0A0509090600FFF8A87C
:104110008888888888A8F8050A0A0600FE2050507A
:10412000505088A8A8887003030306000340A040ED
:10413000FFFFFFFFFFFFFFFFFFFFFFFFFFFFFFFF8F
:10414000FFFFFFFFFFFF0000000605FF0107070656
:10415000020080808080800080030303060105A0A8
:10416000A0A005060606000050F85050F8500509BA
:10417000090600FF2070A8A07028A8702005070776
:10418000060000C8C81020409898050707060000E0
:1041900040A0A040A890680103030602058080802B
:1041A0000309090601FF2040408080804040200331
:1041B00009090601FF80404020202040408005077B
:1041C0000706000020A8702070A82005050506003D
:1041D000012020F820200203030601FFC0408005D3
:1041E0000101060003F8020202060100C0C0050733
:1041F0000706000008101020404080050707060051
:1042000000708898A8C8887003070706010040C09E
:1042100040404040E0050707060000708808102075
:1042200040F8050707060000F808103008887005F8
:10423000070706000010305090F810100507070619
:104240000000F880F00808887005070706000030B5
:104250004080F0888870050707060000F8081010F5
:104260002020200507070600007088887088887065
:1042700005070706000070888878081060020505A9
:10428000060100C0C000C0C00206060601FFC0C093
:1042900000C0408003050506010120408040200544
:1042A0000303060002F800F803050506010180403B
:1042B000204080050707060000708810202000209D
:1042C0000507070600007088B8A8B88070050707C2
:1042D000060000708888F8888888050707060000AF
:1042E000F04848704848F0050707060000708880CD
:1042F00080808870050707060000F0484848484855
:10430000F0050707060000F88080F08080F80507B8
:1043100007060000F88080F080808005070706000F
:1043200000708880809888700507070600008888DC
:1043300088F8888888030707060100E0404040406D
:1043400040E00507070600003810101010906005C7
:1043500007070600008890A0C0A090880507070600
:104360000000808080808080F805070706000088B4
:10437000D8A8888888880507070600008888C8A804
:1043800098888805070706000070888888888870E4
:10439000050707060000F08888F080808005070781
:1043A00006000070888888A8906805070706000046
:1043B000F08888F0A09088050707060000708880C4
:1043C00070088870050707060000F82020202020CC
:1043D00020050707060000888888888888700507F8
:1043E00007060000888888885050200507070600C7
:1043F0000088888888A8A8500507070600008888D4
:104400005020508888050707060000888850202023
:104410002020050707060000F80810204080F80358
:1044200009090601FFE080808080808080E0050728
:10443000070600008040402010100803090906010B
:10444000FFE020202020202020E0050303060005B7
:104450002050880501010600FEF80303030601054C
:10446000804020050505060000700878887805075B
:10447000070600008080F0888888F00505050600A2
:10448000007080808870050707060000080878889B
:104490008888780505050600007088F0807005079B
:1044A00007060000304840E040404005070706008E
:1044B000FE708888887808700507070600008080ED
:1044C000F0888888880307070601004000C0404044
:1044D00040E00409090601FE100030101010109091
:1044E0006005070706000080808890E09088030739
:1044F00007060100C04040404040E00505050600B9
:1045000000D0A8A8A8A8050505060000B0C888889E
:10451000880505050600007088888870050707066D
:1045200000FEF0888888F080800507070600FE7886
:10453000888888780808050505060000B0C88080CE
:104540008005050506000078807008F0050707065D
:1045500000002020F820202018050505060000880E
:104560008888986805050506000088888850200519
:1045700005050600008888A8A85005050506000066
:1045800088502050880507070600FE88888850203C
:104590004080050505060000F8102040F8030909D1
:1045A0000601FF20404040804040402001090906AC
:1045B00002FF80808080808080808003090906015E
:1045C000FF80404040204040408005030306000239
:1045D00048A890FF1FE020102310249010A0112065
:1045E0002210241037B00840048003001FE0201080
:1045F00021102310152011202110211031300840E6
:10460000048003001FE03FF03CF03B701F601EE0A1
:104610003DF03BF038700FC0078003001FE03FF013
:104620003EF03CF01AE01EE03EF03EF03EF00FC0DF
:10463000078003005072696E742050617573656461
:10464000004578747275646572202A00457874722A
:1046500075646572004D6F7665205A004D6F766502
:104660002059004D6F76652058004F6666004F6EEA
:1046700000536F667420456E6473746F7073004DE1
:104680006F74696F6E004D38340044697361626CF9
:1046900065205374657070657273004732380A4D37
:1046A000343820503130004D34382050726F6265FC
:1046B0002054657374004C6576656C20436F726E90
:1046C00065727300556E6966696564204265642091
:1046D0004C6576656C696E6700473238205A004831
:1046E0006F6D65205A00473238205900486F6D655C
:1046F000205900473238205800486F6D6520580017
:104700004175746F20486F6D65004D6F766520416F
:10471000786973004D61696E0050726568656174F7
:1047200020504C4120416C6C00507265686561748A
:1047300020504C4120426564005072656865617488
:1047400020504C4120456E64207E005072656865A3
:10475000617420504C41207E005072656865617420
:104760002041425320416C6C005072656865617451
:10477000204142532042656400507265686561744F
:104780002041425320456E64207E0050726568656A
:10479000617420414253207E0054656D70657261E2
:1047A0007475726500436F6F6C646F776E00507242
:1047B00065686561742041425300507265686561A7
:1047C0007420504C410046616E2053706565640052
:1047D000426564004E6F7A7A6C65207E004D616997
:1047E0006E00416476616E6365204B202A00466C42
:1047F0006F77207E00466C6F770046616E205370A5
:1048000065656400426564004E6F7A7A6C65207E4F
:10481000005370656564004D61696E0000FE000321
:10482000FF8007C7C00701E00000E00000F00000C3
:10483000700400700E00701F00703F80F00E00E0EA
:104840000F01E007C7C003FF8000FE0000FE000369
:10485000FF8007C7C00F01E00E00E03F80F01F009F
:10486000700E00700400700000700000F00000E0A6
:104870000701E007C7C003FF8000FE000E000E0026
:104880000E000E000E000E000E000E007FC03F80D6
:104890001F000E00040004000E001F003F807FC0B8
:1048A0000E000E000E000E000E000E000E000E0098
:1048B000FFFFFF7F80FFC0FFC0FFC07F807F80FFC2
:1048C000C0FFC0FFC03F001E000C004D6573682094
:1048D000456469746F7200473239205031004D31A0
:1048E000303920532569004D313930205325690076
:1048F0004265642054656D7000486F74656E642075
:1049000054656D70002E25690047323920503620DD
:1049100043202D0048656967687420416D6F756E8E
:10492000740041646A757374204D6573682048652E
:104930006967687400473239205034205400466952
:104940006E652054756E6520436C6F7365737400DB
:1049500047323920503420523939392054004669C1
:104960006E652054756E6520416C6C0047323620B0
:1049700043204225692048256920500056616C6912
:104980006461746520437573746F6D204D65736841
:10499000004732380A473236204320423131302036
:1049A0004832343020500056616C6964617465206F
:1049B0004D657368202841425329004732380A4721
:1049C00032362043204236352048323230205000E3
:1049D00056616C6964617465204D65736820285068
:1049E0004C412900473239204A2569004C657665DB
:1049F0006C204D657368005369646520506F696E63
:104A000074730047726964204D657368204C657645
:104A1000656C696E6700473239204A3000332D508B
:104A20006F696E74204C6576656C696E67004732FD
:104A300039205033205220432E2569004732392037
:104A400050322042205430004D616E75616C20461A
:104A5000696C6C2D696E0047323920503320543018
:104A600000536D6172742046696C6C2D696E00464E
:104A7000696C6C2D696E20416D6F756E74004D65AB
:104A8000736820696E76616C6964617465642E0A6E
:104A900000496E666F2053637265656E0047323958
:104AA000204900496E76616C696461746520436CCD
:104AB0006F7365737400496E76616C6964617465C7
:104AC00020416C6C00473239205031204300436F45
:104AD0006E74696E756520426564204D657368006B
:104AE00046696C6C2D696E204D65736800473238DD
:104AF0000A473239205031004275696C6420436F97
:104B00006C64204D657368004275696C6420437560
:104B100073746F6D204D657368004732380A4D31EC
:104B2000393020533131300A4D313039205332344D
:104B3000300A4732392050310A4D31303420533059
:104B40000A4D313430205330004275696C64204D79
:104B5000657368202841425329004732380A4D3195
:104B60003930205336350A4D313039205332323006
:104B70000A4732392050310A4D3130342053300A3F
:104B80004D313430205330004275696C64204D65DE
:104B900073682028504C4129004D313137204D6534
:104BA0007368202569204C6F616465640047323961
:104BB000204C2569004D313137204D657368202523
:104BC00069205361766564004732392053256900B6
:104BD0005361766520426564204D657368004C6FB3
:104BE000616420426564204D657368004D656D6F9A
:104BF000727920536C6F74004E6F2053746F726122
:104C0000676500486F6D696E672058595A004732D2
:104C10003920503420582573205925732052256996
:104C200000202D2D2D2D2D00473238004732392000
:104C3000532D31004F6666205072696E7465722084
:104C40004261636B757000473239205431004F75F3
:104C50007470757420666F72204353560047323962
:104C6000205430004F757470757420666F72204840
:104C70006F7374004D657368204C6576656C696E62
:104C8000670045646974204D6573680056616C69FE
:104C900064617465204D6573680047323920493975
:104CA00039390A4732392050322042205430004DE1
:104CB000616E75616C6C79204275696C64204D651C
:104CC0007368004275696C64204D65736800372E07
:104CD000205361766520426564204D657368004706
:104CE00032392050342052393939205400362E20A0
:104CF00046696E652054756E6520416C6C00352EDA
:104D00002056616C6964617465204D657368004765
:104D100032392050342052393939205400342E2071
:104D200046696E652054756E6520416C6C00332EAB
:104D30002056616C6964617465204D657368004735
:104D4000323920503320543000322E20536D61729E
:104D5000742046696C6C2D696E004732380A473200
:104D60003920503100312E204275696C6420436F28
:104D70006C64204D65736800556E696669656420D2
:104D8000426564204C6576656C696E6700466164B7
:104D90006520486569676874004732392057004FBD
:104DA00075747075742055424C20496E666F0055BD
:104DB000424C20546F6F6C73004F75747075742083
:104DC0004D657368204D6170004D657368205374A4
:104DD0006F72616765004D65736820456469740092
:104DE000537465702D42792D537465702055424C73
:104DF000004732392041004163746976617465204F
:104E000055424C004732392044004465616374695F
:104E1000766174652055424C004D6F74696F6E0069
:104E2000EC45D4451C4604463FFFF038007030FC8A
:104E30003020FC102078102030102C00D02E31D0E3
:104E40002F7BD02F7BD02E31D02C00D020301020C3
:104E5000781020FC1030FC303800703FFFF03FFF2E
:104E6000F03800703186302387102787902F87D045
:104E70002F03D02030102078102078102030102FF1
:104E800003D02F87D02787902387103186303800B2
:104E9000703FFFF01FFFF81FFFF8041040020820CA
:104EA0000208200410400820801041001041000832
:104EB00020800410400000001FFFF81FFFF850384A
:104EC00030324E52322052656164792E0050726940
:104ED0006E74696E672E2E2E00290A002062797486
:104EE00065733B20637263200053657474696E6759
:104EF000732053746F7265642028004E6F204545FF
:104F000050524F4D2E0A00454550524F4D2064617E
:104F1000746173697A65206572726F722E0A003F40
:104F20004D65736820746F6F2062696720666F72C9
:104F300020454550524F4D2E0A0055424C20726577
:104F40007365740A00206C6F616465642066726F1B
:104F50006D2073746F726167652E0A004D6573680A
:104F600020002E0A003F43616E277420656E616247
:104F70006C65200020696E697469616C697A65648A
:104F80002E0A0A00290A002062797465733B2063A7
:104F9000726320002073746F72656420736574748B
:104FA000696E67732072657472696576656420281E
:104FB00000202863616C63756C6174656429210A43
:104FC0000020213D2000454550524F4D2043524383
:104FD000206D69736D61746368202D202873746F70
:104FE0007265642920002053697A653A2000496E71
:104FF0006465783A2000204D61726C696E3D5637C9
:1050000036290A00454550524F4D20766572736926
:105010006F6E206D69736D6174636820284545501B
:10502000524F4D3D004E6F20454550524F4D2E0A78
:1050300000454550524F4D20496E697469616C6955
:105040007A65640A004D6573682073617665642033
:10505000696E20736C6F7420003F556E61626C65E1
:1050600020746F2073617665206D657368206461BC
:1050700074612E0A0020736C6F743D00206D65739F
:105080006865735F656E643D004532454E443D0082
:10509000206D65736820736C6F747320617661692D
:1050A0006C61626C652E0A003F496E76616C6964C2
:1050B00020736C6F742E0A004D657368206C6F61ED
:1050C0006465642066726F6D20736C6F7420003F9E
:1050D000556E61626C6520746F206C6F6164206D29
:1050E00065736820646174612E0A004861726463AC
:1050F0006F6465642044656661756C7420536574E3
:1051000074696E6773204C6F616465640A00000007
:105110004843000048430000204200004842142E4B
:10512000A042856BA0423D6AC7430080C042E204B2
:105130000000E2040000E204000088130000556E45
:10514000696669656420426564204C6576656C69B2
:105150006E67003B20003A0A0020204D3630332095
:105160000020204D3432352046004261636B6C6173
:10517000736820636F6D70656E736174696F6E3AEA
:1051800000546F6F6C2D6368616E67696E673A00DB
:105190002055005431204C002055005430204C0044
:1051A00046696C616D656E74206C6F61642F756EFD
:1051B0006C6F6164206C656E677468733A00204B95
:1051C0000020204D3930302054004C696E656172EA
:1051D00020416476616E63653A0020204D38353198
:1051E0002058005A2D50726F6265204F66667365B5
:1051F000740020204D3230392053004175746F2DDA
:10520000526574726163743A20533D3020746F208C
:1052100064697361626C652C203120746F20696E43
:105220007465727072657420452D6F6E6C79206D97
:105230006F76657320617320726574726163742F79
:105240007265636F7665720020460020570020204B
:105250004D3230382053005265636F7665723A20C4
:10526000533C6C656E6774683E20463C756E69748D
:10527000732F6D3E0020460020570020204D323015
:1052800037205300526574726163743A20533C6C4A
:10529000656E6774683E20463C756E6974732F6D49
:1052A0003E205A3C6C6966743E0020440020490050
:1052B00020500020204D33303120450050494420FB
:1052C00073657474696E67733A002046002042006B
:1052D00020480020204D3134352053004D61746545
:1052E0007269616C206865617475702070617261AB
:1052F0006D65746572733A00206D65736865732E11
:105300000A0A00454550524F4D2063616E20686F78
:105310006C642000416374697665204D6573682074
:10532000536C6F743A200020204D343230205300EB
:105330000020580020204D323138205400486F742E
:10534000656E64206F6666736574733A00204A0068
:1053500020530020204D32303520420041647661D8
:105360006E6365643A20423C6D696E5F7365676D7C
:10537000656E745F74696D655F75733E20533C6D37
:10538000696E5F66656564726174653E20543C6D4C
:10539000696E5F74726176656C5F66656564726183
:1053A00074653E204A3C6A756E635F6465763E00B4
:1053B00020520020204D323034205000416363657C
:1053C0006C65726174696F6E2028756E6974732FD5
:1053D0007332293A20503C7072696E745F61636366
:1053E000656C3E20523C726574726163745F6163E8
:1053F00063656C3E20543C74726176656C5F6163DA
:1054000063656C3E0020204D3230312058004D61E4
:1054100078696D756D20416363656C65726174694F
:105420006F6E2028756E6974732F7332293A0020CD
:10543000204D3230332058004D6178696D756D20F4
:105440006665656472617465732028756E6974732E
:105450002F73293A0053746570732070657220753C
:105460006E69743A0020204D3230302044300A00FA
:1054700020440020540020204D3230300020446968
:105480007361626C65640A0046696C616D656E7477
:105490002073657474696E67733A0020204D31344F
:1054A000392043203B20556E69747320696E204378
:1054B000656C736975730A0020286D6D29002020C2
:1054C000473231202020203B20556E6974732069BB
:1054D0006E206D6D006F70656E00545249474745F0
:1054E000524544003A20007A5F6D696E00795F6D25
:1054F000696E00785F6D696E005265706F727469D5
:105500006E6720656E6473746F7020737461747558
:10551000730A00205A3A0020593A0020436F756EF2
:105520007420583A0020453A00205A3A0020593A4F
:1055300000583A0000005B4300005B4300006643F4
:1055400000002CC20000E0C00000000020746F6F5B
:10555000206C6F6E6720657874727573696F6E204A
:1055600070726576656E7465640A0020636F6C64A2
:1055700020657874727573696F6E207072657665D8
:105580006E7465640A00486F6D696E6720466169D4
:105590006C65640000002CC20000E0C00000000048
:1055A0000000484200004842000020415761726EEE
:1055B000696E673A20486F6D696E672042756D703D
:1055C0002044697669736F72203C20310A00020220
:1055D000040000A0400000A0400000004000008344
:1055E000430000624300006643FFFFFF000000012C
:1055F00000000001000080005555550000004000EB
:1056000033333300AAAA2A00499224000000200064
:10561000C7711C0099991900D145170055551500FF
:105620003BB11300244912001111110000001000B9
:105630000F0F0F00E3380E0043790D00CCCC0C00A7
:10564000C3300C00E8A20B0064210B00AAAA0A00D8
:10565000703D0A009DD80900427B09009224090090
:10566000DCD3080088880800104208000000080009
:10567000F0C107008787070075500700711C0700FD
:105680003EEB0600A1BC06006990060066660600B7
:10569000703E06006118060017F4050074D105007D
:1056A0005BB00500B290050062720500555505001B
:1056B00078390500B81E0500050505004EEC04000C
:1056C00087D40400A1BD040090A7040049920400FF
:1056D000C17D0400EE690400C75604004444040080
:1056E0005C320400082104004110040000000400A2
:1056F0003FF00300F8E0030026D20300C3C3030019
:10570000CCB503003AA803000A9B0300388E0300BF
:10571000C08103009F750300D0690300505E030041
:105720001D53030034480300913D0300333303004D
:1057300016290300381F030097150300300C0300DF
:10574000030303000BFA020049F10200BAE8020069
:105750005CE002002DD802002DD0020059C80200E2
:10576000B0C0020031B90200DAB10200AAAA0200F8
:10577000A0A30200BC9C0200FA9502005C8F02000C
:10578000DF88020082820200457C02002776020048
:1057900027700200436A02007C640200D05E0200AF
:1057A0003F590200C85302001000C90210012C0129
:1057B0004001220170011801B0010E01F001040145
:1057C0005002FA00B002F0003003E600D003DC0023
:1057D0009004D2007005C800A006BE000008B40006
:1057E000B009AA00D00BA000600E960060118C00DA
:1057F0000015820020197800C01D6E00A0226400F0
:10580000B0275A00902C500000314600E0343C0094
:1058100010383200903A2800603C1E00A03D140071
:10582000803E0A00203F000020746F6F206C6F6E76
:105830006720657874727573696F6E207072657613
:10584000656E7465640A0020636F6C64206578740B
:10585000727573696F6E2070726576656E746564BB
:105860000A00206C696D6974656420746F200020E3
:105870004D61782000FFFDFCFAF8F6F4F2F0EEEC52
:10588000EAE9E7E5E3E1E0DEDCDAD9D7D5D4D2D046
:10589000CFCDCBCAC8C7C5C3C2C0BFBDBCBAB9B7DC
:1058A000B6B4B3B2B0AFADACAAA9A8A6A5A4A2A144
:1058B000A09E9D9C9A99989795949392908F8E8D87
:1058C0008B8A8988878684838281807F7E7D7B7AAC
:1058D000797877767574737271706F6E6D6C6B6AB0
:1058E000696867666564636261605F5E5D5C5B5AA0
:1058F0005958585756555453525150504F4E4D4C7D
:105900004B4A4A4948474646454443424241403F44
:105910003E3E3D3C3B3B3A393838373635353433FB
:1059200032323130302F2E2E2D2C2B2B2A292928A4
:10593000272726252524232322212120201F1E1E40
:105940001D1C1C1B1B1A19191818171616151514CF
:10595000131312121111100F0F0E0E0D0D0C0C0B54
:105960000A0A0909080807070606050504040303CF
:10597000020201000024F4D43050C38E20C2A240A1
:1059800017828B7011127A910D816CD90AA861E18E
:1059900008C7586607615143061E4B5D05C145A700
:1059A000041A411104093D9803713931034036DB73
:1059B0000265339102D4305402802E1D02632CEE16
:1059C00001752AC501B028A001102781018F256427
:1059D000012B244B01E0223401AC211F018D200D4D
:1059E00001801FFC00841EED00971DDF00B81CD253
:1059F00000E61BC600201BBC00641AB200B219A846
:105A0000000A19A0006A189900D117910040178B5D
:105A100000B516840031167E00B31579003A15736F
:105A200000C7146F0058146A00EE136600881363F1
:105A30000025135E00C7125B006C1257001512544C
:105A400000C111510070114F0021114B00D61049B7
:105A5000008D1047004610440002104200C00F4065
:105A600000800F3E00420F3C00060F3B00CB0E387B
:105A700000930E37005C0E3500270E3400F30D3214
:105A800000C10D3100900D3000600D2E00320D2D43
:105A900000050D2C00D90C2B00AE0C2900850C291B
:105AA000005C0C2700350C27000E0C2600E80B24A8
:105AB00000C40B2400A00B23007D0B23005A0B21F4
:105AC00000390B2100180B2000F80A1F00D90A1E0C
:105AD00000BB0A1E009D0A1D00800A1D00630A1CEF
